{
  "contractName": "BrightCoinInvestorAccreditationCheck",
  "abi": [
    {
      "constant": false,
      "inputs": [
        {
          "name": "Investoraddr",
          "type": "address"
        },
        {
          "name": "AccreditionStatus",
          "type": "bool"
        },
        {
          "name": "AccreditionExpiryDateTime",
          "type": "uint256"
        },
        {
          "name": "InvestorGeoLocation",
          "type": "uint256"
        },
        {
          "name": "ipfsHashRegDInvestor",
          "type": "string"
        }
      ],
      "name": "AddInvestorAccreditionDetails",
      "outputs": [],
      "payable": false,
      "stateMutability": "nonpayable",
      "type": "function"
    },
    {
      "constant": true,
      "inputs": [
        {
          "name": "",
          "type": "uint256"
        }
      ],
      "name": "accreditedInvestors",
      "outputs": [
        {
          "name": "",
          "type": "address"
        }
      ],
      "payable": false,
      "stateMutability": "view",
      "type": "function"
    },
    {
      "constant": true,
      "inputs": [
        {
          "name": "",
          "type": "uint256"
        }
      ],
      "name": "regSInvestors",
      "outputs": [
        {
          "name": "",
          "type": "address"
        }
      ],
      "payable": false,
      "stateMutability": "view",
      "type": "function"
    },
    {
      "constant": true,
      "inputs": [],
      "name": "TotalInvestmentCurrently",
      "outputs": [
        {
          "name": "",
          "type": "uint256"
        }
      ],
      "payable": false,
      "stateMutability": "view",
      "type": "function"
    },
    {
      "constant": true,
      "inputs": [],
      "name": "USAGeoLocation",
      "outputs": [
        {
          "name": "",
          "type": "uint256"
        }
      ],
      "payable": false,
      "stateMutability": "view",
      "type": "function"
    },
    {
      "constant": true,
      "inputs": [
        {
          "name": "Investoraddr",
          "type": "address"
        }
      ],
      "name": "GetGeoLocationOfInvestor",
      "outputs": [
        {
          "name": "",
          "type": "uint256"
        }
      ],
      "payable": false,
      "stateMutability": "view",
      "type": "function"
    },
    {
      "constant": false,
      "inputs": [
        {
          "name": "Investoraddr",
          "type": "address"
        },
        {
          "name": "InvestorGeoLocation",
          "type": "uint256"
        },
        {
          "name": "ipfsHashRegSInvestor",
          "type": "string"
        }
      ],
      "name": "AddRegSInvestorDetails",
      "outputs": [],
      "payable": false,
      "stateMutability": "nonpayable",
      "type": "function"
    },
    {
      "inputs": [],
      "payable": false,
      "stateMutability": "nonpayable",
      "type": "constructor"
    },
    {
      "constant": true,
      "inputs": [
        {
          "name": "investor",
          "type": "address"
        },
        {
          "name": "InvestorAddress",
          "type": "address"
        },
        {
          "name": "currentdatetime",
          "type": "uint256"
        },
        {
          "name": "ICOType",
          "type": "uint8"
        }
      ],
      "name": "checkBothInvestorValidity",
      "outputs": [
        {
          "name": "",
          "type": "bool"
        }
      ],
      "payable": false,
      "stateMutability": "view",
      "type": "function"
    },
    {
      "constant": true,
      "inputs": [
        {
          "name": "InvestorAddress",
          "type": "address"
        },
        {
          "name": "currentdatetime",
          "type": "uint256"
        },
        {
          "name": "ICOType",
          "type": "uint8"
        }
      ],
      "name": "checkInvestorValidity",
      "outputs": [
        {
          "name": "",
          "type": "bool"
        }
      ],
      "payable": false,
      "stateMutability": "view",
      "type": "function"
    },
    {
      "constant": false,
      "inputs": [
        {
          "name": "InvestorAddress",
          "type": "address"
        },
        {
          "name": "expiryDateTime",
          "type": "uint256"
        },
        {
          "name": "tokenamount",
          "type": "uint256"
        },
        {
          "name": "ICOType",
          "type": "uint8"
        }
      ],
      "name": "SetLockingPeriodAndToken",
      "outputs": [],
      "payable": false,
      "stateMutability": "nonpayable",
      "type": "function"
    },
    {
      "constant": true,
      "inputs": [
        {
          "name": "senderAddr",
          "type": "address"
        },
        {
          "name": "ICOType",
          "type": "uint8"
        }
      ],
      "name": "GetTokenLockExpiryDateTime",
      "outputs": [
        {
          "name": "",
          "type": "uint256"
        }
      ],
      "payable": false,
      "stateMutability": "view",
      "type": "function"
    }
  ],
  "bytecode": "0x608060405234801561001057600080fd5b503333336000806101000a81548173ffffffffffffffffffffffffffffffffffffffff021916908373ffffffffffffffffffffffffffffffffffffffff16021790555080600260006101000a81548173ffffffffffffffffffffffffffffffffffffffff021916908373ffffffffffffffffffffffffffffffffffffffff1602179055505080600560006101000a81548173ffffffffffffffffffffffffffffffffffffffff021916908373ffffffffffffffffffffffffffffffffffffffff1602179055505033600860006101000a81548173ffffffffffffffffffffffffffffffffffffffff021916908373ffffffffffffffffffffffffffffffffffffffff16021790555061126e806101276000396000f3006080604052600436106100af576000357c0100000000000000000000000000000000000000000000000000000000900463ffffffff168063083cd030146100b457806319fd7e89146101465780632bf207da146101ef5780632c89a88c1461025c578063439c52d2146102c957806364ae8fe31461033b57806366c3bd351461039f57806394b1c8c3146103ca578063b4668f961461042e578063b8e0077314610459578063cb3ec408146104b0575b600080fd5b3480156100c057600080fd5b5061012c600480360381019080803573ffffffffffffffffffffffffffffffffffffffff169060200190929190803573ffffffffffffffffffffffffffffffffffffffff16906020019092919080359060200190929190803560ff169060200190929190505050610543565b604051808215151515815260200191505060405180910390f35b34801561015257600080fd5b506101ed600480360381019080803573ffffffffffffffffffffffffffffffffffffffff1690602001909291908035151590602001909291908035906020019092919080359060200190929190803590602001908201803590602001908080601f0160208091040260200160405190810160405280939291908181526020018383808284378201915050505050509192919290505050610655565b005b3480156101fb57600080fd5b5061021a600480360381019080803590602001909291905050506108a0565b604051808273ffffffffffffffffffffffffffffffffffffffff1673ffffffffffffffffffffffffffffffffffffffff16815260200191505060405180910390f35b34801561026857600080fd5b50610287600480360381019080803590602001909291905050506108de565b604051808273ffffffffffffffffffffffffffffffffffffffff1673ffffffffffffffffffffffffffffffffffffffff16815260200191505060405180910390f35b3480156102d557600080fd5b50610321600480360381019080803573ffffffffffffffffffffffffffffffffffffffff16906020019092919080359060200190929190803560ff16906020019092919050505061091c565b604051808215151515815260200191505060405180910390f35b34801561034757600080fd5b50610389600480360381019080803573ffffffffffffffffffffffffffffffffffffffff169060200190929190803560ff1690602001909291905050506109dd565b6040518082815260200191505060405180910390f35b3480156103ab57600080fd5b506103b4610aa1565b6040518082815260200191505060405180910390f35b3480156103d657600080fd5b5061042c600480360381019080803573ffffffffffffffffffffffffffffffffffffffff1690602001909291908035906020019092919080359060200190929190803560ff169060200190929190505050610aa7565b005b34801561043a57600080fd5b50610443610b5a565b6040518082815260200191505060405180910390f35b34801561046557600080fd5b5061049a600480360381019080803573ffffffffffffffffffffffffffffffffffffffff169060200190929190505050610b5f565b6040518082815260200191505060405180910390f35b3480156104bc57600080fd5b50610541600480360381019080803573ffffffffffffffffffffffffffffffffffffffff16906020019092919080359060200190929190803590602001908201803590602001908080601f0160208091040260200160405190810160405280939291908181526020018383808284378201915050505050509192919290505050610bb0565b005b6000806000806000925060009150600090506000600381111561056257fe5b60ff168560ff1614156105a1576105798887610dc5565b91506105858787610dc5565b9050801515821515141561059c576001935061064a565b610646565b600160038111156105ae57fe5b60ff168560ff1614156105c057610645565b600260038111156105cd57fe5b60ff168560ff16141561063c576105e48887610dc5565b91506105f08787610dc5565b90508015158215151415610607576001935061064a565b6106118887610dc5565b915061061d8787610dc5565b90508015158215151415610634576001935061064a565b82935061064a565b6001935061064a565b5b8293505b505050949350505050565b6000600260009054906101000a900473ffffffffffffffffffffffffffffffffffffffff168073ffffffffffffffffffffffffffffffffffffffff163373ffffffffffffffffffffffffffffffffffffffff1614151561071d576040517f08c379a00000000000000000000000000000000000000000000000000000000081526004018080602001828103825260148152602001807f4f776e6572204e6f7420417574686f72697a656400000000000000000000000081525060200191505060405180910390fd5b60008773ffffffffffffffffffffffffffffffffffffffff161415151561074357600080fd5b60008511151561075257600080fd5b600360008873ffffffffffffffffffffffffffffffffffffffff1673ffffffffffffffffffffffffffffffffffffffff1681526020019081526020016000209150868260000160006101000a81548173ffffffffffffffffffffffffffffffffffffffff021916908373ffffffffffffffffffffffffffffffffffffffff160217905550858260000160146101000a81548160ff0219169083151502179055508482600101819055508382600401819055508282600501908051906020019061081c92919061119d565b50600082600201819055506000826003018190555060048790806001815401808255809150509060018203906000526020600020016000909192909190916101000a81548173ffffffffffffffffffffffffffffffffffffffff021916908373ffffffffffffffffffffffffffffffffffffffff1602179055505050505050505050565b6004818154811015156108af57fe5b906000526020600020016000915054906101000a900473ffffffffffffffffffffffffffffffffffffffff1681565b6007818154811015156108ed57fe5b906000526020600020016000915054906101000a900473ffffffffffffffffffffffffffffffffffffffff1681565b60008060008091506000600381111561093157fe5b60ff168460ff161415610952576109488686610dc5565b91508192506109d4565b6001600381111561095f57fe5b60ff168460ff161415610971576109cf565b6002600381111561097e57fe5b60ff168460ff1614156109ce576109958686610dc5565b91506000151582151514156109c6576109ad86610b5f565b90506001811415156109be57600191505b8192506109d4565b8192506109d4565b5b600192505b50509392505050565b60008060008060038111156109ee57fe5b60ff168460ff161415610a0e57610a0485610e78565b9150819250610a99565b60026003811115610a1b57fe5b60ff168460ff161415610a6757610a328542610dc5565b9050600015158115151415610a5457610a4a85610ef3565b9150819250610a99565b610a5d85610e78565b9150819250610a99565b60016003811115610a7457fe5b60ff168460ff161415610a9457610a8a85610ef3565b9150819250610a99565b600092505b505092915050565b60015481565b6000806003811115610ab557fe5b60ff168260ff161415610ad257610acd858585610f6a565b610b53565b60016003811115610adf57fe5b60ff168260ff161415610afc57610af785858561100f565b610b52565b60026003811115610b0957fe5b60ff168260ff161415610b5057610b208542610dc5565b9050600015158115151415610b3f57610b3a85858561100f565b610b4b565b610b4a858585610f6a565b5b610b51565b5b5b5b5050505050565b600181565b600080600660008473ffffffffffffffffffffffffffffffffffffffff1673ffffffffffffffffffffffffffffffffffffffff16815260200190815260200160002090508060030154915050919050565b6000600560009054906101000a900473ffffffffffffffffffffffffffffffffffffffff168073ffffffffffffffffffffffffffffffffffffffff163373ffffffffffffffffffffffffffffffffffffffff16141515610c78576040517f08c379a00000000000000000000000000000000000000000000000000000000081526004018080602001828103825260148152602001807f4f776e6572204e6f7420417574686f72697a656400000000000000000000000081525060200191505060405180910390fd5b60008573ffffffffffffffffffffffffffffffffffffffff1614151515610c9e57600080fd5b600660008673ffffffffffffffffffffffffffffffffffffffff1673ffffffffffffffffffffffffffffffffffffffff1681526020019081526020016000209150848260000160006101000a81548173ffffffffffffffffffffffffffffffffffffffff021916908373ffffffffffffffffffffffffffffffffffffffff16021790555083826003018190555082826004019080519060200190610d4392919061119d565b50600082600101819055506000826002018190555060078590806001815401808255809150509060018203906000526020600020016000909192909190916101000a81548173ffffffffffffffffffffffffffffffffffffffff021916908373ffffffffffffffffffffffffffffffffffffffff160217905550505050505050565b600080600083118015610def575060008473ffffffffffffffffffffffffffffffffffffffff1614155b15610e6c57600360008573ffffffffffffffffffffffffffffffffffffffff1673ffffffffffffffffffffffffffffffffffffffff1681526020019081526020016000209050828160010154118015610e5d5750600115158160000160149054906101000a900460ff161515145b15610e6b5760019150610e71565b5b600091505b5092915050565b60008060008373ffffffffffffffffffffffffffffffffffffffff16141515610ee857600360008473ffffffffffffffffffffffffffffffffffffffff1673ffffffffffffffffffffffffffffffffffffffff168152602001908152602001600020905080600201549150610eed565b600091505b50919050565b60008060008373ffffffffffffffffffffffffffffffffffffffff1614151515610f1c57600080fd5b600660008473ffffffffffffffffffffffffffffffffffffffff1673ffffffffffffffffffffffffffffffffffffffff16815260200190815260200160002090508060010154915050919050565b60008083111515610f7a57600080fd5b60008473ffffffffffffffffffffffffffffffffffffffff1614151515610fa057600080fd5b600360008573ffffffffffffffffffffffffffffffffffffffff1673ffffffffffffffffffffffffffffffffffffffff168152602001908152602001600020905082816002018190555061100182826003015461117c90919063ffffffff16565b816003018190555050505050565b6000600560009054906101000a900473ffffffffffffffffffffffffffffffffffffffff168073ffffffffffffffffffffffffffffffffffffffff163373ffffffffffffffffffffffffffffffffffffffff161415156110d7576040517f08c379a00000000000000000000000000000000000000000000000000000000081526004018080602001828103825260148152602001807f4f776e6572204e6f7420417574686f72697a656400000000000000000000000081525060200191505060405180910390fd5b6000841115156110e657600080fd5b60008573ffffffffffffffffffffffffffffffffffffffff161415151561110c57600080fd5b600660008673ffffffffffffffffffffffffffffffffffffffff1673ffffffffffffffffffffffffffffffffffffffff168152602001908152602001600020915083826001018190555061116d83836002015461117c90919063ffffffff16565b82600201819055505050505050565b600080828401905083811015151561119357600080fd5b8091505092915050565b828054600181600116156101000203166002900490600052602060002090601f016020900481019282601f106111de57805160ff191683800117855561120c565b8280016001018555821561120c579182015b8281111561120b5782518255916020019190600101906111f0565b5b509050611219919061121d565b5090565b61123f91905b8082111561123b576000816000905550600101611223565b5090565b905600a165627a7a72305820261cde729c1f3376634d1ce93db6148fba3ed5fed8e320fed80a7dc8616f9b190029",
  "source": "//Rules for Accredited Investors\n/*\nReg D - \nFor USA citizens only. \nThese are for sale to accredited investors only .\n(KYC/AML has to be done). \nThere is a 1 year lockin period. \nThe only exception is that one accredited investor can sell to another accredited investor. \n\nReg A+ -  For USA citizens only. Anyone can invest. \n    The maximum that can be invested is $50Million per year. \n    KYC/AML is required.\n     The max a person can invest in reg a+ is $17500 per year. \n\nReg S -\n This is for USA companies raising money outside USA. \n This can have a 6 Month or a 1 year lockin. \n (KYC/AML has to be done). The other rule is that these tokens cannot be sold to a USA person for a 1 year period. \n\nNOTE- During any sale period a investor in USA can be offered reg d and reg a+. \nThe investor has to choose and fill out paperwork to qualify. \n\nSo the token has to be aware of the following:\nWHO CAN BUY AND WHO CAN SELL\nwas it sold as a reg d. date of its sale.  Has to have to ability to unlock\nwas it sold as a reg a+ . date of sale\nwas it sold as reg S. date of sale. Is the lockin 6month or 1 year. During this period the token cannot unlock.\n*/\n\n/*\n\nwhat location is the investor based in\nIs this investor accredited. Time and date of accreditation (as it expires after x time)\nis KYC/AML done. Time and date of KYC/AML (as it expires after x time)\nIs there more data that can be stored here? eg: file numbers etc? post documents to blockchain etc?\nHow much has this investor invested in the past.\n\n*/\n\npragma solidity ^0.4.24;\n\nimport \"./BrightCoinTokenOwner.sol\";\nimport \"./BrightCoinRegSInvestor.sol\";\nimport \"./BrightCoinAccreditionInvestor.sol\";\n\n\n\ncontract BrightCoinInvestorAccreditationCheck is BrightCoinAccreditionInvestor(msg.sender),BrightCoinRegSInvestor(msg.sender)\n{\n\nenum BrightCoinInvestorType { RegD, RegS, RegDRegS, Utility }\n\naddress owner;\nconstructor() public\n{\n  owner = msg.sender;\n}\n\n\n function checkBothInvestorValidity(address investor, address InvestorAddress, uint256 currentdatetime, uint8 ICOType)  public view returns(bool)\n {\n\n    bool validityStatus = false;\n    bool Investoevalidity = false;\n    bool newInvestorvalidity = false;\n \n    if(ICOType == uint8(BrightCoinInvestorType.RegD))\n    {\n      Investoevalidity = CheckAccreditionStatus(investor,currentdatetime);\n      newInvestorvalidity = CheckAccreditionStatus(InvestorAddress,currentdatetime);\n       if( Investoevalidity == newInvestorvalidity)\n            return true;\n    }\n    else if (ICOType == uint8(BrightCoinInvestorType.RegS))\n    {\n  \n     // Investoevalidity = CheckAccreditionStatusRegS(investor,currentdatetime);\n     // newInvestorvalidity = CheckAccreditionStatusRegS(InvestorAddress,currentdatetime);\n     //  if( Investoevalidity == newInvestorvalidity)\n        //    return true;\n\n    }\n    else if(ICOType == uint8(BrightCoinInvestorType.RegDRegS))\n    {\n        //Do check for RegD and RegS stuff\n        Investoevalidity = CheckAccreditionStatus(investor,currentdatetime);\n        newInvestorvalidity = CheckAccreditionStatus(InvestorAddress,currentdatetime);\n\n        if(Investoevalidity == newInvestorvalidity)\n            return true;\n        else\n        {            \n           Investoevalidity = CheckAccreditionStatus(investor,currentdatetime);\n           newInvestorvalidity = CheckAccreditionStatus(InvestorAddress,currentdatetime);\n           if(Investoevalidity == newInvestorvalidity)\n            return true;\n        }\n\n        return validityStatus;\n\n    }\n    else  //Utility ICO \n    {\n        //No check required\n         return true;\n    }\n\n\n   return validityStatus;\n\n }\n\n\nfunction checkInvestorValidity( address InvestorAddress, uint256 currentdatetime, uint8 ICOType)  public view returns(bool)\n {\n\n    bool validityStatus = false;\n  \n \n    if(ICOType == uint8(BrightCoinInvestorType.RegD))\n    {\n      validityStatus = CheckAccreditionStatus(InvestorAddress,currentdatetime);\n       return validityStatus;\n    }\n    else if (ICOType == uint8(BrightCoinInvestorType.RegS))\n    {\n   \n      //validityStatus = CheckAccreditionStatusRegS(InvestorAddress,currentdatetime);\n     // return validityStatus;\n\n    }\n    else if(ICOType == uint8(BrightCoinInvestorType.RegDRegS))\n    {\n        //Do check for RegD and RegS stuff\n        validityStatus = CheckAccreditionStatus(InvestorAddress,currentdatetime);\n        if(validityStatus == false)\n        {            \n           \n           uint256 GeoLocation = GetGeoLocationOfInvestor(InvestorAddress);\n           if(GeoLocation != 1) //Should not be USA\n            validityStatus = true;\n         \n           return validityStatus;\n        }\n        return validityStatus;\n\n    }\n    else  //Utility ICO \n    {\n        //No check required\n     }\n\n\n   return true;\n\n }\n\n\n function SetLockingPeriodAndToken(address InvestorAddress, uint256 expiryDateTime, \n                                      uint256 tokenamount, uint8 ICOType) public\n {\n\n  if(ICOType == uint8(BrightCoinInvestorType.RegD))\n    {\n      SetLockingPeriodAccreditedInvestor(InvestorAddress,expiryDateTime,tokenamount);\n    }\n    else if (ICOType == uint8(BrightCoinInvestorType.RegS))\n    {\n\n           SetLockingPeriodRegS(InvestorAddress,expiryDateTime,tokenamount);\n    }\n    else if(ICOType == uint8(BrightCoinInvestorType.RegDRegS))\n    {\n        //Do check for RegDand RegS stuff\n        bool validityStatus = CheckAccreditionStatus(InvestorAddress,now);\n        if(validityStatus == false)\n        {\n            //It must be RegS Investor\n         SetLockingPeriodRegS(InvestorAddress,expiryDateTime,tokenamount);\n        }\n        else\n        SetLockingPeriodAccreditedInvestor(InvestorAddress,expiryDateTime,tokenamount);\n\n    }\n    else  //Utility ICO \n    {\n       //Mo Locking period but do we need to store their amount transaction details\n    }\n\n }\n\n  function GetTokenLockExpiryDateTime(address senderAddr,uint8 ICOType ) public view returns(uint256)\n  {\n      uint256 lockingexpiryDate;\n\n     if(ICOType == uint8(BrightCoinInvestorType.RegD))\n    {\n      lockingexpiryDate = GetTokenLockExpiryDateTimeAccreditedInvestor(senderAddr);\n      return lockingexpiryDate;\n    }\n    else if(ICOType == uint8(BrightCoinInvestorType.RegDRegS))\n    {\n\n        //Do check for RegDand RegS stuff\n        bool validityStatus = CheckAccreditionStatus(senderAddr,now);\n        if(validityStatus == false)\n        {\n            lockingexpiryDate = GetTokenLockExpiryDateTimeRegS(senderAddr);  //RegS Investor\n            return lockingexpiryDate;\n        }\n        else\n        {\n            lockingexpiryDate = GetTokenLockExpiryDateTimeAccreditedInvestor(senderAddr);  //RegD Investor\n             return lockingexpiryDate;\n        }\n\n    }\n   else if(ICOType == uint8(BrightCoinInvestorType.RegS))\n    {\n\n        lockingexpiryDate = GetTokenLockExpiryDateTimeRegS(senderAddr);  //RegS Investor\n        return lockingexpiryDate;\n\n    }\n    else\n    {\n        //Utility no expirydate\n    }\n\n    return 0;\n\n   }\n\n  \n}\n\n\n",
  "sourcePath": "/Users/sandeepkumar/BrightCoinContract/contracts/BrightCoinInvestorAccreditationCheck.sol",
  "compiler": {
    "name": "solc",
    "version": "0.4.24+commit.e67f0147.Emscripten.clang"
  },
  "schemaVersion": "2.0.1",
  "updatedAt": "2018-09-06T06:25:58.189Z"
}