{
  "contractName": "BrightCoinTeamTokenDistribution",
  "abi": [
    {
      "constant": true,
      "inputs": [
        {
          "name": "",
          "type": "uint256"
        }
      ],
      "name": "TeamTokenDetailsAddr",
      "outputs": [
        {
          "name": "",
          "type": "address"
        }
      ],
      "payable": false,
      "stateMutability": "view",
      "type": "function"
    },
    {
      "constant": true,
      "inputs": [],
      "name": "InitialAllocatedTeamToken",
      "outputs": [
        {
          "name": "",
          "type": "uint256"
        }
      ],
      "payable": false,
      "stateMutability": "view",
      "type": "function"
    },
    {
      "constant": true,
      "inputs": [],
      "name": "TotalAllocatedTeamToken",
      "outputs": [
        {
          "name": "",
          "type": "uint256"
        }
      ],
      "payable": false,
      "stateMutability": "view",
      "type": "function"
    },
    {
      "inputs": [
        {
          "name": "_owner",
          "type": "address"
        }
      ],
      "payable": false,
      "stateMutability": "nonpayable",
      "type": "constructor"
    },
    {
      "constant": false,
      "inputs": [
        {
          "name": "NewTeamAddr",
          "type": "address"
        },
        {
          "name": "Tokenamount",
          "type": "uint256"
        },
        {
          "name": "TokenLockStartDateTime",
          "type": "uint256"
        },
        {
          "name": "TokenLockEndDateTime",
          "type": "uint256"
        },
        {
          "name": "partofTeam",
          "type": "bool"
        }
      ],
      "name": "AddTeamInvestor",
      "outputs": [],
      "payable": false,
      "stateMutability": "nonpayable",
      "type": "function"
    },
    {
      "constant": false,
      "inputs": [
        {
          "name": "NewTeamAddr",
          "type": "address"
        }
      ],
      "name": "RemoveTeamFromFurtherInvestment",
      "outputs": [],
      "payable": false,
      "stateMutability": "nonpayable",
      "type": "function"
    },
    {
      "constant": false,
      "inputs": [
        {
          "name": "Tokenamount",
          "type": "uint256"
        }
      ],
      "name": "IsTokenAvailable",
      "outputs": [
        {
          "name": "",
          "type": "bool"
        }
      ],
      "payable": false,
      "stateMutability": "nonpayable",
      "type": "function"
    },
    {
      "constant": true,
      "inputs": [],
      "name": "TotalTeamnvestor",
      "outputs": [
        {
          "name": "",
          "type": "uint256"
        }
      ],
      "payable": false,
      "stateMutability": "view",
      "type": "function"
    },
    {
      "constant": true,
      "inputs": [
        {
          "name": "TeamAddr",
          "type": "address"
        }
      ],
      "name": "CheckIfTeamActive",
      "outputs": [
        {
          "name": "",
          "type": "bool"
        }
      ],
      "payable": false,
      "stateMutability": "view",
      "type": "function"
    },
    {
      "constant": true,
      "inputs": [
        {
          "name": "NewAdvisorAddr",
          "type": "address"
        }
      ],
      "name": "CheckTeamTokenAmount",
      "outputs": [
        {
          "name": "",
          "type": "uint256"
        }
      ],
      "payable": false,
      "stateMutability": "view",
      "type": "function"
    }
  ],
  "bytecode": "0x6080604052600060035534801561001557600080fd5b5060405160208061087a83398101806040528101908080519060200190929190505050336000806101000a81548173ffffffffffffffffffffffffffffffffffffffff021916908373ffffffffffffffffffffffffffffffffffffffff16021790555080600160006101000a81548173ffffffffffffffffffffffffffffffffffffffff021916908373ffffffffffffffffffffffffffffffffffffffff160217905550506107b1806100c96000396000f300608060405260043610610099576000357c0100000000000000000000000000000000000000000000000000000000900463ffffffff168063065e70dc1461009e5780631e9e3f971461010b5780632fc272e1146101625780634898011a1461018d5780634c3ed4e1146101fa578063577ed9d214610225578063bc30585214610268578063d19babf414610293578063e5ab9f7c146102d8575b600080fd5b3480156100aa57600080fd5b506100c960048036038101908080359060200190929190505050610333565b604051808273ffffffffffffffffffffffffffffffffffffffff1673ffffffffffffffffffffffffffffffffffffffff16815260200191505060405180910390f35b34801561011757600080fd5b5061014c600480360381019080803573ffffffffffffffffffffffffffffffffffffffff169060200190929190505050610371565b6040518082815260200191505060405180910390f35b34801561016e57600080fd5b506101776103c2565b6040518082815260200191505060405180910390f35b34801561019957600080fd5b506101f8600480360381019080803573ffffffffffffffffffffffffffffffffffffffff1690602001909291908035906020019092919080359060200190929190803590602001909291908035151590602001909291905050506103c9565b005b34801561020657600080fd5b5061020f610656565b6040518082815260200191505060405180910390f35b34801561023157600080fd5b50610266600480360381019080803573ffffffffffffffffffffffffffffffffffffffff169060200190929190505050610663565b005b34801561027457600080fd5b5061027d6106c7565b6040518082815260200191505060405180910390f35b34801561029f57600080fd5b506102be600480360381019080803590602001909291905050506106cd565b604051808215151515815260200191505060405180910390f35b3480156102e457600080fd5b50610319600480360381019080803573ffffffffffffffffffffffffffffffffffffffff16906020019092919050505061070f565b604051808215151515815260200191505060405180910390f35b60058181548110151561034257fe5b906000526020600020016000915054906101000a900473ffffffffffffffffffffffffffffffffffffffff1681565b600080600460008473ffffffffffffffffffffffffffffffffffffffff1673ffffffffffffffffffffffffffffffffffffffff16815260200190815260200160002090508060010154915050919050565b620186a081565b6000600160009054906101000a900473ffffffffffffffffffffffffffffffffffffffff168073ffffffffffffffffffffffffffffffffffffffff163373ffffffffffffffffffffffffffffffffffffffff16141515610491576040517f08c379a00000000000000000000000000000000000000000000000000000000081526004018080602001828103825260148152602001807f4f776e6572204e6f7420417574686f72697a656400000000000000000000000081525060200191505060405180910390fd5b6001151561049e876106cd565b15151415156104ac57600080fd5b600460008873ffffffffffffffffffffffffffffffffffffffff1673ffffffffffffffffffffffffffffffffffffffff1681526020019081526020016000209150600015158260040160019054906101000a900460ff161515141561060d57868260000160006101000a81548173ffffffffffffffffffffffffffffffffffffffff021916908373ffffffffffffffffffffffffffffffffffffffff160217905550858260010181905550848260020181905550838260030181905550828260040160006101000a81548160ff02191690831515021790555060018260040160016101000a81548160ff02191690831515021790555060058790806001815401808255809150509060018203906000526020600020016000909192909190916101000a81548173ffffffffffffffffffffffffffffffffffffffff021916908373ffffffffffffffffffffffffffffffffffffffff1602179055505061064d565b6001151561061a8861070f565b151514151561062857600080fd5b8582600101600082825401925050819055508482600201819055508382600301819055505b50505050505050565b6000600580549050905090565b6000600460008373ffffffffffffffffffffffffffffffffffffffff1673ffffffffffffffffffffffffffffffffffffffff168152602001908152602001600020905060008160040160006101000a81548160ff0219169083151502179055505050565b60025481565b6000600254600354111515156106e257600080fd5b60025482600354011015156106f657600080fd5b8160036000828254019250508190555060019050919050565b600080600460008473ffffffffffffffffffffffffffffffffffffffff1673ffffffffffffffffffffffffffffffffffffffff1681526020019081526020016000209050600115158160040160009054906101000a900460ff161515141561077a576001915061077f565b600091505b509190505600a165627a7a7230582027e12dbc6b657b2ac869d08a42ff3e7d58ad3bed80154fb19cb60bb335a2d80a0029",
  "source": "\npragma solidity ^0.4.24;\n\nimport \"./BrightCoinTokenOwner.sol\";\n\ncontract BrightCoinTeamTokenDistribution is BrightCoinTokenOwner\n{\n\n\naddress owner;\nconstructor(address _owner) public\n{\n  owner = _owner;\n}\n//Team Distribution  \n //There might be multiple entry to this\n uint256 public constant InitialAllocatedTeamToken = 100000;  // Token token allocated for Team distribution\n uint256 public TotalAllocatedTeamToken;\n uint256 internal currentAllocatedTeamToken = 0;  //To be added as it is \n \n struct TeamDistribution {\n        address TeamDistributionAddress;\n        uint256 TeamDistributionAmount;\n        uint256 TeamDistributionAmountLockStatrDateTime;\n        uint256 TeamDistributionAmountLockExpiryDateTime;\n        bool    TeamActiveInvestor;  //To Ensure if team is still on\n        bool    TeamDistributionIndex; //just to ensure this team once got the investment   \n    }\n\n mapping(address => TeamDistribution) TeamDistributionDetails;\n address[] public TeamTokenDetailsAddr;\n \n //Addng Details to Team Token\n function AddTeamInvestor(address NewTeamAddr,uint256 Tokenamount,uint256 TokenLockStartDateTime,uint256 TokenLockEndDateTime, bool partofTeam) onlyTokenOwner(owner) public {\n     \n  require(IsTokenAvailable(Tokenamount) == true);\n\n  TeamDistribution storage TeamDetails = TeamDistributionDetails[NewTeamAddr];\n // require(TeamDetails.partOfTeam == true);\n\n  if(TeamDetails.TeamDistributionIndex == false) //New Team\n  {\n    TeamDetails.TeamDistributionAddress = NewTeamAddr;\n    TeamDetails.TeamDistributionAmount = Tokenamount;\n    TeamDetails.TeamDistributionAmountLockStatrDateTime = TokenLockStartDateTime;\n    TeamDetails.TeamDistributionAmountLockExpiryDateTime = TokenLockEndDateTime;\n    TeamDetails.TeamActiveInvestor = partofTeam;\n    TeamDetails.TeamDistributionIndex = true;\n    TeamTokenDetailsAddr.push(NewTeamAddr);\n  }\n  else\n  {\n      //check if Team is Active\n      require(CheckIfTeamActive(NewTeamAddr) == true);\n      TeamDetails.TeamDistributionAmount += Tokenamount;\n      TeamDetails.TeamDistributionAmountLockStatrDateTime = TokenLockStartDateTime;\n      TeamDetails.TeamDistributionAmountLockExpiryDateTime = TokenLockEndDateTime;\n  }\n  \n }\n\n function RemoveTeamFromFurtherInvestment(address NewTeamAddr) public \n {\n    TeamDistribution storage TeamDetails = TeamDistributionDetails[NewTeamAddr];\n    TeamDetails.TeamActiveInvestor = false;\n\n }\n \n function IsTokenAvailable(uint256 Tokenamount) public returns(bool)\n {\n     require(currentAllocatedTeamToken <=TotalAllocatedTeamToken);\n     require(currentAllocatedTeamToken + Tokenamount < TotalAllocatedTeamToken);\n     currentAllocatedTeamToken += Tokenamount;\n     return true;\n }\n\n function TotalTeamnvestor() public view returns(uint256) \n {\n   return TeamTokenDetailsAddr.length;\n  \n }\n\n//check if Team Removed \n function CheckIfTeamActive(address TeamAddr) view public returns(bool)\n {\n\n  TeamDistribution storage TeamDetails = TeamDistributionDetails[TeamAddr];\n\n  if(TeamDetails.TeamActiveInvestor == true)\n  {\n      return true;\n  }\n  return false;\n\n }\n\n //check Amount with Advisor\n function CheckTeamTokenAmount(address NewAdvisorAddr) view public returns(uint256)\n {\n\n  TeamDistribution storage TeamDetails = TeamDistributionDetails[NewAdvisorAddr];\n  //require(TeamDetails.TeamDistributionIndex == true);\n        return TeamDetails.TeamDistributionAmount;\n\n }\n\n\n\n}",
  "sourcePath": "/Users/sandeepkumar/BrightCoinContract/contracts/BrightCoinTeamTokenDistribution.sol",
  "compiler": {
    "name": "solc",
    "version": "0.4.24+commit.e67f0147.Emscripten.clang"
  },
  "schemaVersion": "2.0.1",
  "updatedAt": "2018-09-06T06:25:58.213Z"
}