{
  "contractName": "BrightCoinInvestorKYC",
  "abi": [
    {
      "constant": true,
      "inputs": [
        {
          "name": "",
          "type": "uint256"
        }
      ],
      "name": "BrightCoinInvestorKYCAddr",
      "outputs": [
        {
          "name": "",
          "type": "address"
        }
      ],
      "payable": false,
      "stateMutability": "view",
      "type": "function"
    },
    {
      "constant": true,
      "inputs": [],
      "name": "Maximumcontributors",
      "outputs": [
        {
          "name": "",
          "type": "uint256"
        }
      ],
      "payable": false,
      "stateMutability": "view",
      "type": "function"
    },
    {
      "inputs": [],
      "payable": false,
      "stateMutability": "nonpayable",
      "type": "constructor"
    },
    {
      "constant": false,
      "inputs": [
        {
          "name": "InvestordAddress",
          "type": "address"
        },
        {
          "name": "KYCStatus",
          "type": "bool"
        },
        {
          "name": "KYCExpiryDateTime",
          "type": "uint256"
        },
        {
          "name": "ipfsHashKYC",
          "type": "string"
        }
      ],
      "name": "SetKYCDetailsofInvestor",
      "outputs": [],
      "payable": false,
      "stateMutability": "nonpayable",
      "type": "function"
    },
    {
      "constant": true,
      "inputs": [
        {
          "name": "InvestordAddress",
          "type": "address"
        },
        {
          "name": "currentDateTime",
          "type": "uint256"
        }
      ],
      "name": "CheckKYCStatus",
      "outputs": [
        {
          "name": "",
          "type": "bool"
        }
      ],
      "payable": false,
      "stateMutability": "view",
      "type": "function"
    },
    {
      "constant": true,
      "inputs": [
        {
          "name": "InvestordAddress",
          "type": "address"
        }
      ],
      "name": "GetKYCDetails",
      "outputs": [
        {
          "name": "",
          "type": "string"
        }
      ],
      "payable": false,
      "stateMutability": "view",
      "type": "function"
    },
    {
      "constant": true,
      "inputs": [
        {
          "name": "InvestordAddress",
          "type": "address"
        }
      ],
      "name": "GetKYCExpiryDate",
      "outputs": [
        {
          "name": "",
          "type": "uint256"
        }
      ],
      "payable": false,
      "stateMutability": "view",
      "type": "function"
    },
    {
      "constant": true,
      "inputs": [],
      "name": "GetKYCCount",
      "outputs": [
        {
          "name": "",
          "type": "uint256"
        }
      ],
      "payable": false,
      "stateMutability": "view",
      "type": "function"
    }
  ],
  "bytecode": "0x608060405234801561001057600080fd5b50336000806101000a81548173ffffffffffffffffffffffffffffffffffffffff021916908373ffffffffffffffffffffffffffffffffffffffff16021790555033600160006101000a81548173ffffffffffffffffffffffffffffffffffffffff021916908373ffffffffffffffffffffffffffffffffffffffff160217905550610864806100a16000396000f300608060405260043610610083576000357c0100000000000000000000000000000000000000000000000000000000900463ffffffff16806306722dd91461008857806331b75b3814610144578063421124171461019b57806351c0bfe914610200578063848bcbed1461026d578063e748d4f914610298578063faf19321146102c3575b600080fd5b34801561009457600080fd5b506100c9600480360381019080803573ffffffffffffffffffffffffffffffffffffffff169060200190929190505050610362565b6040518080602001828103825283818151815260200191508051906020019080838360005b838110156101095780820151818401526020810190506100ee565b50505050905090810190601f1680156101365780820380516001836020036101000a031916815260200191505b509250505060405180910390f35b34801561015057600080fd5b50610185600480360381019080803573ffffffffffffffffffffffffffffffffffffffff16906020019092919050505061044c565b6040518082815260200191505060405180910390f35b3480156101a757600080fd5b506101e6600480360381019080803573ffffffffffffffffffffffffffffffffffffffff1690602001909291908035906020019092919050505061049d565b604051808215151515815260200191505060405180910390f35b34801561020c57600080fd5b5061022b60048036038101908080359060200190929190505050610532565b604051808273ffffffffffffffffffffffffffffffffffffffff1673ffffffffffffffffffffffffffffffffffffffff16815260200191505060405180910390f35b34801561027957600080fd5b50610282610570565b6040518082815260200191505060405180910390f35b3480156102a457600080fd5b506102ad61057d565b6040518082815260200191505060405180910390f35b3480156102cf57600080fd5b50610360600480360381019080803573ffffffffffffffffffffffffffffffffffffffff16906020019092919080351515906020019092919080359060200190929190803590602001908201803590602001908080601f0160208091040260200160405190810160405280939291908181526020018383808284378201915050505050509192919290505050610584565b005b60606000600260008473ffffffffffffffffffffffffffffffffffffffff1673ffffffffffffffffffffffffffffffffffffffff1681526020019081526020016000209050806002018054600181600116156101000203166002900480601f01602080910402602001604051908101604052809291908181526020018280546001816001161561010002031660029004801561043f5780601f106104145761010080835404028352916020019161043f565b820191906000526020600020905b81548152906001019060200180831161042257829003601f168201915b5050505050915050919050565b600080600260008473ffffffffffffffffffffffffffffffffffffffff1673ffffffffffffffffffffffffffffffffffffffff16815260200190815260200160002090508060010154915050919050565b60008060008473ffffffffffffffffffffffffffffffffffffffff16141515156104c657600080fd5b600083141515156104d657600080fd5b600260008573ffffffffffffffffffffffffffffffffffffffff1673ffffffffffffffffffffffffffffffffffffffff16815260200190815260200160002090508060000160149054906101000a900460ff1691505092915050565b60038181548110151561054157fe5b906000526020600020016000915054906101000a900473ffffffffffffffffffffffffffffffffffffffff1681565b6000600380549050905090565b620186a081565b6000600160009054906101000a900473ffffffffffffffffffffffffffffffffffffffff168073ffffffffffffffffffffffffffffffffffffffff163373ffffffffffffffffffffffffffffffffffffffff1614151561064c576040517f08c379a00000000000000000000000000000000000000000000000000000000081526004018080602001828103825260148152602001807f4f776e6572204e6f7420417574686f72697a656400000000000000000000000081525060200191505060405180910390fd5b620186a06003805490501115151561066357600080fd5b600260008773ffffffffffffffffffffffffffffffffffffffff1673ffffffffffffffffffffffffffffffffffffffff1681526020019081526020016000209150858260000160006101000a81548173ffffffffffffffffffffffffffffffffffffffff021916908373ffffffffffffffffffffffffffffffffffffffff160217905550848260000160146101000a81548160ff02191690831515021790555083826001018190555082826002019080519060200190610724929190610793565b5060038690806001815401808255809150509060018203906000526020600020016000909192909190916101000a81548173ffffffffffffffffffffffffffffffffffffffff021916908373ffffffffffffffffffffffffffffffffffffffff16021790555050505050505050565b828054600181600116156101000203166002900490600052602060002090601f016020900481019282601f106107d457805160ff1916838001178555610802565b82800160010185558215610802579182015b828111156108015782518255916020019190600101906107e6565b5b50905061080f9190610813565b5090565b61083591905b80821115610831576000816000905550600101610819565b5090565b905600a165627a7a7230582010cd8f45c343405962a8f0062939a50b7c3b7ba55f8e4c908f08fabcf5fbc8700029",
  "source": "pragma solidity ^0.4.24;\n\nimport \"./BrightCoinTokenOwner.sol\";\n\ncontract BrightCoinInvestorKYC is BrightCoinTokenOwner\n{\n\nuint256 public constant Maximumcontributors = 100000; //Maximum no of Contributors\n\naddress owner;\nconstructor() public\n{\n  owner = msg.sender;\n}\n    \nstruct BrightCoinInvestorKYCstruct {\n\n    address whitelistedAddress; // Whitelist customer address\n    bool KYCStatus;  //KYC Done Status\n    uint256 KYCExpiryDateTime; //KYC Expity Date Time\n    string ipfsHashKYC; //It must contains the details of Investor\n  }\n\nmapping(address => BrightCoinInvestorKYCstruct) BrightCoinInvestorKYCDetails;\naddress[] public BrightCoinInvestorKYCAddr;\n\nfunction SetKYCDetailsofInvestor(address InvestordAddress,bool KYCStatus,\n                                uint256 KYCExpiryDateTime, string ipfsHashKYC) onlyTokenOwner(owner) public \n {\n         \n      require( BrightCoinInvestorKYCAddr.length <= Maximumcontributors);\n\n       BrightCoinInvestorKYCstruct storage InvestorKYC = BrightCoinInvestorKYCDetails[InvestordAddress];\n       InvestorKYC.whitelistedAddress = InvestordAddress;\n       InvestorKYC.KYCStatus = KYCStatus;\n       InvestorKYC.KYCExpiryDateTime = KYCExpiryDateTime;\n       InvestorKYC.ipfsHashKYC = ipfsHashKYC;\n \n       BrightCoinInvestorKYCAddr.push(InvestordAddress);\n   }\n   \nfunction CheckKYCStatus(address InvestordAddress,uint256 currentDateTime)  public view returns(bool)\n{\n    require(InvestordAddress != 0x0);\n    require(currentDateTime != 0);\n\n    BrightCoinInvestorKYCstruct storage InvestorKYC = BrightCoinInvestorKYCDetails[InvestordAddress];\n\n    return InvestorKYC.KYCStatus;\n}\n\nfunction GetKYCDetails(address InvestordAddress)  public view returns(string)\n{\n    \n    BrightCoinInvestorKYCstruct storage InvestorKYC = BrightCoinInvestorKYCDetails[InvestordAddress];\n    return InvestorKYC.ipfsHashKYC;\n}\n\nfunction GetKYCExpiryDate(address InvestordAddress)  public view returns(uint256)\n{\n    \n    BrightCoinInvestorKYCstruct storage InvestorKYC = BrightCoinInvestorKYCDetails[InvestordAddress];\n    return InvestorKYC.KYCExpiryDateTime;\n}\n\n\n\nfunction GetKYCCount() view public returns(uint256)\n{\n    \n    return BrightCoinInvestorKYCAddr.length;\n   \n}\n\n\n}",
  "sourcePath": "/Users/sandeepkumar/BrightCoinContract/contracts/BrightCoinInvestorKYC.sol",
  "compiler": {
    "name": "solc",
    "version": "0.4.24+commit.e67f0147.Emscripten.clang"
  },
  "schemaVersion": "2.0.1",
  "updatedAt": "2018-09-06T06:25:58.182Z"
}