{
  "contractName": "BrightCoinTokenDistributionDetails",
  "abi": [
    {
      "constant": true,
      "inputs": [
        {
          "name": "",
          "type": "uint256"
        }
      ],
      "name": "TeamTokenDetailsAddr",
      "outputs": [
        {
          "name": "",
          "type": "address"
        }
      ],
      "payable": false,
      "stateMutability": "view",
      "type": "function"
    },
    {
      "constant": false,
      "inputs": [
        {
          "name": "Tokenamount",
          "type": "uint256"
        }
      ],
      "name": "TokenAvailableForAdvisor",
      "outputs": [
        {
          "name": "",
          "type": "bool"
        }
      ],
      "payable": false,
      "stateMutability": "nonpayable",
      "type": "function"
    },
    {
      "constant": true,
      "inputs": [],
      "name": "currentAllocatedAdvisorToken",
      "outputs": [
        {
          "name": "",
          "type": "uint256"
        }
      ],
      "payable": false,
      "stateMutability": "view",
      "type": "function"
    },
    {
      "constant": true,
      "inputs": [
        {
          "name": "NewAdvisorAddr",
          "type": "address"
        }
      ],
      "name": "CheckTeamTokenAmount",
      "outputs": [
        {
          "name": "",
          "type": "uint256"
        }
      ],
      "payable": false,
      "stateMutability": "view",
      "type": "function"
    },
    {
      "constant": true,
      "inputs": [],
      "name": "RewardsBountyToken",
      "outputs": [
        {
          "name": "",
          "type": "uint256"
        }
      ],
      "payable": false,
      "stateMutability": "view",
      "type": "function"
    },
    {
      "constant": true,
      "inputs": [],
      "name": "InitialAllocatedTeamToken",
      "outputs": [
        {
          "name": "",
          "type": "uint256"
        }
      ],
      "payable": false,
      "stateMutability": "view",
      "type": "function"
    },
    {
      "constant": false,
      "inputs": [
        {
          "name": "NewTeamAddr",
          "type": "address"
        },
        {
          "name": "Tokenamount",
          "type": "uint256"
        },
        {
          "name": "TokenLockStartDateTime",
          "type": "uint256"
        },
        {
          "name": "TokenLockEndDateTime",
          "type": "uint256"
        },
        {
          "name": "partofTeam",
          "type": "bool"
        }
      ],
      "name": "AddTeamInvestor",
      "outputs": [],
      "payable": false,
      "stateMutability": "nonpayable",
      "type": "function"
    },
    {
      "constant": false,
      "inputs": [
        {
          "name": "NewAdvisor",
          "type": "address"
        },
        {
          "name": "Tokenamount",
          "type": "uint256"
        },
        {
          "name": "lockStartTime",
          "type": "uint256"
        },
        {
          "name": "LockExpiryTime",
          "type": "uint256"
        },
        {
          "name": "PartofTeam",
          "type": "bool"
        }
      ],
      "name": "AddAdvisor",
      "outputs": [],
      "payable": false,
      "stateMutability": "nonpayable",
      "type": "function"
    },
    {
      "constant": true,
      "inputs": [],
      "name": "TotalTeamnvestor",
      "outputs": [
        {
          "name": "",
          "type": "uint256"
        }
      ],
      "payable": false,
      "stateMutability": "view",
      "type": "function"
    },
    {
      "constant": true,
      "inputs": [],
      "name": "InitialAllocatedAdvisorToken",
      "outputs": [
        {
          "name": "",
          "type": "uint256"
        }
      ],
      "payable": false,
      "stateMutability": "view",
      "type": "function"
    },
    {
      "constant": true,
      "inputs": [],
      "name": "InitialCompanyHoldingValue",
      "outputs": [
        {
          "name": "",
          "type": "uint256"
        }
      ],
      "payable": false,
      "stateMutability": "view",
      "type": "function"
    },
    {
      "constant": false,
      "inputs": [
        {
          "name": "NewTeamAddr",
          "type": "address"
        }
      ],
      "name": "RemoveTeamFromFurtherInvestment",
      "outputs": [],
      "payable": false,
      "stateMutability": "nonpayable",
      "type": "function"
    },
    {
      "constant": true,
      "inputs": [
        {
          "name": "NewAdvisorAddr",
          "type": "address"
        }
      ],
      "name": "CheckIfAdvisorActive",
      "outputs": [
        {
          "name": "",
          "type": "bool"
        }
      ],
      "payable": false,
      "stateMutability": "view",
      "type": "function"
    },
    {
      "constant": true,
      "inputs": [],
      "name": "InitialRewardsBountyToken",
      "outputs": [
        {
          "name": "",
          "type": "uint256"
        }
      ],
      "payable": false,
      "stateMutability": "view",
      "type": "function"
    },
    {
      "constant": true,
      "inputs": [],
      "name": "FounderToken",
      "outputs": [
        {
          "name": "",
          "type": "uint256"
        }
      ],
      "payable": false,
      "stateMutability": "view",
      "type": "function"
    },
    {
      "constant": true,
      "inputs": [
        {
          "name": "NewAdvisorAddr",
          "type": "address"
        }
      ],
      "name": "CheckAdvisorTokenAmount",
      "outputs": [
        {
          "name": "",
          "type": "uint256"
        }
      ],
      "payable": false,
      "stateMutability": "view",
      "type": "function"
    },
    {
      "constant": false,
      "inputs": [
        {
          "name": "NewAdvisorAddr",
          "type": "address"
        }
      ],
      "name": "RemoveAdvisorFromFurtherInvestment",
      "outputs": [
        {
          "name": "",
          "type": "bool"
        }
      ],
      "payable": false,
      "stateMutability": "nonpayable",
      "type": "function"
    },
    {
      "constant": true,
      "inputs": [],
      "name": "InitialFounderToken",
      "outputs": [
        {
          "name": "",
          "type": "uint256"
        }
      ],
      "payable": false,
      "stateMutability": "view",
      "type": "function"
    },
    {
      "constant": true,
      "inputs": [],
      "name": "CompanyHoldingValue",
      "outputs": [
        {
          "name": "",
          "type": "uint256"
        }
      ],
      "payable": false,
      "stateMutability": "view",
      "type": "function"
    },
    {
      "constant": true,
      "inputs": [],
      "name": "CompanyHoldingAddress",
      "outputs": [
        {
          "name": "",
          "type": "address"
        }
      ],
      "payable": false,
      "stateMutability": "view",
      "type": "function"
    },
    {
      "constant": true,
      "inputs": [
        {
          "name": "",
          "type": "uint256"
        }
      ],
      "name": "AdvisorDistributionAddr",
      "outputs": [
        {
          "name": "",
          "type": "address"
        }
      ],
      "payable": false,
      "stateMutability": "view",
      "type": "function"
    },
    {
      "constant": true,
      "inputs": [],
      "name": "TotalAdvisor",
      "outputs": [
        {
          "name": "",
          "type": "uint256"
        }
      ],
      "payable": false,
      "stateMutability": "view",
      "type": "function"
    },
    {
      "constant": true,
      "inputs": [],
      "name": "TotalAllocatedTeamToken",
      "outputs": [
        {
          "name": "",
          "type": "uint256"
        }
      ],
      "payable": false,
      "stateMutability": "view",
      "type": "function"
    },
    {
      "constant": true,
      "inputs": [],
      "name": "RewardBountylockinPeriod",
      "outputs": [
        {
          "name": "",
          "type": "uint256"
        }
      ],
      "payable": false,
      "stateMutability": "view",
      "type": "function"
    },
    {
      "constant": true,
      "inputs": [],
      "name": "FounderAddress",
      "outputs": [
        {
          "name": "",
          "type": "address"
        }
      ],
      "payable": false,
      "stateMutability": "view",
      "type": "function"
    },
    {
      "constant": true,
      "inputs": [],
      "name": "TotalAllocatedAdvisorToken",
      "outputs": [
        {
          "name": "",
          "type": "uint256"
        }
      ],
      "payable": false,
      "stateMutability": "view",
      "type": "function"
    },
    {
      "constant": false,
      "inputs": [
        {
          "name": "Tokenamount",
          "type": "uint256"
        }
      ],
      "name": "IsTokenAvailable",
      "outputs": [
        {
          "name": "",
          "type": "bool"
        }
      ],
      "payable": false,
      "stateMutability": "nonpayable",
      "type": "function"
    },
    {
      "constant": true,
      "inputs": [],
      "name": "FounderlockinPeriod",
      "outputs": [
        {
          "name": "",
          "type": "uint256"
        }
      ],
      "payable": false,
      "stateMutability": "view",
      "type": "function"
    },
    {
      "constant": true,
      "inputs": [
        {
          "name": "TeamAddr",
          "type": "address"
        }
      ],
      "name": "CheckIfTeamActive",
      "outputs": [
        {
          "name": "",
          "type": "bool"
        }
      ],
      "payable": false,
      "stateMutability": "view",
      "type": "function"
    },
    {
      "constant": true,
      "inputs": [],
      "name": "CompanyHoldinglockingPeriod",
      "outputs": [
        {
          "name": "",
          "type": "uint256"
        }
      ],
      "payable": false,
      "stateMutability": "view",
      "type": "function"
    },
    {
      "inputs": [
        {
          "name": "_owner",
          "type": "address"
        }
      ],
      "payable": false,
      "stateMutability": "nonpayable",
      "type": "constructor"
    },
    {
      "constant": true,
      "inputs": [
        {
          "name": "currentdatetime",
          "type": "uint256"
        }
      ],
      "name": "ReleaseTokenToFounder",
      "outputs": [
        {
          "name": "",
          "type": "uint256"
        }
      ],
      "payable": false,
      "stateMutability": "view",
      "type": "function"
    },
    {
      "constant": true,
      "inputs": [
        {
          "name": "currentdatetime",
          "type": "uint256"
        }
      ],
      "name": "ReleaseCompanyHoldingTokens",
      "outputs": [
        {
          "name": "",
          "type": "uint256"
        }
      ],
      "payable": false,
      "stateMutability": "view",
      "type": "function"
    }
  ],
  "bytecode": "0x60806040526000600355600060085534801561001a57600080fd5b506040516020806117a0833981018060405281019080805190602001909291905050503333336000806101000a81548173ffffffffffffffffffffffffffffffffffffffff021916908373ffffffffffffffffffffffffffffffffffffffff16021790555080600160006101000a81548173ffffffffffffffffffffffffffffffffffffffff021916908373ffffffffffffffffffffffffffffffffffffffff1602179055505080600660006101000a81548173ffffffffffffffffffffffffffffffffffffffff021916908373ffffffffffffffffffffffffffffffffffffffff1602179055505080600b60006101000a81548173ffffffffffffffffffffffffffffffffffffffff021916908373ffffffffffffffffffffffffffffffffffffffff1602179055505061164c806101546000396000f300608060405260043610610196576000357c0100000000000000000000000000000000000000000000000000000000900463ffffffff168063065e70dc1461019b5780630a1f2a5f14610208578063108c77001461024d5780631e9e3f9714610278578063239bfb6e146102cf5780632fc272e1146102fa5780634898011a146103255780634ae34032146103925780634c3ed4e1146103ff5780634d0e87c61461042a57806354c15d5e14610455578063577ed9d21461048057806360f46086146104c3578063643092ae1461051e5780636d1a1513146105495780637b758ef7146105745780639f7e3a7f146105cb578063a180218f14610626578063a240c60c14610651578063a4876bc41461067c578063aaeb4cb6146106d3578063b03fd1ba14610740578063bc3058521461076b578063be9aa28714610796578063bed0b70c146107d7578063bf63c6e914610802578063cc15c0f014610859578063d19babf414610884578063d9d45682146108c9578063e5ab9f7c146108f4578063ea887bcb1461094f578063f11550161461097a575b600080fd5b3480156101a757600080fd5b506101c6600480360381019080803590602001909291905050506109bb565b604051808273ffffffffffffffffffffffffffffffffffffffff1673ffffffffffffffffffffffffffffffffffffffff16815260200191505060405180910390f35b34801561021457600080fd5b50610233600480360381019080803590602001909291905050506109f9565b604051808215151515815260200191505060405180910390f35b34801561025957600080fd5b50610262610a57565b6040518082815260200191505060405180910390f35b34801561028457600080fd5b506102b9600480360381019080803573ffffffffffffffffffffffffffffffffffffffff169060200190929190505050610a5d565b6040518082815260200191505060405180910390f35b3480156102db57600080fd5b506102e4610aae565b6040518082815260200191505060405180910390f35b34801561030657600080fd5b5061030f610ab4565b6040518082815260200191505060405180910390f35b34801561033157600080fd5b50610390600480360381019080803573ffffffffffffffffffffffffffffffffffffffff169060200190929190803590602001909291908035906020019092919080359060200190929190803515159060200190929190505050610abb565b005b34801561039e57600080fd5b506103fd600480360381019080803573ffffffffffffffffffffffffffffffffffffffff169060200190929190803590602001909291908035906020019092919080359060200190929190803515159060200190929190505050610d48565b005b34801561040b57600080fd5b50610414610fe2565b6040518082815260200191505060405180910390f35b34801561043657600080fd5b5061043f610fef565b6040518082815260200191505060405180910390f35b34801561046157600080fd5b5061046a610ff6565b6040518082815260200191505060405180910390f35b34801561048c57600080fd5b506104c1600480360381019080803573ffffffffffffffffffffffffffffffffffffffff169060200190929190505050610ffc565b005b3480156104cf57600080fd5b50610504600480360381019080803573ffffffffffffffffffffffffffffffffffffffff169060200190929190505050611060565b604051808215151515815260200191505060405180910390f35b34801561052a57600080fd5b506105336110d6565b6040518082815260200191505060405180910390f35b34801561055557600080fd5b5061055e6110dc565b6040518082815260200191505060405180910390f35b34801561058057600080fd5b506105b5600480360381019080803573ffffffffffffffffffffffffffffffffffffffff1690602001909291905050506110e2565b6040518082815260200191505060405180910390f35b3480156105d757600080fd5b5061060c600480360381019080803573ffffffffffffffffffffffffffffffffffffffff169060200190929190505050611157565b604051808215151515815260200191505060405180910390f35b34801561063257600080fd5b5061063b6112ad565b6040518082815260200191505060405180910390f35b34801561065d57600080fd5b506106666112b3565b6040518082815260200191505060405180910390f35b34801561068857600080fd5b506106916112b9565b604051808273ffffffffffffffffffffffffffffffffffffffff1673ffffffffffffffffffffffffffffffffffffffff16815260200191505060405180910390f35b3480156106df57600080fd5b506106fe600480360381019080803590602001909291905050506112d1565b604051808273ffffffffffffffffffffffffffffffffffffffff1673ffffffffffffffffffffffffffffffffffffffff16815260200191505060405180910390f35b34801561074c57600080fd5b5061075561130f565b6040518082815260200191505060405180910390f35b34801561077757600080fd5b5061078061131c565b6040518082815260200191505060405180910390f35b3480156107a257600080fd5b506107c160048036038101908080359060200190929190505050611322565b6040518082815260200191505060405180910390f35b3480156107e357600080fd5b506107ec611406565b6040518082815260200191505060405180910390f35b34801561080e57600080fd5b5061081761140d565b604051808273ffffffffffffffffffffffffffffffffffffffff1673ffffffffffffffffffffffffffffffffffffffff16815260200191505060405180910390f35b34801561086557600080fd5b5061086e611425565b6040518082815260200191505060405180910390f35b34801561089057600080fd5b506108af6004803603810190808035906020019092919050505061142b565b604051808215151515815260200191505060405180910390f35b3480156108d557600080fd5b506108de61146d565b6040518082815260200191505060405180910390f35b34801561090057600080fd5b50610935600480360381019080803573ffffffffffffffffffffffffffffffffffffffff169060200190929190505050611474565b604051808215151515815260200191505060405180910390f35b34801561095b57600080fd5b506109646114ea565b6040518082815260200191505060405180910390f35b34801561098657600080fd5b506109a5600480360381019080803590602001909291905050506114f1565b6040518082815260200191505060405180910390f35b6005818154811015156109ca57fe5b906000526020600020016000915054906101000a900473ffffffffffffffffffffffffffffffffffffffff1681565b600060075460085411151515610a0e57600080fd5b600754610a26836008546115ff90919063ffffffff16565b11151515610a3357600080fd5b610a48826008546115ff90919063ffffffff16565b60088190555060019050919050565b60085481565b600080600460008473ffffffffffffffffffffffffffffffffffffffff1673ffffffffffffffffffffffffffffffffffffffff16815260200190815260200160002090508060010154915050919050565b600d5481565b620186a081565b6000600160009054906101000a900473ffffffffffffffffffffffffffffffffffffffff168073ffffffffffffffffffffffffffffffffffffffff163373ffffffffffffffffffffffffffffffffffffffff16141515610b83576040517f08c379a00000000000000000000000000000000000000000000000000000000081526004018080602001828103825260148152602001807f4f776e6572204e6f7420417574686f72697a656400000000000000000000000081525060200191505060405180910390fd5b60011515610b908761142b565b1515141515610b9e57600080fd5b600460008873ffffffffffffffffffffffffffffffffffffffff1673ffffffffffffffffffffffffffffffffffffffff1681526020019081526020016000209150600015158260040160019054906101000a900460ff1615151415610cff57868260000160006101000a81548173ffffffffffffffffffffffffffffffffffffffff021916908373ffffffffffffffffffffffffffffffffffffffff160217905550858260010181905550848260020181905550838260030181905550828260040160006101000a81548160ff02191690831515021790555060018260040160016101000a81548160ff02191690831515021790555060058790806001815401808255809150509060018203906000526020600020016000909192909190916101000a81548173ffffffffffffffffffffffffffffffffffffffff021916908373ffffffffffffffffffffffffffffffffffffffff16021790555050610d3f565b60011515610d0c88611474565b1515141515610d1a57600080fd5b8582600101600082825401925050819055508482600201819055508382600301819055505b50505050505050565b6000600660009054906101000a900473ffffffffffffffffffffffffffffffffffffffff168073ffffffffffffffffffffffffffffffffffffffff163373ffffffffffffffffffffffffffffffffffffffff16141515610e10576040517f08c379a00000000000000000000000000000000000000000000000000000000081526004018080602001828103825260148152602001807f4f776e6572204e6f7420417574686f72697a656400000000000000000000000081525060200191505060405180910390fd5b60011515610e1d876109f9565b1515141515610e2b57600080fd5b600960008873ffffffffffffffffffffffffffffffffffffffff1673ffffffffffffffffffffffffffffffffffffffff1681526020019081526020016000209150600015158260040160009054906101000a900460ff1615151415610f8c57868260000160006101000a81548173ffffffffffffffffffffffffffffffffffffffff021916908373ffffffffffffffffffffffffffffffffffffffff160217905550858260010181905550848260020181905550838260030181905550828260040160016101000a81548160ff02191690831515021790555060018260040160006101000a81548160ff021916908315150217905550600a8790806001815401808255809150509060018203906000526020600020016000909192909190916101000a81548173ffffffffffffffffffffffffffffffffffffffff021916908373ffffffffffffffffffffffffffffffffffffffff16021790555050610fd9565b60011515610f9988611060565b1515141515610fa757600080fd5b610fbe8683600101546115ff90919063ffffffff16565b82600101819055508482600201819055508382600301819055505b50505050505050565b6000600580549050905090565b620186a081565b6103e881565b6000600460008373ffffffffffffffffffffffffffffffffffffffff1673ffffffffffffffffffffffffffffffffffffffff168152602001908152602001600020905060008160040160006101000a81548160ff0219169083151502179055505050565b600080600960008473ffffffffffffffffffffffffffffffffffffffff1673ffffffffffffffffffffffffffffffffffffffff1681526020019081526020016000209050600115158160040160019054906101000a900460ff16151514156110cb57600191506110d0565b600091505b50919050565b6103e881565b600c5481565b600080600960008473ffffffffffffffffffffffffffffffffffffffff1673ffffffffffffffffffffffffffffffffffffffff1681526020019081526020016000209050600115158160040160009054906101000a900460ff16151514151561114a57600080fd5b8060010154915050919050565b600080600660009054906101000a900473ffffffffffffffffffffffffffffffffffffffff168073ffffffffffffffffffffffffffffffffffffffff163373ffffffffffffffffffffffffffffffffffffffff16141515611220576040517f08c379a00000000000000000000000000000000000000000000000000000000081526004018080602001828103825260148152602001807f4f776e6572204e6f7420417574686f72697a656400000000000000000000000081525060200191505060405180910390fd5b600960008573ffffffffffffffffffffffffffffffffffffffff1673ffffffffffffffffffffffffffffffffffffffff1681526020019081526020016000209150600115158260040160009054906101000a900460ff16151514151561128557600080fd5b60008260040160016101000a81548160ff021916908315150217905550600192505050919050565b6103e881565b600e5481565b73cf530e5b154eb28a379cf5774d5d15b04cf1042281565b600a818154811015156112e057fe5b906000526020600020016000915054906101000a900473ffffffffffffffffffffffffffffffffffffffff1681565b6000600a80549050905090565b60025481565b6000600b60009054906101000a900473ffffffffffffffffffffffffffffffffffffffff168073ffffffffffffffffffffffffffffffffffffffff163373ffffffffffffffffffffffffffffffffffffffff161415156113ea576040517f08c379a00000000000000000000000000000000000000000000000000000000081526004018080602001828103825260148152602001807f4f776e6572204e6f7420417574686f72697a656400000000000000000000000081525060200191505060405180910390fd5b6201e240831115156113fb57600080fd5b600e54915050919050565b6203944781565b73cf530e5b154eb28a379cf5774d5d15b04cf1042281565b60075481565b60006002546003541115151561144057600080fd5b600254826003540110151561145457600080fd5b8160036000828254019250508190555060019050919050565b6201e24081565b600080600460008473ffffffffffffffffffffffffffffffffffffffff1673ffffffffffffffffffffffffffffffffffffffff1681526020019081526020016000209050600115158160040160009054906101000a900460ff16151514156114df57600191506114e4565b600091505b50919050565b6201e24081565b6000600b60009054906101000a900473ffffffffffffffffffffffffffffffffffffffff168073ffffffffffffffffffffffffffffffffffffffff163373ffffffffffffffffffffffffffffffffffffffff161415156115b9576040517f08c379a00000000000000000000000000000000000000000000000000000000081526004018080602001828103825260148152602001807f4f776e6572204e6f7420417574686f72697a656400000000000000000000000081525060200191505060405180910390fd5b6201e240831115156115ca57600080fd5b620394478311156115f3576115ec600d54600c546115ff90919063ffffffff16565b91506115f9565b600c5491505b50919050565b600080828401905083811015151561161657600080fd5b80915050929150505600a165627a7a723058207c104c454d715c228fbc65e54998e8c063b2a6c5a3ef7d793e000cc3793240ea0029",
  "source": "\npragma solidity ^0.4.24;\n\nimport \"./BrightCoinTeamTokenDistribution.sol\";\nimport \"./BrightCoinAdvisorTokenDistribution.sol\";\nimport \"./SafeMath.sol\";\n\ncontract BrightCoinTokenDistributionDetails is BrightCoinTeamTokenDistribution(msg.sender) ,BrightCoinAdvisorTokenDistribution(msg.sender)\n{\n\nusing SafeMath for uint;\naddress owner;\nconstructor(address _owner) public\n{\n  owner = _owner;\n}\n\n    \n   //Token distribution details\n  /////////////////////////////////////////\n  //Token Distribution Details --- Founder \n //The distribution amount, Timelock  is fixed \n //mapping(address => uint256) FounderDistribution;\n address public constant FounderAddress = 0xcf530e5b154EB28A379cF5774d5d15B04cF10422;//To be updated via Script\n uint256 public constant InitialFounderToken = 1000; //To be updated via Script\n uint256 public FounderToken;\n uint256 public constant FounderlockinPeriod  = 123456; //Token LockTIme\n \n  \n //Rewards Token : The Amount of token to be used for Bounty and Rewards\n  uint256 public constant InitialRewardsBountyToken = 1000; //To be updated via Script\n  uint256 public constant RewardBountylockinPeriod  = 234567;  \n  uint256 public RewardsBountyToken;\n\n\n //Company Holdings\n address public constant CompanyHoldingAddress = 0xcf530e5b154EB28A379cF5774d5d15B04cF10422;//To be updated via Script\n uint256 public constant InitialCompanyHoldingValue = 1000;// Value to be updated via Script\n uint256 public CompanyHoldingValue;\n uint256 public constant CompanyHoldinglockingPeriod = 123456; //Token LockTIme\n \n\nfunction ReleaseTokenToFounder(uint256 currentdatetime) onlyTokenOwner(owner) view public returns(uint256)\n{\n  require(currentdatetime >FounderlockinPeriod);\n \n\n  //check if eligible for Rewards or Bounty \n  if(currentdatetime > RewardBountylockinPeriod)\n    {\n        //Calculate tokenv with bounty\n        return FounderToken.add(RewardsBountyToken);\n    }\n    return FounderToken;\n\n}\n\nfunction ReleaseCompanyHoldingTokens(uint256 currentdatetime) onlyTokenOwner(owner) view public returns(uint256)\n{\n  require(currentdatetime > CompanyHoldinglockingPeriod);\n \n  return CompanyHoldingValue;\n    \n}\n\n\n \n}",
  "sourcePath": "/Users/sandeepkumar/BrightCoinContract/contracts/BrightCoinTokenDistributionDetails.sol",
  "compiler": {
    "name": "solc",
    "version": "0.4.24+commit.e67f0147.Emscripten.clang"
  },
  "schemaVersion": "2.0.1",
  "updatedAt": "2018-09-06T06:25:58.207Z"
}