{
  "contractName": "BrightCoinRegSInvestor",
  "abi": [
    {
      "constant": true,
      "inputs": [
        {
          "name": "",
          "type": "uint256"
        }
      ],
      "name": "regSInvestors",
      "outputs": [
        {
          "name": "",
          "type": "address"
        }
      ],
      "payable": false,
      "stateMutability": "view",
      "type": "function"
    },
    {
      "inputs": [
        {
          "name": "_owner",
          "type": "address"
        }
      ],
      "payable": false,
      "stateMutability": "nonpayable",
      "type": "constructor"
    },
    {
      "constant": false,
      "inputs": [
        {
          "name": "Investoraddr",
          "type": "address"
        },
        {
          "name": "InvestorGeoLocation",
          "type": "uint256"
        },
        {
          "name": "ipfsHashRegSInvestor",
          "type": "string"
        }
      ],
      "name": "AddRegSInvestorDetails",
      "outputs": [],
      "payable": false,
      "stateMutability": "nonpayable",
      "type": "function"
    },
    {
      "constant": true,
      "inputs": [
        {
          "name": "Investoraddr",
          "type": "address"
        }
      ],
      "name": "GetGeoLocationOfInvestor",
      "outputs": [
        {
          "name": "",
          "type": "uint256"
        }
      ],
      "payable": false,
      "stateMutability": "view",
      "type": "function"
    }
  ],
  "bytecode": "0x608060405234801561001057600080fd5b506040516020806105ec83398101806040528101908080519060200190929190505050336000806101000a81548173ffffffffffffffffffffffffffffffffffffffff021916908373ffffffffffffffffffffffffffffffffffffffff16021790555080600160006101000a81548173ffffffffffffffffffffffffffffffffffffffff021916908373ffffffffffffffffffffffffffffffffffffffff16021790555050610528806100c46000396000f300608060405260043610610057576000357c0100000000000000000000000000000000000000000000000000000000900463ffffffff1680632c89a88c1461005c578063b8e00773146100c9578063cb3ec40814610120575b600080fd5b34801561006857600080fd5b50610087600480360381019080803590602001909291905050506101b3565b604051808273ffffffffffffffffffffffffffffffffffffffff1673ffffffffffffffffffffffffffffffffffffffff16815260200191505060405180910390f35b3480156100d557600080fd5b5061010a600480360381019080803573ffffffffffffffffffffffffffffffffffffffff1690602001909291905050506101f1565b6040518082815260200191505060405180910390f35b34801561012c57600080fd5b506101b1600480360381019080803573ffffffffffffffffffffffffffffffffffffffff16906020019092919080359060200190929190803590602001908201803590602001908080601f0160208091040260200160405190810160405280939291908181526020018383808284378201915050505050509192919290505050610242565b005b6003818154811015156101c257fe5b906000526020600020016000915054906101000a900473ffffffffffffffffffffffffffffffffffffffff1681565b600080600260008473ffffffffffffffffffffffffffffffffffffffff1673ffffffffffffffffffffffffffffffffffffffff16815260200190815260200160002090508060030154915050919050565b6000600160009054906101000a900473ffffffffffffffffffffffffffffffffffffffff168073ffffffffffffffffffffffffffffffffffffffff163373ffffffffffffffffffffffffffffffffffffffff1614151561030a576040517f08c379a00000000000000000000000000000000000000000000000000000000081526004018080602001828103825260148152602001807f4f776e6572204e6f7420417574686f72697a656400000000000000000000000081525060200191505060405180910390fd5b60008573ffffffffffffffffffffffffffffffffffffffff161415151561033057600080fd5b600260008673ffffffffffffffffffffffffffffffffffffffff1673ffffffffffffffffffffffffffffffffffffffff1681526020019081526020016000209150848260000160006101000a81548173ffffffffffffffffffffffffffffffffffffffff021916908373ffffffffffffffffffffffffffffffffffffffff160217905550838260030181905550828260040190805190602001906103d5929190610457565b50600082600101819055506000826002018190555060038590806001815401808255809150509060018203906000526020600020016000909192909190916101000a81548173ffffffffffffffffffffffffffffffffffffffff021916908373ffffffffffffffffffffffffffffffffffffffff160217905550505050505050565b828054600181600116156101000203166002900490600052602060002090601f016020900481019282601f1061049857805160ff19168380011785556104c6565b828001600101855582156104c6579182015b828111156104c55782518255916020019190600101906104aa565b5b5090506104d391906104d7565b5090565b6104f991905b808211156104f55760008160009055506001016104dd565b5090565b905600a165627a7a723058201b68e4be97d9377eacc2f3f9623359e406b7095453db05228c3c552dbccc60150029",
  "source": "/*\nReg S -\n This is for USA companies raising money outside USA. \n This can have a 6 Month or a 1 year lockin. \n (KYC/AML has to be done). The other rule is that these tokens cannot be sold to a USA person for a 1 year period. \n */\n\npragma solidity ^0.4.24;\nimport \"./BrightCoinTokenOwner.sol\";\nimport \"./SafeMath.sol\";\n\ncontract BrightCoinRegSInvestor is BrightCoinTokenOwner\n{\n\n\naddress owner;\nusing SafeMath for uint;\nconstructor(address _owner) public\n{\n  owner = _owner;\n}\n  /////////////////////////////////////////////\n\n    struct RegSInvestor {\n        address Investor;\n        uint256 lockInEndDate;\n        uint256 InvestedAmount;\n        uint256 InvestorGeoLocation;\n        string ipfsHashRegSInvestor; //It must contains the details of Investor\n      \n    }\n\n    mapping(address => RegSInvestor) RegSInvestorsDetails;\n    address[] public regSInvestors;\n\n    /*Function to Add Investor details*/\n     function  AddRegSInvestorDetails(address Investoraddr,uint256 InvestorGeoLocation, string ipfsHashRegSInvestor )\n                                          onlyTokenOwner(owner) public {\n      \n      require(Investoraddr != 0x0);\n\n       RegSInvestor storage Investment = RegSInvestorsDetails[Investoraddr];\n\n       Investment.Investor = Investoraddr;\n       Investment.InvestorGeoLocation = InvestorGeoLocation;\n       Investment.ipfsHashRegSInvestor = ipfsHashRegSInvestor;\n       Investment.lockInEndDate = 0;\n       Investment.InvestedAmount = 0;\n       regSInvestors.push(Investoraddr);\n}\n\n    \n function GetGeoLocationOfInvestor(address Investoraddr) view public returns(uint256)\n {\n    RegSInvestor storage structRegS =  RegSInvestorsDetails[Investoraddr];\n    return structRegS.InvestorGeoLocation;\n }\n\nfunction SetLockingPeriodRegS(address RegSInvestoraddr, uint256 lockExpiryDateTime, uint256 tokenamount) onlyTokenOwner(owner) internal {\n\n  require(lockExpiryDateTime > 0);\n  require(RegSInvestoraddr != 0x0);\n\n  \n  RegSInvestor storage structRegS =  RegSInvestorsDetails[RegSInvestoraddr];\n  structRegS.lockInEndDate =  lockExpiryDateTime;\n  structRegS.InvestedAmount  =  structRegS.InvestedAmount.add(tokenamount);\n  \n}\n\n\nfunction GetTokenLockExpiryDateTimeRegS(address RegSInvestoraddr)  view internal returns(uint256) {\n\n require(RegSInvestoraddr != 0x0);\n\n RegSInvestor storage structRegS =  RegSInvestorsDetails[RegSInvestoraddr];\n return structRegS.lockInEndDate;\n\n }\n\n\n}",
  "sourcePath": "/Users/sandeepkumar/BrightCoinContract/contracts/BrightCoinRegSInvestor.sol",
  "compiler": {
    "name": "solc",
    "version": "0.4.24+commit.e67f0147.Emscripten.clang"
  },
  "schemaVersion": "2.0.1",
  "updatedAt": "2018-09-06T06:25:58.184Z"
}