{
  "contractName": "BrightCoinAdvisorTokenDistribution",
  "abi": [
    {
      "constant": true,
      "inputs": [],
      "name": "currentAllocatedAdvisorToken",
      "outputs": [
        {
          "name": "",
          "type": "uint256"
        }
      ],
      "payable": false,
      "stateMutability": "view",
      "type": "function"
    },
    {
      "constant": true,
      "inputs": [],
      "name": "InitialAllocatedAdvisorToken",
      "outputs": [
        {
          "name": "",
          "type": "uint256"
        }
      ],
      "payable": false,
      "stateMutability": "view",
      "type": "function"
    },
    {
      "constant": true,
      "inputs": [
        {
          "name": "",
          "type": "uint256"
        }
      ],
      "name": "AdvisorDistributionAddr",
      "outputs": [
        {
          "name": "",
          "type": "address"
        }
      ],
      "payable": false,
      "stateMutability": "view",
      "type": "function"
    },
    {
      "constant": true,
      "inputs": [],
      "name": "TotalAllocatedAdvisorToken",
      "outputs": [
        {
          "name": "",
          "type": "uint256"
        }
      ],
      "payable": false,
      "stateMutability": "view",
      "type": "function"
    },
    {
      "inputs": [
        {
          "name": "_owner",
          "type": "address"
        }
      ],
      "payable": false,
      "stateMutability": "nonpayable",
      "type": "constructor"
    },
    {
      "constant": false,
      "inputs": [
        {
          "name": "NewAdvisor",
          "type": "address"
        },
        {
          "name": "Tokenamount",
          "type": "uint256"
        },
        {
          "name": "lockStartTime",
          "type": "uint256"
        },
        {
          "name": "LockExpiryTime",
          "type": "uint256"
        },
        {
          "name": "PartofTeam",
          "type": "bool"
        }
      ],
      "name": "AddAdvisor",
      "outputs": [],
      "payable": false,
      "stateMutability": "nonpayable",
      "type": "function"
    },
    {
      "constant": false,
      "inputs": [
        {
          "name": "NewAdvisorAddr",
          "type": "address"
        }
      ],
      "name": "RemoveAdvisorFromFurtherInvestment",
      "outputs": [
        {
          "name": "",
          "type": "bool"
        }
      ],
      "payable": false,
      "stateMutability": "nonpayable",
      "type": "function"
    },
    {
      "constant": false,
      "inputs": [
        {
          "name": "Tokenamount",
          "type": "uint256"
        }
      ],
      "name": "TokenAvailableForAdvisor",
      "outputs": [
        {
          "name": "",
          "type": "bool"
        }
      ],
      "payable": false,
      "stateMutability": "nonpayable",
      "type": "function"
    },
    {
      "constant": true,
      "inputs": [],
      "name": "TotalAdvisor",
      "outputs": [
        {
          "name": "",
          "type": "uint256"
        }
      ],
      "payable": false,
      "stateMutability": "view",
      "type": "function"
    },
    {
      "constant": true,
      "inputs": [
        {
          "name": "NewAdvisorAddr",
          "type": "address"
        }
      ],
      "name": "CheckIfAdvisorActive",
      "outputs": [
        {
          "name": "",
          "type": "bool"
        }
      ],
      "payable": false,
      "stateMutability": "view",
      "type": "function"
    },
    {
      "constant": true,
      "inputs": [
        {
          "name": "NewAdvisorAddr",
          "type": "address"
        }
      ],
      "name": "CheckAdvisorTokenAmount",
      "outputs": [
        {
          "name": "",
          "type": "uint256"
        }
      ],
      "payable": false,
      "stateMutability": "view",
      "type": "function"
    }
  ],
  "bytecode": "0x6080604052600060035534801561001557600080fd5b50604051602080610a2e83398101806040528101908080519060200190929190505050336000806101000a81548173ffffffffffffffffffffffffffffffffffffffff021916908373ffffffffffffffffffffffffffffffffffffffff16021790555080600160006101000a81548173ffffffffffffffffffffffffffffffffffffffff021916908373ffffffffffffffffffffffffffffffffffffffff16021790555050610965806100c96000396000f3006080604052600436106100a4576000357c0100000000000000000000000000000000000000000000000000000000900463ffffffff1680630a1f2a5f146100a9578063108c7700146100ee5780634ae34032146101195780634d0e87c61461018657806360f46086146101b15780637b758ef71461020c5780639f7e3a7f14610263578063aaeb4cb6146102be578063b03fd1ba1461032b578063cc15c0f014610356575b600080fd5b3480156100b557600080fd5b506100d460048036038101908080359060200190929190505050610381565b604051808215151515815260200191505060405180910390f35b3480156100fa57600080fd5b506101036103df565b6040518082815260200191505060405180910390f35b34801561012557600080fd5b50610184600480360381019080803573ffffffffffffffffffffffffffffffffffffffff1690602001909291908035906020019092919080359060200190929190803590602001909291908035151590602001909291905050506103e5565b005b34801561019257600080fd5b5061019b61067f565b6040518082815260200191505060405180910390f35b3480156101bd57600080fd5b506101f2600480360381019080803573ffffffffffffffffffffffffffffffffffffffff169060200190929190505050610686565b604051808215151515815260200191505060405180910390f35b34801561021857600080fd5b5061024d600480360381019080803573ffffffffffffffffffffffffffffffffffffffff1690602001909291905050506106fc565b6040518082815260200191505060405180910390f35b34801561026f57600080fd5b506102a4600480360381019080803573ffffffffffffffffffffffffffffffffffffffff169060200190929190505050610771565b604051808215151515815260200191505060405180910390f35b3480156102ca57600080fd5b506102e9600480360381019080803590602001909291905050506108c7565b604051808273ffffffffffffffffffffffffffffffffffffffff1673ffffffffffffffffffffffffffffffffffffffff16815260200191505060405180910390f35b34801561033757600080fd5b50610340610905565b6040518082815260200191505060405180910390f35b34801561036257600080fd5b5061036b610912565b6040518082815260200191505060405180910390f35b60006002546003541115151561039657600080fd5b6002546103ae8360035461091890919063ffffffff16565b111515156103bb57600080fd5b6103d08260035461091890919063ffffffff16565b60038190555060019050919050565b60035481565b6000600160009054906101000a900473ffffffffffffffffffffffffffffffffffffffff168073ffffffffffffffffffffffffffffffffffffffff163373ffffffffffffffffffffffffffffffffffffffff161415156104ad576040517f08c379a00000000000000000000000000000000000000000000000000000000081526004018080602001828103825260148152602001807f4f776e6572204e6f7420417574686f72697a656400000000000000000000000081525060200191505060405180910390fd5b600115156104ba87610381565b15151415156104c857600080fd5b600460008873ffffffffffffffffffffffffffffffffffffffff1673ffffffffffffffffffffffffffffffffffffffff1681526020019081526020016000209150600015158260040160009054906101000a900460ff161515141561062957868260000160006101000a81548173ffffffffffffffffffffffffffffffffffffffff021916908373ffffffffffffffffffffffffffffffffffffffff160217905550858260010181905550848260020181905550838260030181905550828260040160016101000a81548160ff02191690831515021790555060018260040160006101000a81548160ff02191690831515021790555060058790806001815401808255809150509060018203906000526020600020016000909192909190916101000a81548173ffffffffffffffffffffffffffffffffffffffff021916908373ffffffffffffffffffffffffffffffffffffffff16021790555050610676565b6001151561063688610686565b151514151561064457600080fd5b61065b86836001015461091890919063ffffffff16565b82600101819055508482600201819055508382600301819055505b50505050505050565b620186a081565b600080600460008473ffffffffffffffffffffffffffffffffffffffff1673ffffffffffffffffffffffffffffffffffffffff1681526020019081526020016000209050600115158160040160019054906101000a900460ff16151514156106f157600191506106f6565b600091505b50919050565b600080600460008473ffffffffffffffffffffffffffffffffffffffff1673ffffffffffffffffffffffffffffffffffffffff1681526020019081526020016000209050600115158160040160009054906101000a900460ff16151514151561076457600080fd5b8060010154915050919050565b600080600160009054906101000a900473ffffffffffffffffffffffffffffffffffffffff168073ffffffffffffffffffffffffffffffffffffffff163373ffffffffffffffffffffffffffffffffffffffff1614151561083a576040517f08c379a00000000000000000000000000000000000000000000000000000000081526004018080602001828103825260148152602001807f4f776e6572204e6f7420417574686f72697a656400000000000000000000000081525060200191505060405180910390fd5b600460008573ffffffffffffffffffffffffffffffffffffffff1673ffffffffffffffffffffffffffffffffffffffff1681526020019081526020016000209150600115158260040160009054906101000a900460ff16151514151561089f57600080fd5b60008260040160016101000a81548160ff021916908315150217905550600192505050919050565b6005818154811015156108d657fe5b906000526020600020016000915054906101000a900473ffffffffffffffffffffffffffffffffffffffff1681565b6000600580549050905090565b60025481565b600080828401905083811015151561092f57600080fd5b80915050929150505600a165627a7a72305820d45808255cc14041d3b8e18c790d869728b77861395d8dc8f6abcd17c9c3820e0029",
  "source": "pragma solidity ^0.4.24;\n\nimport \"./BrightCoinTokenOwner.sol\";\nimport \"./SafeMath.sol\";\n\ncontract BrightCoinAdvisorTokenDistribution  is BrightCoinTokenOwner\n{\n\naddress owner;\nusing SafeMath for uint;\n\nconstructor(address _owner) public\n{\n  owner = _owner;\n}\n  //There might be multiple entry to this\n uint256 public constant InitialAllocatedAdvisorToken = 100000;\n uint256 public TotalAllocatedAdvisorToken;\n uint256 public currentAllocatedAdvisorToken = 0; //To be taken as it is \n \n struct AdvisorDistribution {\n        address AdvisorDistributionAddress;\n        uint256 AdvisorDistributionAmount;\n        uint256 AdvisorDistributionAmountLockTime;\n        uint256 AdvisorDistributionAmountLockExpiryTime;\n        bool  AdvisorDistrubutionIndex;\n        bool   AdvisorpartofTeam;\n    }\n mapping(address => AdvisorDistribution) AdvisorDistributionDetails;\n address[] public AdvisorDistributionAddr;\n \n //Adding New Advisor for Token Distribution\n function AddAdvisor(address NewAdvisor,uint256 Tokenamount,uint256 lockStartTime,\n                    uint256 LockExpiryTime, bool PartofTeam) onlyTokenOwner(owner)  public\n  {\n        require(TokenAvailableForAdvisor(Tokenamount) == true);\n\n        AdvisorDistribution storage  AdvisorDetails = AdvisorDistributionDetails[NewAdvisor];\n\n        if(AdvisorDetails.AdvisorDistrubutionIndex == false)\n        {\n          AdvisorDetails.AdvisorDistributionAddress = NewAdvisor;\n          AdvisorDetails.AdvisorDistributionAmount = Tokenamount;\n          AdvisorDetails.AdvisorDistributionAmountLockTime = lockStartTime;\n          AdvisorDetails.AdvisorDistributionAmountLockExpiryTime = LockExpiryTime;\n          AdvisorDetails.AdvisorpartofTeam = PartofTeam;\n          AdvisorDetails.AdvisorDistrubutionIndex = true;\n          AdvisorDistributionAddr.push(NewAdvisor);\n        }\n        else\n        {\n           require(CheckIfAdvisorActive(NewAdvisor) == true);\n                    \n            //Add new Token amount and Set new locking Period\n            AdvisorDetails.AdvisorDistributionAmount  = AdvisorDetails.AdvisorDistributionAmount.add(Tokenamount);\n            AdvisorDetails.AdvisorDistributionAmountLockTime = lockStartTime;\n            AdvisorDetails.AdvisorDistributionAmountLockExpiryTime = LockExpiryTime;\n        }\n\n \n }\n\n \n\n//Remove Advisor For Further Investment and from the Team\n function RemoveAdvisorFromFurtherInvestment(address NewAdvisorAddr) onlyTokenOwner(owner)  public returns(bool)\n {\n    AdvisorDistribution storage newAdvisorDetails = AdvisorDistributionDetails[NewAdvisorAddr];\n    require(newAdvisorDetails.AdvisorDistrubutionIndex == true);\n    newAdvisorDetails.AdvisorpartofTeam = false;\n    return true;\n\n\n\n }\n \n //Check if token is available for further Distribution to Advisor\n function TokenAvailableForAdvisor(uint256 Tokenamount) public returns(bool)\n {\n     require(currentAllocatedAdvisorToken <=TotalAllocatedAdvisorToken);\n     require(currentAllocatedAdvisorToken.add(Tokenamount) <= TotalAllocatedAdvisorToken);\n     currentAllocatedAdvisorToken  =  currentAllocatedAdvisorToken.add(Tokenamount);\n     return true;\n }\n\n//Count total no of Advisors\n function TotalAdvisor() public view returns(uint256) \n {\n   return AdvisorDistributionAddr.length;\n }\n\n //check if Advisor Removed \n function CheckIfAdvisorActive(address NewAdvisorAddr) view public returns(bool)\n {\n\n  AdvisorDistribution storage AdvisorDetails = AdvisorDistributionDetails[NewAdvisorAddr];\n  if(AdvisorDetails.AdvisorpartofTeam == true)\n  {\n      return true;\n  }\n  return false;\n\n }\n\n //check Amount with Advisor\n function CheckAdvisorTokenAmount(address NewAdvisorAddr) view public returns(uint256)\n {\n\n  AdvisorDistribution storage AdvisorDetails = AdvisorDistributionDetails[NewAdvisorAddr];\n  require(AdvisorDetails.AdvisorDistrubutionIndex == true);\n        return AdvisorDetails.AdvisorDistributionAmount;\n\n }\n\n\n }\n",
  "sourcePath": "/Users/sandeepkumar/BrightCoinContract/contracts/BrightCoinAdvisorTokenDistribution.sol",
  "compiler": {
    "name": "solc",
    "version": "0.4.24+commit.e67f0147.Emscripten.clang"
  },
  "schemaVersion": "2.0.1",
  "updatedAt": "2018-09-06T06:25:58.179Z"
}