{
  "contractName": "BrightCoinRegulatedToken",
  "abi": [
    {
      "constant": false,
      "inputs": [
        {
          "name": "startDateTimeStamp",
          "type": "uint256"
        }
      ],
      "name": "changeStartDate",
      "outputs": [
        {
          "name": "",
          "type": "bool"
        }
      ],
      "payable": false,
      "stateMutability": "nonpayable",
      "type": "function"
    },
    {
      "constant": true,
      "inputs": [],
      "name": "GetHardCap",
      "outputs": [
        {
          "name": "",
          "type": "uint256"
        }
      ],
      "payable": false,
      "stateMutability": "view",
      "type": "function"
    },
    {
      "constant": true,
      "inputs": [
        {
          "name": "",
          "type": "uint256"
        }
      ],
      "name": "TeamTokenDetailsAddr",
      "outputs": [
        {
          "name": "",
          "type": "address"
        }
      ],
      "payable": false,
      "stateMutability": "view",
      "type": "function"
    },
    {
      "constant": false,
      "inputs": [
        {
          "name": "_spender",
          "type": "address"
        },
        {
          "name": "_value",
          "type": "uint256"
        }
      ],
      "name": "approve",
      "outputs": [
        {
          "name": "success",
          "type": "bool"
        }
      ],
      "payable": false,
      "stateMutability": "nonpayable",
      "type": "function"
    },
    {
      "constant": false,
      "inputs": [
        {
          "name": "Tokenamount",
          "type": "uint256"
        }
      ],
      "name": "TokenAvailableForAdvisor",
      "outputs": [
        {
          "name": "",
          "type": "bool"
        }
      ],
      "payable": false,
      "stateMutability": "nonpayable",
      "type": "function"
    },
    {
      "constant": true,
      "inputs": [],
      "name": "currentAllocatedAdvisorToken",
      "outputs": [
        {
          "name": "",
          "type": "uint256"
        }
      ],
      "payable": false,
      "stateMutability": "view",
      "type": "function"
    },
    {
      "constant": true,
      "inputs": [],
      "name": "Tokensymbol",
      "outputs": [
        {
          "name": "",
          "type": "string"
        }
      ],
      "payable": false,
      "stateMutability": "view",
      "type": "function"
    },
    {
      "constant": true,
      "inputs": [
        {
          "name": "PeriodIndex",
          "type": "uint8"
        }
      ],
      "name": "GetBonusDetails",
      "outputs": [
        {
          "name": "",
          "type": "uint256"
        }
      ],
      "payable": false,
      "stateMutability": "view",
      "type": "function"
    },
    {
      "constant": true,
      "inputs": [],
      "name": "totalSupply",
      "outputs": [
        {
          "name": "",
          "type": "uint256"
        }
      ],
      "payable": false,
      "stateMutability": "view",
      "type": "function"
    },
    {
      "constant": false,
      "inputs": [
        {
          "name": "newRate",
          "type": "uint256"
        }
      ],
      "name": "setPurchaseRate",
      "outputs": [],
      "payable": false,
      "stateMutability": "nonpayable",
      "type": "function"
    },
    {
      "constant": true,
      "inputs": [
        {
          "name": "NewAdvisorAddr",
          "type": "address"
        }
      ],
      "name": "CheckTeamTokenAmount",
      "outputs": [
        {
          "name": "",
          "type": "uint256"
        }
      ],
      "payable": false,
      "stateMutability": "view",
      "type": "function"
    },
    {
      "constant": false,
      "inputs": [
        {
          "name": "NewFundDepositAddress",
          "type": "address"
        }
      ],
      "name": "ChangeFundDepositAddress",
      "outputs": [],
      "payable": false,
      "stateMutability": "nonpayable",
      "type": "function"
    },
    {
      "constant": true,
      "inputs": [],
      "name": "RewardsBountyToken",
      "outputs": [
        {
          "name": "",
          "type": "uint256"
        }
      ],
      "payable": false,
      "stateMutability": "view",
      "type": "function"
    },
    {
      "constant": false,
      "inputs": [
        {
          "name": "_from",
          "type": "address"
        },
        {
          "name": "_to",
          "type": "address"
        },
        {
          "name": "_value",
          "type": "uint256"
        }
      ],
      "name": "transferFrom",
      "outputs": [
        {
          "name": "success",
          "type": "bool"
        }
      ],
      "payable": false,
      "stateMutability": "nonpayable",
      "type": "function"
    },
    {
      "constant": false,
      "inputs": [
        {
          "name": "newSoftCap",
          "type": "uint256"
        }
      ],
      "name": "ChangeSoftCap",
      "outputs": [],
      "payable": false,
      "stateMutability": "nonpayable",
      "type": "function"
    },
    {
      "constant": true,
      "inputs": [],
      "name": "InitialAllocatedTeamToken",
      "outputs": [
        {
          "name": "",
          "type": "uint256"
        }
      ],
      "payable": false,
      "stateMutability": "view",
      "type": "function"
    },
    {
      "constant": true,
      "inputs": [],
      "name": "decimals",
      "outputs": [
        {
          "name": "",
          "type": "uint256"
        }
      ],
      "payable": false,
      "stateMutability": "view",
      "type": "function"
    },
    {
      "constant": true,
      "inputs": [],
      "name": "initialSupply",
      "outputs": [
        {
          "name": "",
          "type": "uint256"
        }
      ],
      "payable": false,
      "stateMutability": "view",
      "type": "function"
    },
    {
      "constant": false,
      "inputs": [
        {
          "name": "recipients",
          "type": "address[]"
        },
        {
          "name": "_values",
          "type": "uint256[]"
        }
      ],
      "name": "airdropMinting",
      "outputs": [],
      "payable": false,
      "stateMutability": "nonpayable",
      "type": "function"
    },
    {
      "constant": false,
      "inputs": [
        {
          "name": "_to",
          "type": "address"
        },
        {
          "name": "_value",
          "type": "uint256"
        }
      ],
      "name": "mint",
      "outputs": [],
      "payable": false,
      "stateMutability": "nonpayable",
      "type": "function"
    },
    {
      "constant": true,
      "inputs": [],
      "name": "BonusAmountPreSale",
      "outputs": [
        {
          "name": "",
          "type": "uint256"
        }
      ],
      "payable": false,
      "stateMutability": "view",
      "type": "function"
    },
    {
      "constant": false,
      "inputs": [
        {
          "name": "_value",
          "type": "uint256"
        }
      ],
      "name": "burn",
      "outputs": [],
      "payable": false,
      "stateMutability": "nonpayable",
      "type": "function"
    },
    {
      "constant": true,
      "inputs": [
        {
          "name": "PeriodIndex",
          "type": "uint8"
        }
      ],
      "name": "CheckIfMainSaleOn",
      "outputs": [
        {
          "name": "",
          "type": "bool"
        }
      ],
      "payable": false,
      "stateMutability": "view",
      "type": "function"
    },
    {
      "constant": false,
      "inputs": [
        {
          "name": "endDateTimeStamp",
          "type": "uint256"
        }
      ],
      "name": "changeEndDate",
      "outputs": [
        {
          "name": "",
          "type": "bool"
        }
      ],
      "payable": false,
      "stateMutability": "nonpayable",
      "type": "function"
    },
    {
      "constant": false,
      "inputs": [
        {
          "name": "NewTeamAddr",
          "type": "address"
        },
        {
          "name": "Tokenamount",
          "type": "uint256"
        },
        {
          "name": "TokenLockStartDateTime",
          "type": "uint256"
        },
        {
          "name": "TokenLockEndDateTime",
          "type": "uint256"
        },
        {
          "name": "partofTeam",
          "type": "bool"
        }
      ],
      "name": "AddTeamInvestor",
      "outputs": [],
      "payable": false,
      "stateMutability": "nonpayable",
      "type": "function"
    },
    {
      "constant": true,
      "inputs": [],
      "name": "purchaseRate",
      "outputs": [
        {
          "name": "",
          "type": "uint256"
        }
      ],
      "payable": false,
      "stateMutability": "view",
      "type": "function"
    },
    {
      "constant": false,
      "inputs": [
        {
          "name": "NewAdvisor",
          "type": "address"
        },
        {
          "name": "Tokenamount",
          "type": "uint256"
        },
        {
          "name": "lockStartTime",
          "type": "uint256"
        },
        {
          "name": "LockExpiryTime",
          "type": "uint256"
        },
        {
          "name": "PartofTeam",
          "type": "bool"
        }
      ],
      "name": "AddAdvisor",
      "outputs": [],
      "payable": false,
      "stateMutability": "nonpayable",
      "type": "function"
    },
    {
      "constant": true,
      "inputs": [],
      "name": "TotalTeamnvestor",
      "outputs": [
        {
          "name": "",
          "type": "uint256"
        }
      ],
      "payable": false,
      "stateMutability": "view",
      "type": "function"
    },
    {
      "constant": true,
      "inputs": [],
      "name": "InitialAllocatedAdvisorToken",
      "outputs": [
        {
          "name": "",
          "type": "uint256"
        }
      ],
      "payable": false,
      "stateMutability": "view",
      "type": "function"
    },
    {
      "constant": true,
      "inputs": [],
      "name": "InitialCompanyHoldingValue",
      "outputs": [
        {
          "name": "",
          "type": "uint256"
        }
      ],
      "payable": false,
      "stateMutability": "view",
      "type": "function"
    },
    {
      "constant": true,
      "inputs": [],
      "name": "version",
      "outputs": [
        {
          "name": "",
          "type": "string"
        }
      ],
      "payable": false,
      "stateMutability": "view",
      "type": "function"
    },
    {
      "constant": false,
      "inputs": [
        {
          "name": "NewTeamAddr",
          "type": "address"
        }
      ],
      "name": "RemoveTeamFromFurtherInvestment",
      "outputs": [],
      "payable": false,
      "stateMutability": "nonpayable",
      "type": "function"
    },
    {
      "constant": false,
      "inputs": [
        {
          "name": "newHardCap",
          "type": "uint256"
        }
      ],
      "name": "ChangeHardCap",
      "outputs": [],
      "payable": false,
      "stateMutability": "nonpayable",
      "type": "function"
    },
    {
      "constant": true,
      "inputs": [
        {
          "name": "NewAdvisorAddr",
          "type": "address"
        }
      ],
      "name": "CheckIfAdvisorActive",
      "outputs": [
        {
          "name": "",
          "type": "bool"
        }
      ],
      "payable": false,
      "stateMutability": "view",
      "type": "function"
    },
    {
      "constant": true,
      "inputs": [],
      "name": "InitialRewardsBountyToken",
      "outputs": [
        {
          "name": "",
          "type": "uint256"
        }
      ],
      "payable": false,
      "stateMutability": "view",
      "type": "function"
    },
    {
      "constant": true,
      "inputs": [],
      "name": "FounderToken",
      "outputs": [
        {
          "name": "",
          "type": "uint256"
        }
      ],
      "payable": false,
      "stateMutability": "view",
      "type": "function"
    },
    {
      "constant": true,
      "inputs": [
        {
          "name": "who",
          "type": "address"
        }
      ],
      "name": "balanceOf",
      "outputs": [
        {
          "name": "",
          "type": "uint256"
        }
      ],
      "payable": false,
      "stateMutability": "view",
      "type": "function"
    },
    {
      "constant": true,
      "inputs": [
        {
          "name": "NewAdvisorAddr",
          "type": "address"
        }
      ],
      "name": "CheckAdvisorTokenAmount",
      "outputs": [
        {
          "name": "",
          "type": "uint256"
        }
      ],
      "payable": false,
      "stateMutability": "view",
      "type": "function"
    },
    {
      "constant": true,
      "inputs": [],
      "name": "BrightCoinInvestorAccreditationAddress",
      "outputs": [
        {
          "name": "",
          "type": "address"
        }
      ],
      "payable": false,
      "stateMutability": "view",
      "type": "function"
    },
    {
      "constant": true,
      "inputs": [],
      "name": "ICOType",
      "outputs": [
        {
          "name": "",
          "type": "uint8"
        }
      ],
      "payable": false,
      "stateMutability": "view",
      "type": "function"
    },
    {
      "constant": false,
      "inputs": [
        {
          "name": "presalestatus",
          "type": "bool"
        }
      ],
      "name": "changePresaleStatus",
      "outputs": [],
      "payable": false,
      "stateMutability": "nonpayable",
      "type": "function"
    },
    {
      "constant": true,
      "inputs": [],
      "name": "PreSaleOn",
      "outputs": [
        {
          "name": "",
          "type": "bool"
        }
      ],
      "payable": false,
      "stateMutability": "view",
      "type": "function"
    },
    {
      "constant": false,
      "inputs": [
        {
          "name": "NewAdvisorAddr",
          "type": "address"
        }
      ],
      "name": "RemoveAdvisorFromFurtherInvestment",
      "outputs": [
        {
          "name": "",
          "type": "bool"
        }
      ],
      "payable": false,
      "stateMutability": "nonpayable",
      "type": "function"
    },
    {
      "constant": true,
      "inputs": [],
      "name": "InitialFounderToken",
      "outputs": [
        {
          "name": "",
          "type": "uint256"
        }
      ],
      "payable": false,
      "stateMutability": "view",
      "type": "function"
    },
    {
      "constant": true,
      "inputs": [],
      "name": "CompanyHoldingValue",
      "outputs": [
        {
          "name": "",
          "type": "uint256"
        }
      ],
      "payable": false,
      "stateMutability": "view",
      "type": "function"
    },
    {
      "constant": true,
      "inputs": [],
      "name": "CompanyHoldingAddress",
      "outputs": [
        {
          "name": "",
          "type": "address"
        }
      ],
      "payable": false,
      "stateMutability": "view",
      "type": "function"
    },
    {
      "constant": true,
      "inputs": [
        {
          "name": "DateTimeStamp",
          "type": "uint256"
        },
        {
          "name": "PeriodIndex",
          "type": "uint8"
        }
      ],
      "name": "CheckTokenPeriodSale",
      "outputs": [
        {
          "name": "",
          "type": "bool"
        }
      ],
      "payable": false,
      "stateMutability": "view",
      "type": "function"
    },
    {
      "constant": true,
      "inputs": [
        {
          "name": "",
          "type": "uint256"
        }
      ],
      "name": "AdvisorDistributionAddr",
      "outputs": [
        {
          "name": "",
          "type": "address"
        }
      ],
      "payable": false,
      "stateMutability": "view",
      "type": "function"
    },
    {
      "constant": true,
      "inputs": [],
      "name": "TotalAdvisor",
      "outputs": [
        {
          "name": "",
          "type": "uint256"
        }
      ],
      "payable": false,
      "stateMutability": "view",
      "type": "function"
    },
    {
      "constant": true,
      "inputs": [],
      "name": "FundDepositAddress",
      "outputs": [
        {
          "name": "",
          "type": "address"
        }
      ],
      "payable": false,
      "stateMutability": "view",
      "type": "function"
    },
    {
      "constant": true,
      "inputs": [],
      "name": "maxCoinSoldDuringPresale",
      "outputs": [
        {
          "name": "",
          "type": "uint256"
        }
      ],
      "payable": false,
      "stateMutability": "view",
      "type": "function"
    },
    {
      "constant": true,
      "inputs": [],
      "name": "TokenName",
      "outputs": [
        {
          "name": "",
          "type": "string"
        }
      ],
      "payable": false,
      "stateMutability": "view",
      "type": "function"
    },
    {
      "constant": true,
      "inputs": [],
      "name": "MainSaleCount",
      "outputs": [
        {
          "name": "",
          "type": "uint256"
        }
      ],
      "payable": false,
      "stateMutability": "view",
      "type": "function"
    },
    {
      "constant": true,
      "inputs": [],
      "name": "TotalAllocatedTeamToken",
      "outputs": [
        {
          "name": "",
          "type": "uint256"
        }
      ],
      "payable": false,
      "stateMutability": "view",
      "type": "function"
    },
    {
      "constant": true,
      "inputs": [
        {
          "name": "currentdatetime",
          "type": "uint256"
        }
      ],
      "name": "ReleaseCompanyHoldingTokens",
      "outputs": [
        {
          "name": "",
          "type": "uint256"
        }
      ],
      "payable": false,
      "stateMutability": "view",
      "type": "function"
    },
    {
      "constant": true,
      "inputs": [],
      "name": "RewardBountylockinPeriod",
      "outputs": [
        {
          "name": "",
          "type": "uint256"
        }
      ],
      "payable": false,
      "stateMutability": "view",
      "type": "function"
    },
    {
      "constant": true,
      "inputs": [],
      "name": "FounderAddress",
      "outputs": [
        {
          "name": "",
          "type": "address"
        }
      ],
      "payable": false,
      "stateMutability": "view",
      "type": "function"
    },
    {
      "constant": true,
      "inputs": [],
      "name": "Discount",
      "outputs": [
        {
          "name": "",
          "type": "uint8"
        }
      ],
      "payable": false,
      "stateMutability": "view",
      "type": "function"
    },
    {
      "constant": false,
      "inputs": [
        {
          "name": "PeriodIndex",
          "type": "uint8"
        }
      ],
      "name": "EndMainSale",
      "outputs": [],
      "payable": false,
      "stateMutability": "nonpayable",
      "type": "function"
    },
    {
      "constant": true,
      "inputs": [],
      "name": "TotalAllocatedAdvisorToken",
      "outputs": [
        {
          "name": "",
          "type": "uint256"
        }
      ],
      "payable": false,
      "stateMutability": "view",
      "type": "function"
    },
    {
      "constant": true,
      "inputs": [],
      "name": "MintMoreTokens",
      "outputs": [
        {
          "name": "",
          "type": "bool"
        }
      ],
      "payable": false,
      "stateMutability": "view",
      "type": "function"
    },
    {
      "constant": false,
      "inputs": [
        {
          "name": "Tokenamount",
          "type": "uint256"
        }
      ],
      "name": "IsTokenAvailable",
      "outputs": [
        {
          "name": "",
          "type": "bool"
        }
      ],
      "payable": false,
      "stateMutability": "nonpayable",
      "type": "function"
    },
    {
      "constant": true,
      "inputs": [],
      "name": "FounderlockinPeriod",
      "outputs": [
        {
          "name": "",
          "type": "uint256"
        }
      ],
      "payable": false,
      "stateMutability": "view",
      "type": "function"
    },
    {
      "constant": true,
      "inputs": [
        {
          "name": "_owner",
          "type": "address"
        },
        {
          "name": "_spender",
          "type": "address"
        }
      ],
      "name": "allowance",
      "outputs": [
        {
          "name": "",
          "type": "uint256"
        }
      ],
      "payable": false,
      "stateMutability": "view",
      "type": "function"
    },
    {
      "constant": true,
      "inputs": [],
      "name": "BrightCoinInvestorKYCAddress",
      "outputs": [
        {
          "name": "",
          "type": "address"
        }
      ],
      "payable": false,
      "stateMutability": "view",
      "type": "function"
    },
    {
      "constant": false,
      "inputs": [
        {
          "name": "mintingOption",
          "type": "bool"
        }
      ],
      "name": "UpdateTokenMintingOption",
      "outputs": [],
      "payable": false,
      "stateMutability": "nonpayable",
      "type": "function"
    },
    {
      "constant": true,
      "inputs": [
        {
          "name": "TeamAddr",
          "type": "address"
        }
      ],
      "name": "CheckIfTeamActive",
      "outputs": [
        {
          "name": "",
          "type": "bool"
        }
      ],
      "payable": false,
      "stateMutability": "view",
      "type": "function"
    },
    {
      "constant": true,
      "inputs": [],
      "name": "CompanyHoldinglockingPeriod",
      "outputs": [
        {
          "name": "",
          "type": "uint256"
        }
      ],
      "payable": false,
      "stateMutability": "view",
      "type": "function"
    },
    {
      "constant": false,
      "inputs": [
        {
          "name": "periodIndex",
          "type": "uint8"
        },
        {
          "name": "tokenamount",
          "type": "uint256"
        }
      ],
      "name": "CheckMainSaleLimit",
      "outputs": [
        {
          "name": "",
          "type": "bool"
        }
      ],
      "payable": false,
      "stateMutability": "nonpayable",
      "type": "function"
    },
    {
      "constant": false,
      "inputs": [
        {
          "name": "_status",
          "type": "bool"
        }
      ],
      "name": "StopICO",
      "outputs": [],
      "payable": false,
      "stateMutability": "nonpayable",
      "type": "function"
    },
    {
      "constant": false,
      "inputs": [
        {
          "name": "mainStartDate",
          "type": "uint256"
        },
        {
          "name": "mainSaleEndDate",
          "type": "uint256"
        },
        {
          "name": "TokenLockinPeriod",
          "type": "uint256"
        },
        {
          "name": "MaxCoinSold",
          "type": "uint256"
        },
        {
          "name": "BonusDuringMainsale",
          "type": "uint256"
        },
        {
          "name": "PeriodIndex",
          "type": "uint8"
        },
        {
          "name": "PeriodActive",
          "type": "bool"
        }
      ],
      "name": "AddMainSalePeriod",
      "outputs": [
        {
          "name": "",
          "type": "bool"
        }
      ],
      "payable": false,
      "stateMutability": "nonpayable",
      "type": "function"
    },
    {
      "constant": true,
      "inputs": [
        {
          "name": "currentdatetime",
          "type": "uint256"
        }
      ],
      "name": "ReleaseTokenToFounder",
      "outputs": [
        {
          "name": "",
          "type": "uint256"
        }
      ],
      "payable": false,
      "stateMutability": "view",
      "type": "function"
    },
    {
      "constant": true,
      "inputs": [
        {
          "name": "currenttime",
          "type": "uint256"
        }
      ],
      "name": "inPreSalePeriod",
      "outputs": [
        {
          "name": "",
          "type": "bool"
        }
      ],
      "payable": false,
      "stateMutability": "view",
      "type": "function"
    },
    {
      "constant": true,
      "inputs": [],
      "name": "GetSoftCap",
      "outputs": [
        {
          "name": "",
          "type": "uint256"
        }
      ],
      "payable": false,
      "stateMutability": "view",
      "type": "function"
    },
    {
      "inputs": [],
      "payable": false,
      "stateMutability": "nonpayable",
      "type": "constructor"
    },
    {
      "payable": true,
      "stateMutability": "payable",
      "type": "fallback"
    },
    {
      "anonymous": false,
      "inputs": [
        {
          "indexed": true,
          "name": "from",
          "type": "address"
        },
        {
          "indexed": true,
          "name": "_to",
          "type": "address"
        },
        {
          "indexed": false,
          "name": "_value",
          "type": "uint256"
        }
      ],
      "name": "Transfer",
      "type": "event"
    },
    {
      "anonymous": false,
      "inputs": [
        {
          "indexed": true,
          "name": "owner",
          "type": "address"
        },
        {
          "indexed": true,
          "name": "_spender",
          "type": "address"
        },
        {
          "indexed": false,
          "name": "_value",
          "type": "uint256"
        }
      ],
      "name": "Approval",
      "type": "event"
    },
    {
      "anonymous": false,
      "inputs": [
        {
          "indexed": false,
          "name": "tokens",
          "type": "uint256"
        }
      ],
      "name": "PresaleFinalized",
      "type": "event"
    },
    {
      "anonymous": false,
      "inputs": [
        {
          "indexed": false,
          "name": "softcap",
          "type": "string"
        }
      ],
      "name": "ICOSoftCapReached",
      "type": "event"
    },
    {
      "anonymous": false,
      "inputs": [
        {
          "indexed": false,
          "name": "TokenSold",
          "type": "uint256"
        },
        {
          "indexed": false,
          "name": "str",
          "type": "string"
        }
      ],
      "name": "ICOSoftUnsuccessFull",
      "type": "event"
    },
    {
      "anonymous": false,
      "inputs": [
        {
          "indexed": false,
          "name": "addr",
          "type": "address"
        },
        {
          "indexed": false,
          "name": "tokens",
          "type": "uint256"
        }
      ],
      "name": "Burn",
      "type": "event"
    },
    {
      "anonymous": false,
      "inputs": [
        {
          "indexed": false,
          "name": "target",
          "type": "address"
        },
        {
          "indexed": false,
          "name": "mintedAmount",
          "type": "uint256"
        }
      ],
      "name": "Mint",
      "type": "event"
    },
    {
      "constant": true,
      "inputs": [],
      "name": "GetCurrentTime",
      "outputs": [
        {
          "name": "",
          "type": "uint256"
        }
      ],
      "payable": false,
      "stateMutability": "view",
      "type": "function"
    },
    {
      "constant": true,
      "inputs": [
        {
          "name": "addr",
          "type": "address"
        }
      ],
      "name": "GetTokenAmount",
      "outputs": [
        {
          "name": "",
          "type": "uint256"
        }
      ],
      "payable": false,
      "stateMutability": "view",
      "type": "function"
    },
    {
      "constant": false,
      "inputs": [
        {
          "name": "AddrOfInvestor",
          "type": "address"
        },
        {
          "name": "currenttime",
          "type": "uint256"
        },
        {
          "name": "expiryDateTime",
          "type": "uint256"
        },
        {
          "name": "MainSalePeriodIndex",
          "type": "uint8"
        }
      ],
      "name": "DistributeToken",
      "outputs": [],
      "payable": false,
      "stateMutability": "nonpayable",
      "type": "function"
    },
    {
      "constant": false,
      "inputs": [
        {
          "name": "newInvestor",
          "type": "address"
        },
        {
          "name": "tokens",
          "type": "uint256"
        }
      ],
      "name": "transfer",
      "outputs": [
        {
          "name": "",
          "type": "bool"
        }
      ],
      "payable": false,
      "stateMutability": "nonpayable",
      "type": "function"
    },
    {
      "constant": false,
      "inputs": [
        {
          "name": "_kyc",
          "type": "address"
        },
        {
          "name": "_InvestorAcrridetion",
          "type": "address"
        }
      ],
      "name": "setKYCAndAccridetionAddres",
      "outputs": [],
      "payable": false,
      "stateMutability": "nonpayable",
      "type": "function"
    },
    {
      "constant": true,
      "inputs": [],
      "name": "GetCurrentKYCCount",
      "outputs": [
        {
          "name": "",
          "type": "uint256"
        }
      ],
      "payable": false,
      "stateMutability": "view",
      "type": "function"
    }
  ],
  "bytecode": "0x60806040526706f05b59d3b200006002556801a055690d9db80000600355635b8e7168600455635d58d2066005556001600660006101000a81548160ff0219169083151502179055506000600b5560006010556001601760006101000a81548160ff02191690831515021790555060006019556103e8601a55620f4240601b55614e20601c5573403f4fedf6127f30e77ae8295dea47eea0832899601d60006101000a81548173ffffffffffffffffffffffffffffffffffffffff021916908373ffffffffffffffffffffffffffffffffffffffff1602179055506000601d60146101000a81548160ff02191690831515021790555034801561010157600080fd5b503333333333336000806101000a81548173ffffffffffffffffffffffffffffffffffffffff021916908373ffffffffffffffffffffffffffffffffffffffff16021790555080600160006101000a81548173ffffffffffffffffffffffffffffffffffffffff021916908373ffffffffffffffffffffffffffffffffffffffff1602179055505080600660016101000a81548173ffffffffffffffffffffffffffffffffffffffff021916908373ffffffffffffffffffffffffffffffffffffffff1602179055505080600960006101000a81548173ffffffffffffffffffffffffffffffffffffffff021916908373ffffffffffffffffffffffffffffffffffffffff1602179055505080600e60006101000a81548173ffffffffffffffffffffffffffffffffffffffff021916908373ffffffffffffffffffffffffffffffffffffffff1602179055505080601360006101000a81548173ffffffffffffffffffffffffffffffffffffffff021916908373ffffffffffffffffffffffffffffffffffffffff160217905550506012600a0a620186a0026018819055506012600a0a620186a002600a819055506012600a0a6103e8026014819055506012600a0a6103e8026015819055506012600a0a6103e8026016819055506012600a0a620186a002600f819055506012600a0a601c5402601c81905550601854601e60003373ffffffffffffffffffffffffffffffffffffffff1673ffffffffffffffffffffffffffffffffffffffff16815260200190815260200160002081905550600060198190555061587f806200035b6000396000f3006080604052600436106103a5576000357c0100000000000000000000000000000000000000000000000000000000900463ffffffff168062739f2a1461043a578063024e99af1461047f578063065e70dc146104aa578063095ea7b3146105175780630a1f2a5f1461057c578063108c7700146105c157806314c56409146105ec578063174f8bdb1461067c57806318160ddd146106c05780631d37c8a6146106eb5780631e9e3f97146107185780632385cf641461076f578063239bfb6e146107b257806323b872dd146107dd578063272c25cf146108625780632fc272e11461088f578063313ce567146108ba57806336145937146108e5578063378dc3dc146109105780633d8180d21461093b5780633ff00ba51461099f57806340c10f1914610a48578063410116fb14610a9557806342966c6814610ac057806342aa9bb514610aed57806345737b1e14610b355780634898011a14610b7a57806348c26e2214610be75780634ae3403214610c125780634c3ed4e114610c7f5780634d0e87c614610caa57806354c15d5e14610cd557806354fd4d5014610d00578063577ed9d214610d9057806360185f5614610dd357806360f4608614610e00578063643092ae14610e5b5780636d1a151314610e8657806370a0823114610eb15780637b758ef714610f085780638be9f3dd14610f5f5780639922457814610fb65780639ca5d79f146110195780639dd482671461104a5780639f648a94146110795780639f7e3a7f146110a8578063a180218f14611103578063a240c60c1461112e578063a4876bc414611159578063a60e02ab146111b0578063a63fb2d9146111db578063a9059cbb1461122d578063aaeb4cb614611292578063b03fd1ba146112ff578063b2b67fa21461132a578063b30f63da14611381578063b6d7855a146113ac578063b8eb41641461143c578063bc30585214611467578063be9aa28714611492578063bed0b70c146114d3578063bf63c6e9146114fe578063c63ccb3b14611555578063c7e3cbff14611586578063cc15c0f0146115b6578063cd6ce90c146115e1578063d19babf414611610578063d63e858314611655578063d9d45682146116ac578063dd62ed3e146116d7578063e118a49a1461174e578063e43158be146117a5578063e5ab9f7c146117d4578063ea887bcb1461182f578063ede1c2821461185a578063f083efd7146118ac578063f0b2d90d146118db578063f115501614611961578063f569aed6146119a2578063fc426085146119e7575b60011515601760009054906101000a900460ff1615151415156103c757600080fd5b6103cf611a12565b601d60009054906101000a900473ffffffffffffffffffffffffffffffffffffffff1673ffffffffffffffffffffffffffffffffffffffff166108fc349081150290604051600060405180830381858888f19350505050158015610437573d6000803e3d6000fd5b50005b34801561044657600080fd5b5061046560048036038101908080359060200190929190505050611ea7565b604051808215151515815260200191505060405180910390f35b34801561048b57600080fd5b50610494611fa0565b6040518082815260200191505060405180910390f35b3480156104b657600080fd5b506104d560048036038101908080359060200190929190505050612071565b604051808273ffffffffffffffffffffffffffffffffffffffff1673ffffffffffffffffffffffffffffffffffffffff16815260200191505060405180910390f35b34801561052357600080fd5b50610562600480360381019080803573ffffffffffffffffffffffffffffffffffffffff169060200190929190803590602001909291905050506120af565b604051808215151515815260200191505060405180910390f35b34801561058857600080fd5b506105a7600480360381019080803590602001909291905050506120bb565b604051808215151515815260200191505060405180910390f35b3480156105cd57600080fd5b506105d6612119565b6040518082815260200191505060405180910390f35b3480156105f857600080fd5b5061060161211f565b6040518080602001828103825283818151815260200191508051906020019080838360005b83811015610641578082015181840152602081019050610626565b50505050905090810190601f16801561066e5780820380516001836020036101000a031916815260200191505b509250505060405180910390f35b34801561068857600080fd5b506106aa600480360381019080803560ff169060200190929190505050612158565b6040518082815260200191505060405180910390f35b3480156106cc57600080fd5b506106d5612247565b6040518082815260200191505060405180910390f35b3480156106f757600080fd5b5061071660048036038101908080359060200190929190505050612251565b005b34801561072457600080fd5b50610759600480360381019080803573ffffffffffffffffffffffffffffffffffffffff169060200190929190505050612333565b6040518082815260200191505060405180910390f35b34801561077b57600080fd5b506107b0600480360381019080803573ffffffffffffffffffffffffffffffffffffffff169060200190929190505050612384565b005b3480156107be57600080fd5b506107c76124ec565b6040518082815260200191505060405180910390f35b3480156107e957600080fd5b50610848600480360381019080803573ffffffffffffffffffffffffffffffffffffffff169060200190929190803573ffffffffffffffffffffffffffffffffffffffff169060200190929190803590602001909291905050506124f2565b604051808215151515815260200191505060405180910390f35b34801561086e57600080fd5b5061088d600480360381019080803590602001909291905050506124ff565b005b34801561089b57600080fd5b506108a46125f1565b6040518082815260200191505060405180910390f35b3480156108c657600080fd5b506108cf6125f8565b6040518082815260200191505060405180910390f35b3480156108f157600080fd5b506108fa6125fd565b6040518082815260200191505060405180910390f35b34801561091c57600080fd5b506109256126c5565b6040518082815260200191505060405180910390f35b34801561094757600080fd5b5061099d600480360381019080803573ffffffffffffffffffffffffffffffffffffffff1690602001909291908035906020019092919080359060200190929190803560ff1690602001909291905050506126cc565b005b3480156109ab57600080fd5b50610a466004803603810190808035906020019082018035906020019080806020026020016040519081016040528093929190818152602001838360200280828437820191505050505050919291929080359060200190820180359060200190808060200260200160405190810160405280939291908181526020018383602002808284378201915050505050509192919290505050612dcf565b005b348015610a5457600080fd5b50610a93600480360381019080803573ffffffffffffffffffffffffffffffffffffffff16906020019092919080359060200190929190505050612f5c565b005b348015610aa157600080fd5b50610aaa61308d565b6040518082815260200191505060405180910390f35b348015610acc57600080fd5b50610aeb60048036038101908080359060200190929190505050613092565b005b348015610af957600080fd5b50610b1b600480360381019080803560ff1690602001909291905050506132da565b604051808215151515815260200191505060405180910390f35b348015610b4157600080fd5b50610b606004803603810190808035906020019092919050505061330f565b604051808215151515815260200191505060405180910390f35b348015610b8657600080fd5b50610be5600480360381019080803573ffffffffffffffffffffffffffffffffffffffff169060200190929190803590602001909291908035906020019092919080359060200190929190803515159060200190929190505050613408565b005b348015610bf357600080fd5b50610bfc613695565b6040518082815260200191505060405180910390f35b348015610c1e57600080fd5b50610c7d600480360381019080803573ffffffffffffffffffffffffffffffffffffffff16906020019092919080359060200190929190803590602001909291908035906020019092919080351515906020019092919050505061369b565b005b348015610c8b57600080fd5b50610c94613935565b6040518082815260200191505060405180910390f35b348015610cb657600080fd5b50610cbf613942565b6040518082815260200191505060405180910390f35b348015610ce157600080fd5b50610cea613949565b6040518082815260200191505060405180910390f35b348015610d0c57600080fd5b50610d1561394f565b6040518080602001828103825283818151815260200191508051906020019080838360005b83811015610d55578082015181840152602081019050610d3a565b50505050905090810190601f168015610d825780820380516001836020036101000a031916815260200191505b509250505060405180910390f35b348015610d9c57600080fd5b50610dd1600480360381019080803573ffffffffffffffffffffffffffffffffffffffff169060200190929190505050613988565b005b348015610ddf57600080fd5b50610dfe600480360381019080803590602001909291905050506139ec565b005b348015610e0c57600080fd5b50610e41600480360381019080803573ffffffffffffffffffffffffffffffffffffffff169060200190929190505050613ade565b604051808215151515815260200191505060405180910390f35b348015610e6757600080fd5b50610e70613b54565b6040518082815260200191505060405180910390f35b348015610e9257600080fd5b50610e9b613b5a565b6040518082815260200191505060405180910390f35b348015610ebd57600080fd5b50610ef2600480360381019080803573ffffffffffffffffffffffffffffffffffffffff169060200190929190505050613b60565b6040518082815260200191505060405180910390f35b348015610f1457600080fd5b50610f49600480360381019080803573ffffffffffffffffffffffffffffffffffffffff169060200190929190505050613ba9565b6040518082815260200191505060405180910390f35b348015610f6b57600080fd5b50610f74613c1e565b604051808273ffffffffffffffffffffffffffffffffffffffff1673ffffffffffffffffffffffffffffffffffffffff16815260200191505060405180910390f35b348015610fc257600080fd5b50611017600480360381019080803573ffffffffffffffffffffffffffffffffffffffff169060200190929190803573ffffffffffffffffffffffffffffffffffffffff169060200190929190505050613c44565b005b34801561102557600080fd5b5061102e613e13565b604051808260ff1660ff16815260200191505060405180910390f35b34801561105657600080fd5b50611077600480360381019080803515159060200190929190505050613e18565b005b34801561108557600080fd5b5061108e613efc565b604051808215151515815260200191505060405180910390f35b3480156110b457600080fd5b506110e9600480360381019080803573ffffffffffffffffffffffffffffffffffffffff169060200190929190505050613f0f565b604051808215151515815260200191505060405180910390f35b34801561110f57600080fd5b50611118614065565b6040518082815260200191505060405180910390f35b34801561113a57600080fd5b5061114361406b565b6040518082815260200191505060405180910390f35b34801561116557600080fd5b5061116e614071565b604051808273ffffffffffffffffffffffffffffffffffffffff1673ffffffffffffffffffffffffffffffffffffffff16815260200191505060405180910390f35b3480156111bc57600080fd5b506111c5614089565b6040518082815260200191505060405180910390f35b3480156111e757600080fd5b5061121360048036038101908080359060200190929190803560ff169060200190929190505050614091565b604051808215151515815260200191505060405180910390f35b34801561123957600080fd5b50611278600480360381019080803573ffffffffffffffffffffffffffffffffffffffff169060200190929190803590602001909291905050506141cb565b604051808215151515815260200191505060405180910390f35b34801561129e57600080fd5b506112bd600480360381019080803590602001909291905050506147e6565b604051808273ffffffffffffffffffffffffffffffffffffffff1673ffffffffffffffffffffffffffffffffffffffff16815260200191505060405180910390f35b34801561130b57600080fd5b50611314614824565b6040518082815260200191505060405180910390f35b34801561133657600080fd5b5061133f614831565b604051808273ffffffffffffffffffffffffffffffffffffffff1673ffffffffffffffffffffffffffffffffffffffff16815260200191505060405180910390f35b34801561138d57600080fd5b50611396614857565b6040518082815260200191505060405180910390f35b3480156113b857600080fd5b506113c161485e565b6040518080602001828103825283818151815260200191508051906020019080838360005b838110156114015780820151818401526020810190506113e6565b50505050905090810190601f16801561142e5780820380516001836020036101000a031916815260200191505b509250505060405180910390f35b34801561144857600080fd5b50611451614897565b6040518082815260200191505060405180910390f35b34801561147357600080fd5b5061147c6148a4565b6040518082815260200191505060405180910390f35b34801561149e57600080fd5b506114bd600480360381019080803590602001909291905050506148aa565b6040518082815260200191505060405180910390f35b3480156114df57600080fd5b506114e861498e565b6040518082815260200191505060405180910390f35b34801561150a57600080fd5b50611513614995565b604051808273ffffffffffffffffffffffffffffffffffffffff1673ffffffffffffffffffffffffffffffffffffffff16815260200191505060405180910390f35b34801561156157600080fd5b5061156a6149ad565b604051808260ff1660ff16815260200191505060405180910390f35b34801561159257600080fd5b506115b4600480360381019080803560ff1690602001909291905050506149b2565b005b3480156115c257600080fd5b506115cb614ab4565b6040518082815260200191505060405180910390f35b3480156115ed57600080fd5b506115f6614aba565b604051808215151515815260200191505060405180910390f35b34801561161c57600080fd5b5061163b60048036038101908080359060200190929190505050614acd565b604051808215151515815260200191505060405180910390f35b34801561166157600080fd5b50611696600480360381019080803573ffffffffffffffffffffffffffffffffffffffff169060200190929190505050614b0f565b6040518082815260200191505060405180910390f35b3480156116b857600080fd5b506116c1614c1f565b6040518082815260200191505060405180910390f35b3480156116e357600080fd5b50611738600480360381019080803573ffffffffffffffffffffffffffffffffffffffff169060200190929190803573ffffffffffffffffffffffffffffffffffffffff169060200190929190505050614c26565b6040518082815260200191505060405180910390f35b34801561175a57600080fd5b50611763614c32565b604051808273ffffffffffffffffffffffffffffffffffffffff1673ffffffffffffffffffffffffffffffffffffffff16815260200191505060405180910390f35b3480156117b157600080fd5b506117d2600480360381019080803515159060200190929190505050614c58565b005b3480156117e057600080fd5b50611815600480360381019080803573ffffffffffffffffffffffffffffffffffffffff169060200190929190505050614d3c565b604051808215151515815260200191505060405180910390f35b34801561183b57600080fd5b50611844614db2565b6040518082815260200191505060405180910390f35b34801561186657600080fd5b50611892600480360381019080803560ff16906020019092919080359060200190929190505050614db9565b604051808215151515815260200191505060405180910390f35b3480156118b857600080fd5b506118d9600480360381019080803515159060200190929190505050614df6565b005b3480156118e757600080fd5b506119476004803603810190808035906020019092919080359060200190929190803590602001909291908035906020019092919080359060200190929190803560ff169060200190929190803515159060200190929190505050614eda565b604051808215151515815260200191505060405180910390f35b34801561196d57600080fd5b5061198c6004803603810190808035906020019092919050505061507a565b6040518082815260200191505060405180910390f35b3480156119ae57600080fd5b506119cd60048036038101908080359060200190929190505050615188565b604051808215151515815260200191505060405180910390f35b3480156119f357600080fd5b506119fc6151b5565b6040518082815260200191505060405180910390f35b600080600060011515601f60009054906101000a900473ffffffffffffffffffffffffffffffffffffffff1673ffffffffffffffffffffffffffffffffffffffff16634211241733426040518363ffffffff167c0100000000000000000000000000000000000000000000000000000000028152600401808373ffffffffffffffffffffffffffffffffffffffff1673ffffffffffffffffffffffffffffffffffffffff16815260200182815260200192505050602060405180830381600087803b158015611ae057600080fd5b505af1158015611af4573d6000803e3d6000fd5b505050506040513d6020811015611b0a57600080fd5b81019080805190602001909291905050501515141515611b2957600080fd5b60011515602060009054906101000a900473ffffffffffffffffffffffffffffffffffffffff1673ffffffffffffffffffffffffffffffffffffffff1663439c52d2334260006040518463ffffffff167c0100000000000000000000000000000000000000000000000000000000028152600401808473ffffffffffffffffffffffffffffffffffffffff1673ffffffffffffffffffffffffffffffffffffffff1681526020018381526020018260ff1660ff1681526020019350505050602060405180830381600087803b158015611c0157600080fd5b505af1158015611c15573d6000803e3d6000fd5b505050506040513d6020811015611c2b57600080fd5b81019080805190602001909291905050501515141515611c4a57600080fd5b600034111515611c5957600080fd5b6002543410151515611c6a57600080fd5b6003543411151515611c7b57600080fd5b600660009054906101000a900460ff1615611dd35760011515611c9d42615188565b1515141515611cab57600080fd5b611ceb611cda6064611ccc600060ff16601a5461528690919063ffffffff16565b6152c490919063ffffffff16565b601a546152fc90919063ffffffff16565b9250611d00348461528690919063ffffffff16565b9150611d166000836152fc90919063ffffffff16565b5060011515611d248361531d565b1515141515611d3257600080fd5b81602360003373ffffffffffffffffffffffffffffffffffffffff1673ffffffffffffffffffffffffffffffffffffffff168152602001908152602001600020819055506000602460003373ffffffffffffffffffffffffffffffffffffffff1673ffffffffffffffffffffffffffffffffffffffff16815260200190815260200160002060006101000a81548160ff021916908315150217905550611ea2565b611de834601a5461528690919063ffffffff16565b905060011515611df78261531d565b1515141515611e0557600080fd5b80602360003373ffffffffffffffffffffffffffffffffffffffff1673ffffffffffffffffffffffffffffffffffffffff168152602001908152602001600020819055506001602460003373ffffffffffffffffffffffffffffffffffffffff1673ffffffffffffffffffffffffffffffffffffffff16815260200190815260200160002060006101000a81548160ff0219169083151502179055505b505050565b6000600160009054906101000a900473ffffffffffffffffffffffffffffffffffffffff168073ffffffffffffffffffffffffffffffffffffffff163373ffffffffffffffffffffffffffffffffffffffff16141515611f6f576040517f08c379a00000000000000000000000000000000000000000000000000000000081526004018080602001828103825260148152602001807f4f776e6572204e6f7420417574686f72697a656400000000000000000000000081525060200191505060405180910390fd5b42600454111515611f7f57600080fd5b60055483101515611f8f57600080fd5b826004819055506001915050919050565b6000601360009054906101000a900473ffffffffffffffffffffffffffffffffffffffff168073ffffffffffffffffffffffffffffffffffffffff163373ffffffffffffffffffffffffffffffffffffffff16141515612068576040517f08c379a00000000000000000000000000000000000000000000000000000000081526004018080602001828103825260148152602001807f4f776e6572204e6f7420417574686f72697a656400000000000000000000000081525060200191505060405180910390fd5b601c5491505090565b600d8181548110151561208057fe5b906000526020600020016000915054906101000a900473ffffffffffffffffffffffffffffffffffffffff1681565b60006001905092915050565b6000600f54601054111515156120d057600080fd5b600f546120e8836010546152fc90919063ffffffff16565b111515156120f557600080fd5b61210a826010546152fc90919063ffffffff16565b60108190555060019050919050565b60105481565b6040805190810160405280600381526020017f414243000000000000000000000000000000000000000000000000000000000081525081565b600080600660019054906101000a900473ffffffffffffffffffffffffffffffffffffffff168073ffffffffffffffffffffffffffffffffffffffff163373ffffffffffffffffffffffffffffffffffffffff16141515612221576040517f08c379a00000000000000000000000000000000000000000000000000000000081526004018080602001828103825260148152602001807f4f776e6572204e6f7420417574686f72697a656400000000000000000000000081525060200191505060405180910390fd5b600760008560ff1681526020019081526020016000209150816003015492505050919050565b6000601854905090565b601360009054906101000a900473ffffffffffffffffffffffffffffffffffffffff168073ffffffffffffffffffffffffffffffffffffffff163373ffffffffffffffffffffffffffffffffffffffff16141515612317576040517f08c379a00000000000000000000000000000000000000000000000000000000081526004018080602001828103825260148152602001807f4f776e6572204e6f7420417574686f72697a656400000000000000000000000081525060200191505060405180910390fd5b81601a541415151561232857600080fd5b81601a819055505050565b600080600c60008473ffffffffffffffffffffffffffffffffffffffff1673ffffffffffffffffffffffffffffffffffffffff16815260200190815260200160002090508060010154915050919050565b601360009054906101000a900473ffffffffffffffffffffffffffffffffffffffff168073ffffffffffffffffffffffffffffffffffffffff163373ffffffffffffffffffffffffffffffffffffffff1614151561244a576040517f08c379a00000000000000000000000000000000000000000000000000000000081526004018080602001828103825260148152602001807f4f776e6572204e6f7420417574686f72697a656400000000000000000000000081525060200191505060405180910390fd5b8173ffffffffffffffffffffffffffffffffffffffff16601d60009054906101000a900473ffffffffffffffffffffffffffffffffffffffff1673ffffffffffffffffffffffffffffffffffffffff16141515156124a757600080fd5b81601d60006101000a81548173ffffffffffffffffffffffffffffffffffffffff021916908373ffffffffffffffffffffffffffffffffffffffff1602179055505050565b60155481565b6000600190509392505050565b601360009054906101000a900473ffffffffffffffffffffffffffffffffffffffff168073ffffffffffffffffffffffffffffffffffffffff163373ffffffffffffffffffffffffffffffffffffffff161415156125c5576040517f08c379a00000000000000000000000000000000000000000000000000000000081526004018080602001828103825260148152602001807f4f776e6572204e6f7420417574686f72697a656400000000000000000000000081525060200191505060405180910390fd5b81601b54141515156125d657600080fd5b601854821015156125e657600080fd5b81601b819055505050565b620186a081565b601281565b6000601f60009054906101000a900473ffffffffffffffffffffffffffffffffffffffff1673ffffffffffffffffffffffffffffffffffffffff1663848bcbed6040518163ffffffff167c0100000000000000000000000000000000000000000000000000000000028152600401602060405180830381600087803b15801561268557600080fd5b505af1158015612699573d6000803e3d6000fd5b505050506040513d60208110156126af57600080fd5b8101908080519060200190929190505050905090565b620186a081565b6000806000601360009054906101000a900473ffffffffffffffffffffffffffffffffffffffff168073ffffffffffffffffffffffffffffffffffffffff163373ffffffffffffffffffffffffffffffffffffffff16141515612797576040517f08c379a00000000000000000000000000000000000000000000000000000000081526004018080602001828103825260148152602001807f4f776e6572204e6f7420417574686f72697a656400000000000000000000000081525060200191505060405180910390fd5b60008873ffffffffffffffffffffffffffffffffffffffff16141515156127bd57600080fd5b6000871115156127cc57600080fd5b6000861115156127db57600080fd5b60008560ff16148015612801575060011515600660009054906101000a900460ff161515145b15612ab25760011515602060009054906101000a900473ffffffffffffffffffffffffffffffffffffffff1673ffffffffffffffffffffffffffffffffffffffff1663439c52d28a8a60006040518463ffffffff167c0100000000000000000000000000000000000000000000000000000000028152600401808473ffffffffffffffffffffffffffffffffffffffff1673ffffffffffffffffffffffffffffffffffffffff1681526020018381526020018260ff1660ff1681526020019350505050602060405180830381600087803b1580156128de57600080fd5b505af11580156128f2573d6000803e3d6000fd5b505050506040513d602081101561290857600080fd5b8101908080519060200190929190505050151514151561292757600080fd5b602360008973ffffffffffffffffffffffffffffffffffffffff1673ffffffffffffffffffffffffffffffffffffffff16815260200190815260200160002054935061297388856153d6565b50602060009054906101000a900473ffffffffffffffffffffffffffffffffffffffff1673ffffffffffffffffffffffffffffffffffffffff166394b1c8c389888760006040518563ffffffff167c0100000000000000000000000000000000000000000000000000000000028152600401808573ffffffffffffffffffffffffffffffffffffffff1673ffffffffffffffffffffffffffffffffffffffff1681526020018481526020018381526020018260ff1660ff168152602001945050505050600060405180830381600087803b158015612a5057600080fd5b505af1158015612a64573d6000803e3d6000fd5b505050506000602360008a73ffffffffffffffffffffffffffffffffffffffff1673ffffffffffffffffffffffffffffffffffffffff16815260200190815260200160002081905550612dc5565b60011515612abf866132da565b15151415612dc45760011515612ad58887614091565b1515141515612ae357600080fd5b612aec85612158565b9250612b4083602360008b73ffffffffffffffffffffffffffffffffffffffff1673ffffffffffffffffffffffffffffffffffffffff168152602001908152602001600020546152fc90919063ffffffff16565b915060011515612b508684614db9565b1515141515612b5e57600080fd5b60011515602060009054906101000a900473ffffffffffffffffffffffffffffffffffffffff1673ffffffffffffffffffffffffffffffffffffffff1663439c52d28a8a60006040518463ffffffff167c0100000000000000000000000000000000000000000000000000000000028152600401808473ffffffffffffffffffffffffffffffffffffffff1673ffffffffffffffffffffffffffffffffffffffff1681526020018381526020018260ff1660ff1681526020019350505050602060405180830381600087803b158015612c3657600080fd5b505af1158015612c4a573d6000803e3d6000fd5b505050506040513d6020811015612c6057600080fd5b81019080805190602001909291905050501515141515612c7f57600080fd5b602060009054906101000a900473ffffffffffffffffffffffffffffffffffffffff1673ffffffffffffffffffffffffffffffffffffffff166394b1c8c389888560006040518563ffffffff167c0100000000000000000000000000000000000000000000000000000000028152600401808573ffffffffffffffffffffffffffffffffffffffff1673ffffffffffffffffffffffffffffffffffffffff1681526020018481526020018381526020018260ff1660ff168152602001945050505050600060405180830381600087803b158015612d5b57600080fd5b505af1158015612d6f573d6000803e3d6000fd5b50505050612d7d88836153d6565b506000602360008a73ffffffffffffffffffffffffffffffffffffffff1673ffffffffffffffffffffffffffffffffffffffff168152602001908152602001600020819055505b5b5050505050505050565b6000601360009054906101000a900473ffffffffffffffffffffffffffffffffffffffff168073ffffffffffffffffffffffffffffffffffffffff163373ffffffffffffffffffffffffffffffffffffffff16141515612e97576040517f08c379a00000000000000000000000000000000000000000000000000000000081526004018080602001828103825260148152602001807f4f776e6572204e6f7420417574686f72697a656400000000000000000000000081525060200191505060405180910390fd5b601360009054906101000a900473ffffffffffffffffffffffffffffffffffffffff1673ffffffffffffffffffffffffffffffffffffffff163373ffffffffffffffffffffffffffffffffffffffff16141515612ef357600080fd5b82518451141515612f0357600080fd5b600091505b8351821015612f5657612f498483815181101515612f2257fe5b906020019060200201518484815181101515612f3a57fe5b906020019060200201516156bc565b8180600101925050612f08565b50505050565b601360009054906101000a900473ffffffffffffffffffffffffffffffffffffffff168073ffffffffffffffffffffffffffffffffffffffff163373ffffffffffffffffffffffffffffffffffffffff16141515613022576040517f08c379a00000000000000000000000000000000000000000000000000000000081526004018080602001828103825260148152602001807f4f776e6572204e6f7420417574686f72697a656400000000000000000000000081525060200191505060405180910390fd5b601360009054906101000a900473ffffffffffffffffffffffffffffffffffffffff1673ffffffffffffffffffffffffffffffffffffffff163373ffffffffffffffffffffffffffffffffffffffff1614151561307e57600080fd5b61308883836156bc565b505050565b600081565b6000601360009054906101000a900473ffffffffffffffffffffffffffffffffffffffff168073ffffffffffffffffffffffffffffffffffffffff163373ffffffffffffffffffffffffffffffffffffffff1614151561315a576040517f08c379a00000000000000000000000000000000000000000000000000000000081526004018080602001828103825260148152602001807f4f776e6572204e6f7420417574686f72697a656400000000000000000000000081525060200191505060405180910390fd5b60008311151561316957600080fd5b601e60003373ffffffffffffffffffffffffffffffffffffffff1673ffffffffffffffffffffffffffffffffffffffff1681526020019081526020016000205483111515156131b757600080fd5b33915061320c83601e60008573ffffffffffffffffffffffffffffffffffffffff1673ffffffffffffffffffffffffffffffffffffffff1681526020019081526020016000205461583790919063ffffffff16565b601e60008473ffffffffffffffffffffffffffffffffffffffff1673ffffffffffffffffffffffffffffffffffffffff168152602001908152602001600020819055506132648360185461583790919063ffffffff16565b6018819055507fcc16f5dbb4873280815c1ee09dbd06736cffcc184412cf7a71a0fdb75d397ca58284604051808373ffffffffffffffffffffffffffffffffffffffff1673ffffffffffffffffffffffffffffffffffffffff1681526020018281526020019250505060405180910390a1505050565b600080600760008460ff16815260200190815260200160002090508060050160009054906101000a900460ff16915050919050565b6000600160009054906101000a900473ffffffffffffffffffffffffffffffffffffffff168073ffffffffffffffffffffffffffffffffffffffff163373ffffffffffffffffffffffffffffffffffffffff161415156133d7576040517f08c379a00000000000000000000000000000000000000000000000000000000081526004018080602001828103825260148152602001807f4f776e6572204e6f7420417574686f72697a656400000000000000000000000081525060200191505060405180910390fd5b426005541115156133e757600080fd5b600454831115156133f757600080fd5b826005819055506001915050919050565b6000600960009054906101000a900473ffffffffffffffffffffffffffffffffffffffff168073ffffffffffffffffffffffffffffffffffffffff163373ffffffffffffffffffffffffffffffffffffffff161415156134d0576040517f08c379a00000000000000000000000000000000000000000000000000000000081526004018080602001828103825260148152602001807f4f776e6572204e6f7420417574686f72697a656400000000000000000000000081525060200191505060405180910390fd5b600115156134dd87614acd565b15151415156134eb57600080fd5b600c60008873ffffffffffffffffffffffffffffffffffffffff1673ffffffffffffffffffffffffffffffffffffffff1681526020019081526020016000209150600015158260040160019054906101000a900460ff161515141561364c57868260000160006101000a81548173ffffffffffffffffffffffffffffffffffffffff021916908373ffffffffffffffffffffffffffffffffffffffff160217905550858260010181905550848260020181905550838260030181905550828260040160006101000a81548160ff02191690831515021790555060018260040160016101000a81548160ff021916908315150217905550600d8790806001815401808255809150509060018203906000526020600020016000909192909190916101000a81548173ffffffffffffffffffffffffffffffffffffffff021916908373ffffffffffffffffffffffffffffffffffffffff1602179055505061368c565b6001151561365988614d3c565b151514151561366757600080fd5b8582600101600082825401925050819055508482600201819055508382600301819055505b50505050505050565b601a5481565b6000600e60009054906101000a900473ffffffffffffffffffffffffffffffffffffffff168073ffffffffffffffffffffffffffffffffffffffff163373ffffffffffffffffffffffffffffffffffffffff16141515613763576040517f08c379a00000000000000000000000000000000000000000000000000000000081526004018080602001828103825260148152602001807f4f776e6572204e6f7420417574686f72697a656400000000000000000000000081525060200191505060405180910390fd5b60011515613770876120bb565b151514151561377e57600080fd5b601160008873ffffffffffffffffffffffffffffffffffffffff1673ffffffffffffffffffffffffffffffffffffffff1681526020019081526020016000209150600015158260040160009054906101000a900460ff16151514156138df57868260000160006101000a81548173ffffffffffffffffffffffffffffffffffffffff021916908373ffffffffffffffffffffffffffffffffffffffff160217905550858260010181905550848260020181905550838260030181905550828260040160016101000a81548160ff02191690831515021790555060018260040160006101000a81548160ff02191690831515021790555060128790806001815401808255809150509060018203906000526020600020016000909192909190916101000a81548173ffffffffffffffffffffffffffffffffffffffff021916908373ffffffffffffffffffffffffffffffffffffffff1602179055505061392c565b600115156138ec88613ade565b15151415156138fa57600080fd5b6139118683600101546152fc90919063ffffffff16565b82600101819055508482600201819055508382600301819055505b50505050505050565b6000600d80549050905090565b620186a081565b6103e881565b6040805190810160405280600381526020017f312e30000000000000000000000000000000000000000000000000000000000081525081565b6000600c60008373ffffffffffffffffffffffffffffffffffffffff1673ffffffffffffffffffffffffffffffffffffffff168152602001908152602001600020905060008160040160006101000a81548160ff0219169083151502179055505050565b601360009054906101000a900473ffffffffffffffffffffffffffffffffffffffff168073ffffffffffffffffffffffffffffffffffffffff163373ffffffffffffffffffffffffffffffffffffffff16141515613ab2576040517f08c379a00000000000000000000000000000000000000000000000000000000081526004018080602001828103825260148152602001807f4f776e6572204e6f7420417574686f72697a656400000000000000000000000081525060200191505060405180910390fd5b81601c5414151515613ac357600080fd5b60185482101515613ad357600080fd5b81601c819055505050565b600080601160008473ffffffffffffffffffffffffffffffffffffffff1673ffffffffffffffffffffffffffffffffffffffff1681526020019081526020016000209050600115158160040160019054906101000a900460ff1615151415613b495760019150613b4e565b600091505b50919050565b6103e881565b60145481565b6000601e60008373ffffffffffffffffffffffffffffffffffffffff1673ffffffffffffffffffffffffffffffffffffffff168152602001908152602001600020549050919050565b600080601160008473ffffffffffffffffffffffffffffffffffffffff1673ffffffffffffffffffffffffffffffffffffffff1681526020019081526020016000209050600115158160040160009054906101000a900460ff161515141515613c1157600080fd5b8060010154915050919050565b602260009054906101000a900473ffffffffffffffffffffffffffffffffffffffff1681565b601360009054906101000a900473ffffffffffffffffffffffffffffffffffffffff168073ffffffffffffffffffffffffffffffffffffffff163373ffffffffffffffffffffffffffffffffffffffff16141515613d0a576040517f08c379a00000000000000000000000000000000000000000000000000000000081526004018080602001828103825260148152602001807f4f776e6572204e6f7420417574686f72697a656400000000000000000000000081525060200191505060405180910390fd5b82602160006101000a81548173ffffffffffffffffffffffffffffffffffffffff021916908373ffffffffffffffffffffffffffffffffffffffff16021790555081602260006101000a81548173ffffffffffffffffffffffffffffffffffffffff021916908373ffffffffffffffffffffffffffffffffffffffff16021790555082601f60006101000a81548173ffffffffffffffffffffffffffffffffffffffff021916908373ffffffffffffffffffffffffffffffffffffffff16021790555081602060006101000a81548173ffffffffffffffffffffffffffffffffffffffff021916908373ffffffffffffffffffffffffffffffffffffffff160217905550505050565b600081565b600160009054906101000a900473ffffffffffffffffffffffffffffffffffffffff168073ffffffffffffffffffffffffffffffffffffffff163373ffffffffffffffffffffffffffffffffffffffff16141515613ede576040517f08c379a00000000000000000000000000000000000000000000000000000000081526004018080602001828103825260148152602001807f4f776e6572204e6f7420417574686f72697a656400000000000000000000000081525060200191505060405180910390fd5b81600660006101000a81548160ff0219169083151502179055505050565b600660009054906101000a900460ff1681565b600080600e60009054906101000a900473ffffffffffffffffffffffffffffffffffffffff168073ffffffffffffffffffffffffffffffffffffffff163373ffffffffffffffffffffffffffffffffffffffff16141515613fd8576040517f08c379a00000000000000000000000000000000000000000000000000000000081526004018080602001828103825260148152602001807f4f776e6572204e6f7420417574686f72697a656400000000000000000000000081525060200191505060405180910390fd5b601160008573ffffffffffffffffffffffffffffffffffffffff1673ffffffffffffffffffffffffffffffffffffffff1681526020019081526020016000209150600115158260040160009054906101000a900460ff16151514151561403d57600080fd5b60008260040160016101000a81548160ff021916908315150217905550600192505050919050565b6103e881565b60165481565b73cf530e5b154eb28a379cf5774d5d15b04cf1042281565b600042905090565b600080600660019054906101000a900473ffffffffffffffffffffffffffffffffffffffff168073ffffffffffffffffffffffffffffffffffffffff163373ffffffffffffffffffffffffffffffffffffffff1614151561415a576040517f08c379a00000000000000000000000000000000000000000000000000000000081526004018080602001828103825260148152602001807f4f776e6572204e6f7420417574686f72697a656400000000000000000000000081525060200191505060405180910390fd5b600760008560ff1681526020019081526020016000209150600082600001541415151561418657600080fd5b600082600101541415151561419a57600080fd5b8482600001541080156141b05750848260010154115b156141be57600192506141c3565b600092505b505092915050565b600080600060011515601f60009054906101000a900473ffffffffffffffffffffffffffffffffffffffff1673ffffffffffffffffffffffffffffffffffffffff16634211241733426040518363ffffffff167c0100000000000000000000000000000000000000000000000000000000028152600401808373ffffffffffffffffffffffffffffffffffffffff1673ffffffffffffffffffffffffffffffffffffffff16815260200182815260200192505050602060405180830381600087803b15801561429957600080fd5b505af11580156142ad573d6000803e3d6000fd5b505050506040513d60208110156142c357600080fd5b810190808051906020019092919050505015151415156142e257600080fd5b60011515601f60009054906101000a900473ffffffffffffffffffffffffffffffffffffffff1673ffffffffffffffffffffffffffffffffffffffff16634211241787426040518363ffffffff167c0100000000000000000000000000000000000000000000000000000000028152600401808373ffffffffffffffffffffffffffffffffffffffff1673ffffffffffffffffffffffffffffffffffffffff16815260200182815260200192505050602060405180830381600087803b1580156143ab57600080fd5b505af11580156143bf573d6000803e3d6000fd5b505050506040513d60208110156143d557600080fd5b810190808051906020019092919050505015151415156143f457600080fd5b4291506000600381111561440457fe5b60ff16600060ff1614156147de57602060009054906101000a900473ffffffffffffffffffffffffffffffffffffffff1673ffffffffffffffffffffffffffffffffffffffff166364ae8fe33360006040518363ffffffff167c0100000000000000000000000000000000000000000000000000000000028152600401808373ffffffffffffffffffffffffffffffffffffffff1673ffffffffffffffffffffffffffffffffffffffff1681526020018260ff1660ff16815260200192505050602060405180830381600087803b1580156144de57600080fd5b505af11580156144f2573d6000803e3d6000fd5b505050506040513d602081101561450857600080fd5b810190808051906020019092919050505090508082101561476d5760011515602060009054906101000a900473ffffffffffffffffffffffffffffffffffffffff1673ffffffffffffffffffffffffffffffffffffffff1663083cd03033888660006040518563ffffffff167c0100000000000000000000000000000000000000000000000000000000028152600401808573ffffffffffffffffffffffffffffffffffffffff1673ffffffffffffffffffffffffffffffffffffffff1681526020018473ffffffffffffffffffffffffffffffffffffffff1673ffffffffffffffffffffffffffffffffffffffff1681526020018381526020018260ff1660ff168152602001945050505050602060405180830381600087803b15801561462f57600080fd5b505af1158015614643573d6000803e3d6000fd5b505050506040513d602081101561465957600080fd5b8101908080519060200190929190505050151514151561467857600080fd5b602060009054906101000a900473ffffffffffffffffffffffffffffffffffffffff1673ffffffffffffffffffffffffffffffffffffffff166394b1c8c386838760006040518563ffffffff167c0100000000000000000000000000000000000000000000000000000000028152600401808573ffffffffffffffffffffffffffffffffffffffff1673ffffffffffffffffffffffffffffffffffffffff1681526020018481526020018381526020018260ff1660ff168152602001945050505050600060405180830381600087803b15801561475457600080fd5b505af1158015614768573d6000803e3d6000fd5b505050505b61477785856153d6565b508473ffffffffffffffffffffffffffffffffffffffff163373ffffffffffffffffffffffffffffffffffffffff167fddf252ad1be2c89b69c2b068fc378daa952ba7f163c4a11628f55a4df523b3ef866040518082815260200191505060405180910390a35b505092915050565b6012818154811015156147f557fe5b906000526020600020016000915054906101000a900473ffffffffffffffffffffffffffffffffffffffff1681565b6000601280549050905090565b601d60009054906101000a900473ffffffffffffffffffffffffffffffffffffffff1681565b620186a081565b6040805190810160405280600981526020017f546f6b656e4e616d65000000000000000000000000000000000000000000000081525081565b6000600880549050905090565b600a5481565b6000601360009054906101000a900473ffffffffffffffffffffffffffffffffffffffff168073ffffffffffffffffffffffffffffffffffffffff163373ffffffffffffffffffffffffffffffffffffffff16141515614972576040517f08c379a00000000000000000000000000000000000000000000000000000000081526004018080602001828103825260148152602001807f4f776e6572204e6f7420417574686f72697a656400000000000000000000000081525060200191505060405180910390fd5b6201e2408311151561498357600080fd5b601654915050919050565b6203944781565b73cf530e5b154eb28a379cf5774d5d15b04cf1042281565b600081565b6000600660019054906101000a900473ffffffffffffffffffffffffffffffffffffffff168073ffffffffffffffffffffffffffffffffffffffff163373ffffffffffffffffffffffffffffffffffffffff16141515614a7a576040517f08c379a00000000000000000000000000000000000000000000000000000000081526004018080602001828103825260148152602001807f4f776e6572204e6f7420417574686f72697a656400000000000000000000000081525060200191505060405180910390fd5b600760008460ff168152602001908152602001600020915060008260050160006101000a81548160ff021916908315150217905550505050565b600f5481565b601d60149054906101000a900460ff1681565b6000600a54600b5411151515614ae257600080fd5b600a5482600b5401101515614af657600080fd5b81600b6000828254019250508190555060019050919050565b6000601360009054906101000a900473ffffffffffffffffffffffffffffffffffffffff168073ffffffffffffffffffffffffffffffffffffffff163373ffffffffffffffffffffffffffffffffffffffff16141515614bd7576040517f08c379a00000000000000000000000000000000000000000000000000000000081526004018080602001828103825260148152602001807f4f776e6572204e6f7420417574686f72697a656400000000000000000000000081525060200191505060405180910390fd5b602360008473ffffffffffffffffffffffffffffffffffffffff1673ffffffffffffffffffffffffffffffffffffffff16815260200190815260200160002054915050919050565b6201e24081565b60006001905092915050565b602160009054906101000a900473ffffffffffffffffffffffffffffffffffffffff1681565b601360009054906101000a900473ffffffffffffffffffffffffffffffffffffffff168073ffffffffffffffffffffffffffffffffffffffff163373ffffffffffffffffffffffffffffffffffffffff16141515614d1e576040517f08c379a00000000000000000000000000000000000000000000000000000000081526004018080602001828103825260148152602001807f4f776e6572204e6f7420417574686f72697a656400000000000000000000000081525060200191505060405180910390fd5b81601d60146101000a81548160ff0219169083151502179055505050565b600080600c60008473ffffffffffffffffffffffffffffffffffffffff1673ffffffffffffffffffffffffffffffffffffffff1681526020019081526020016000209050600115158160040160009054906101000a900460ff1615151415614da75760019150614dac565b600091505b50919050565b6201e24081565b600080600760008560ff1681526020019081526020016000209050806002015483111515614dea5760019150614def565b600091505b5092915050565b601360009054906101000a900473ffffffffffffffffffffffffffffffffffffffff168073ffffffffffffffffffffffffffffffffffffffff163373ffffffffffffffffffffffffffffffffffffffff16141515614ebc576040517f08c379a00000000000000000000000000000000000000000000000000000000081526004018080602001828103825260148152602001807f4f776e6572204e6f7420417574686f72697a656400000000000000000000000081525060200191505060405180910390fd5b81601760006101000a81548160ff0219169083151502179055505050565b600080600660019054906101000a900473ffffffffffffffffffffffffffffffffffffffff168073ffffffffffffffffffffffffffffffffffffffff163373ffffffffffffffffffffffffffffffffffffffff16141515614fa3576040517f08c379a00000000000000000000000000000000000000000000000000000000081526004018080602001828103825260148152602001807f4f776e6572204e6f7420417574686f72697a656400000000000000000000000081525060200191505060405180910390fd5b600760008660ff1681526020019081526020016000209150898260000181905550888260010181905550878260040181905550868260020181905550858260030181905550848260050160016101000a81548160ff021916908360ff160217905550838260050160006101000a81548160ff021916908315150217905550600885908060018154018082558091505090600182039060005260206000209060209182820401919006909192909190916101000a81548160ff021916908360ff16021790555050600192505050979650505050505050565b6000601360009054906101000a900473ffffffffffffffffffffffffffffffffffffffff168073ffffffffffffffffffffffffffffffffffffffff163373ffffffffffffffffffffffffffffffffffffffff16141515615142576040517f08c379a00000000000000000000000000000000000000000000000000000000081526004018080602001828103825260148152602001807f4f776e6572204e6f7420417574686f72697a656400000000000000000000000081525060200191505060405180910390fd5b6201e2408311151561515357600080fd5b6203944783111561517c576151756015546014546152fc90919063ffffffff16565b9150615182565b60145491505b50919050565b6000600454821015801561519d575060055482105b156151ab57600190506151b0565b600090505b919050565b6000601360009054906101000a900473ffffffffffffffffffffffffffffffffffffffff168073ffffffffffffffffffffffffffffffffffffffff163373ffffffffffffffffffffffffffffffffffffffff1614151561527d576040517f08c379a00000000000000000000000000000000000000000000000000000000081526004018080602001828103825260148152602001807f4f776e6572204e6f7420417574686f72697a656400000000000000000000000081525060200191505060405180910390fd5b601b5491505090565b600080600084141561529b57600091506152bd565b82840290508284828115156152ac57fe5b041415156152b957600080fd5b8091505b5092915050565b60008082848115156152d257fe5b04905082848115156152e057fe5b0681840201841415156152f257600080fd5b8091505092915050565b600080828401905083811015151561531357600080fd5b8091505092915050565b600080615396601e6000601360009054906101000a900473ffffffffffffffffffffffffffffffffffffffff1673ffffffffffffffffffffffffffffffffffffffff1673ffffffffffffffffffffffffffffffffffffffff1681526020019081526020016000205460185461583790919063ffffffff16565b9050601c5481111515156153a957600080fd5b601c546153bf84836152fc90919063ffffffff16565b111515156153cc57600080fd5b6001915050919050565b6000808373ffffffffffffffffffffffffffffffffffffffff16141515156153fd57600080fd5b60008211151561540c57600080fd5b8273ffffffffffffffffffffffffffffffffffffffff163373ffffffffffffffffffffffffffffffffffffffff161415151561544757600080fd5b81601e60003373ffffffffffffffffffffffffffffffffffffffff1673ffffffffffffffffffffffffffffffffffffffff168152602001908152602001600020541015151561549557600080fd5b601e60008473ffffffffffffffffffffffffffffffffffffffff1673ffffffffffffffffffffffffffffffffffffffff1681526020019081526020016000205482601e60008673ffffffffffffffffffffffffffffffffffffffff1673ffffffffffffffffffffffffffffffffffffffff168152602001908152602001600020540111151561552357600080fd5b61557582601e60003373ffffffffffffffffffffffffffffffffffffffff1673ffffffffffffffffffffffffffffffffffffffff1681526020019081526020016000205461583790919063ffffffff16565b601e60003373ffffffffffffffffffffffffffffffffffffffff1673ffffffffffffffffffffffffffffffffffffffff1681526020019081526020016000208190555061560a82601e60008673ffffffffffffffffffffffffffffffffffffffff1673ffffffffffffffffffffffffffffffffffffffff168152602001908152602001600020546152fc90919063ffffffff16565b601e60008573ffffffffffffffffffffffffffffffffffffffff1673ffffffffffffffffffffffffffffffffffffffff168152602001908152602001600020819055508273ffffffffffffffffffffffffffffffffffffffff163373ffffffffffffffffffffffffffffffffffffffff167fddf252ad1be2c89b69c2b068fc378daa952ba7f163c4a11628f55a4df523b3ef846040518082815260200191505060405180910390a36001905092915050565b61570e81601e60008573ffffffffffffffffffffffffffffffffffffffff1673ffffffffffffffffffffffffffffffffffffffff168152602001908152602001600020546152fc90919063ffffffff16565b601e60008473ffffffffffffffffffffffffffffffffffffffff1673ffffffffffffffffffffffffffffffffffffffff16815260200190815260200160002081905550615766816018546152fc90919063ffffffff16565b60188190555080601e60008473ffffffffffffffffffffffffffffffffffffffff1673ffffffffffffffffffffffffffffffffffffffff16815260200190815260200160002054101580156157bd57508060185410155b15156157c857600080fd5b7f0f6798a560793a54c3bcfe86a93cde1e73087d944c0ea20544137d41213968858282604051808373ffffffffffffffffffffffffffffffffffffffff1673ffffffffffffffffffffffffffffffffffffffff1681526020018281526020019250505060405180910390a15050565b600082821115151561584857600080fd5b8183039050929150505600a165627a7a7230582072cc6836e9dd72a678e3d8a05d906b015c6066a808086567afa2f836a4ef5a190029",
  "source": "\npragma solidity ^0.4.24;\n//pragma experimental \"v0.5.0\";\n\nimport \"./BrightCoinInvestorKYC.sol\";\nimport \"./BrightCoinTokenOwner.sol\";\nimport \"./BrightCoinERC20Contract.sol\";\nimport  \"./BrightCoinInvestorAccreditationCheck.sol\";\n\n//Rules for Accredited Investors\n/*\n This is special BrightCoinToken that will allow User to invest to Token Only after Proper Checks and Validation as provide by US Regulatories Authorities\n*/\n\n/*\n import all specific contract that will help in Validation \n\n multiSign\n Accridetion\n KYC\n TokenDistribution Details\n\n*/\n\ncontract BrightCoinRegulatedToken  is BrightCoinERC20 \n\n{\n\nBrightCoinInvestorKYC InvestorKYCInfo;\nBrightCoinInvestorAccreditationCheck AccreditationInfo;\naddress public BrightCoinInvestorKYCAddress; \naddress public BrightCoinInvestorAccreditationAddress; \nmapping(address => uint256) InvestorBalances;\nmapping(address => bool) CalculatetokenWithMailSalePeriod;\n\nconstructor() public {\n\n   \n\t\n}\n\nfunction GetCurrentTime() view public returns(uint256)\n{\n    return now;\n}\n\n//Calculate Token Amount to be Provided.   \nfunction calculateTokenmount()  private {\n  \n\n   require(InvestorKYCInfo.CheckKYCStatus(msg.sender,now) == true);\n    \n    //On the Basis of ICO type we will have checks for specific Investor\n   require(AccreditationInfo.checkInvestorValidity(msg.sender,now, ICOType) == true);\n    \n   require(msg.value > 0);\n   require (msg.value >= MinimumContributionPreSale);\n   require(msg.value <= MaximumContributionPreSale);\n\n   if(PreSaleOn)\n    {\n\n        require(inPreSalePeriod(now) == true); \n         uint256 newPurchaseRate  = purchaseRate.add((purchaseRate.mul(Discount)).div(100));\n         uint256 tokens = newPurchaseRate.mul(msg.value); \n         tokens.add(BonusAmountPreSale); \n\n         require(CheckIfHardcapAchived(tokens) == true);\n\n         InvestorBalances[msg.sender] = tokens;   \n          CalculatetokenWithMailSalePeriod[msg.sender] = false;\n\n    }\n    else  //MainSale\n    {\n      \n       uint256 mainSaleToken = purchaseRate.mul(msg.value);\n       require(CheckIfHardcapAchived(mainSaleToken) == true);\n       InvestorBalances[msg.sender] = mainSaleToken;  \n        CalculatetokenWithMailSalePeriod[msg.sender] = true;\n\n    }\n\n   \n  }\n  \n\nfunction GetTokenAmount(address addr) onlyTokenOwner(owner) view public returns(uint256)\n{\n    return InvestorBalances[addr];\n}\n\nfunction () external payable  \n{\n\n   require(isICOActive == true);\n\n    calculateTokenmount();\n   //Do not calculte anything here simply tranfer the money to the ower.\n\n   FundDepositAddress.transfer(msg.value); \n  \n}\n\n\n  function DistributeToken(address AddrOfInvestor, uint256 currenttime,uint256 expiryDateTime, uint8 MainSalePeriodIndex) onlyTokenOwner(owner) public\n  {\n\n      require(AddrOfInvestor != 0x0);\n      require(currenttime >0);\n      require(expiryDateTime > 0);\n\n       \n        if((MainSalePeriodIndex == 0) && (PreSaleOn == true))  //PreSale\n        {\n          \n        require(AccreditationInfo.checkInvestorValidity(AddrOfInvestor,currenttime,ICOType) == true);\n\n        uint256 tokens = InvestorBalances[AddrOfInvestor];\n\n        internaltransfer(AddrOfInvestor,tokens);\n\n         AccreditationInfo.SetLockingPeriodAndToken(AddrOfInvestor,expiryDateTime,tokens,ICOType); \n\n         InvestorBalances[AddrOfInvestor] = 0; //To avoid re-entrancy  \n            \n        }\n        else\n        {\n            //Calculate token amount\n            if(CheckIfMainSaleOn(MainSalePeriodIndex) == true)\n            {\n\n              require(CheckTokenPeriodSale(currenttime,MainSalePeriodIndex) == true);\n\n                uint256 bonusamount = GetBonusDetails(MainSalePeriodIndex);\n                uint256 FinalToken = InvestorBalances[AddrOfInvestor].add(bonusamount); \n                //Need to check whether Token amount is in the range of current Main sale Period \n                require(CheckMainSaleLimit(MainSalePeriodIndex,FinalToken) == true);\n               // require(CheckIfHardcapAchived(FinalToken) == true);\n                require(AccreditationInfo.checkInvestorValidity(AddrOfInvestor,currenttime,ICOType) == true);\n                AccreditationInfo.SetLockingPeriodAndToken(AddrOfInvestor,expiryDateTime,FinalToken,ICOType);\n\n                internaltransfer(AddrOfInvestor,FinalToken);\n\n                InvestorBalances[AddrOfInvestor] = 0; //To avoid re-entrancy\n             }              \n        }\n\n  }\n\n  \n\n  //This method will be called when investor  wants to tranfer token to other.  \nfunction transfer(address newInvestor, uint256 tokens) public returns (bool) \n  {     \n\n        \n     //check KYC info of both Investor and Token Provider\n     require(InvestorKYCInfo.CheckKYCStatus(msg.sender,now) == true); \n      require(InvestorKYCInfo.CheckKYCStatus(newInvestor,now) == true); \n\n\n      //check if locking period is expired or not \n\n     // uint256 currenttime = now + 1 years;\n     uint256 currenttime = now;\n\n      if(ICOType == uint8(BrightCoinICOType.RegD))\n      {\n\n        uint256 TokenLockExpiry =  AccreditationInfo.GetTokenLockExpiryDateTime(msg.sender,ICOType);\n        if(currenttime < TokenLockExpiry)  // then it can only transfer token to Accriteded Investor only\n        {\n          require(AccreditationInfo.checkBothInvestorValidity(msg.sender,newInvestor,currenttime, ICOType) == true); \n            AccreditationInfo.SetLockingPeriodAndToken(newInvestor,TokenLockExpiry,tokens,ICOType);\n            \n        }\n\n        internaltransfer(newInvestor,tokens);\n         emit Transfer(msg.sender, newInvestor, tokens);\n \n\n      }\n \n\n        \n  }\n  \n\nfunction setKYCAndAccridetionAddres(address _kyc, address _InvestorAcrridetion ) onlyTokenOwner(owner) public {\n\n\t\n\tBrightCoinInvestorKYCAddress = _kyc;\n\tBrightCoinInvestorAccreditationAddress = _InvestorAcrridetion;\n\n    InvestorKYCInfo = BrightCoinInvestorKYC(_kyc);\n    AccreditationInfo = BrightCoinInvestorAccreditationCheck(_InvestorAcrridetion);\n    \n    }\t\n\n\n    function GetCurrentKYCCount() view public  returns(uint256)\n    {\n\n    \treturn InvestorKYCInfo.GetKYCCount();\n    }\n\n\n}",
  "sourcePath": "/Users/sandeepkumar/BrightCoinContract/contracts/BrightCoinRegulatedToken.sol",
  "compiler": {
    "name": "solc",
    "version": "0.4.24+commit.e67f0147.Emscripten.clang"
  },
  "schemaVersion": "2.0.1",
  "updatedAt": "2018-09-06T06:25:58.256Z"
}