{
  "contractName": "BrightCoinAccreditionInvestor",
  "abi": [
    {
      "constant": true,
      "inputs": [
        {
          "name": "",
          "type": "uint256"
        }
      ],
      "name": "accreditedInvestors",
      "outputs": [
        {
          "name": "",
          "type": "address"
        }
      ],
      "payable": false,
      "stateMutability": "view",
      "type": "function"
    },
    {
      "constant": true,
      "inputs": [],
      "name": "TotalInvestmentCurrently",
      "outputs": [
        {
          "name": "",
          "type": "uint256"
        }
      ],
      "payable": false,
      "stateMutability": "view",
      "type": "function"
    },
    {
      "constant": true,
      "inputs": [],
      "name": "USAGeoLocation",
      "outputs": [
        {
          "name": "",
          "type": "uint256"
        }
      ],
      "payable": false,
      "stateMutability": "view",
      "type": "function"
    },
    {
      "inputs": [
        {
          "name": "_owner",
          "type": "address"
        }
      ],
      "payable": false,
      "stateMutability": "nonpayable",
      "type": "constructor"
    },
    {
      "constant": false,
      "inputs": [
        {
          "name": "Investoraddr",
          "type": "address"
        },
        {
          "name": "AccreditionStatus",
          "type": "bool"
        },
        {
          "name": "AccreditionExpiryDateTime",
          "type": "uint256"
        },
        {
          "name": "InvestorGeoLocation",
          "type": "uint256"
        },
        {
          "name": "ipfsHashRegDInvestor",
          "type": "string"
        }
      ],
      "name": "AddInvestorAccreditionDetails",
      "outputs": [],
      "payable": false,
      "stateMutability": "nonpayable",
      "type": "function"
    }
  ],
  "bytecode": "0x608060405234801561001057600080fd5b506040516020806105fc83398101806040528101908080519060200190929190505050336000806101000a81548173ffffffffffffffffffffffffffffffffffffffff021916908373ffffffffffffffffffffffffffffffffffffffff16021790555080600260006101000a81548173ffffffffffffffffffffffffffffffffffffffff021916908373ffffffffffffffffffffffffffffffffffffffff16021790555050610538806100c46000396000f300608060405260043610610062576000357c0100000000000000000000000000000000000000000000000000000000900463ffffffff16806319fd7e89146100675780632bf207da1461011057806366c3bd351461017d578063b4668f96146101a8575b600080fd5b34801561007357600080fd5b5061010e600480360381019080803573ffffffffffffffffffffffffffffffffffffffff1690602001909291908035151590602001909291908035906020019092919080359060200190929190803590602001908201803590602001908080601f01602080910402602001604051908101604052809392919081815260200183838082843782019150505050505091929192905050506101d3565b005b34801561011c57600080fd5b5061013b6004803603810190808035906020019092919050505061041e565b604051808273ffffffffffffffffffffffffffffffffffffffff1673ffffffffffffffffffffffffffffffffffffffff16815260200191505060405180910390f35b34801561018957600080fd5b5061019261045c565b6040518082815260200191505060405180910390f35b3480156101b457600080fd5b506101bd610462565b6040518082815260200191505060405180910390f35b6000600260009054906101000a900473ffffffffffffffffffffffffffffffffffffffff168073ffffffffffffffffffffffffffffffffffffffff163373ffffffffffffffffffffffffffffffffffffffff1614151561029b576040517f08c379a00000000000000000000000000000000000000000000000000000000081526004018080602001828103825260148152602001807f4f776e6572204e6f7420417574686f72697a656400000000000000000000000081525060200191505060405180910390fd5b60008773ffffffffffffffffffffffffffffffffffffffff16141515156102c157600080fd5b6000851115156102d057600080fd5b600360008873ffffffffffffffffffffffffffffffffffffffff1673ffffffffffffffffffffffffffffffffffffffff1681526020019081526020016000209150868260000160006101000a81548173ffffffffffffffffffffffffffffffffffffffff021916908373ffffffffffffffffffffffffffffffffffffffff160217905550858260000160146101000a81548160ff0219169083151502179055508482600101819055508382600401819055508282600501908051906020019061039a929190610467565b50600082600201819055506000826003018190555060048790806001815401808255809150509060018203906000526020600020016000909192909190916101000a81548173ffffffffffffffffffffffffffffffffffffffff021916908373ffffffffffffffffffffffffffffffffffffffff1602179055505050505050505050565b60048181548110151561042d57fe5b906000526020600020016000915054906101000a900473ffffffffffffffffffffffffffffffffffffffff1681565b60015481565b600181565b828054600181600116156101000203166002900490600052602060002090601f016020900481019282601f106104a857805160ff19168380011785556104d6565b828001600101855582156104d6579182015b828111156104d55782518255916020019190600101906104ba565b5b5090506104e391906104e7565b5090565b61050991905b808211156105055760008160009055506001016104ed565b5090565b905600a165627a7a72305820b46a6eeec076afbd7f9263e4017f18bd6f743424ced7733e7926fb2c7f2246a00029",
  "source": "/*\nReg D - \nFor USA citizens only. \nThese are for sale to accredited investors only .\nThere is a 1 year lockin period. \nThe only exception is that one accredited investor can sell to another accredited investor.\n*/\n\npragma solidity ^0.4.24;\nimport \"./BrightCoinTokenOwner.sol\";\nimport \"./SafeMath.sol\";\n\ncontract  BrightCoinAccreditionInvestor is BrightCoinTokenOwner\n{\n\nusing SafeMath for uint;\nuint256 public  TotalInvestmentCurrently;\nuint256 public constant USAGeoLocation = 1;\n\naddress owner;\nconstructor(address _owner) public\n{\n  owner = _owner;\n}\n\nstruct AccreditedInvestor\n{\n    address Investor;\n    bool    AccreditionStatus;\n    uint256 AccreditionExpiryDateTime;\n    uint256 lockInEndDate;\n    uint256 TokenPurchased;\n    uint256 InvestorGeoLocation;  //Must be USA Citizen Only in Case of RegDRegS Investment\n    string ipfsHashRegDInvestor; //It must contains the details of Investor\n       \n}\n\n     mapping(address => AccreditedInvestor) AccreditedInvestorDetails;\n     address[] public accreditedInvestors;\n\n     /* Function to Add Investor details*/\n     function  AddInvestorAccreditionDetails(address Investoraddr,bool AccreditionStatus,uint256 AccreditionExpiryDateTime,uint256 InvestorGeoLocation, string ipfsHashRegDInvestor )\n      onlyTokenOwner(owner) public {\n      \n      require(Investoraddr != 0x0);\n      require(AccreditionExpiryDateTime > 0);\n\n       AccreditedInvestor storage Investment = AccreditedInvestorDetails[Investoraddr];\n\n       Investment.Investor = Investoraddr;\n       Investment.AccreditionStatus = AccreditionStatus;\n       Investment.AccreditionExpiryDateTime = AccreditionExpiryDateTime;\n       Investment.InvestorGeoLocation = InvestorGeoLocation;\n       Investment.ipfsHashRegDInvestor = ipfsHashRegDInvestor;\n       Investment.lockInEndDate = 0;\n       Investment.TokenPurchased = 0;\n\n       accreditedInvestors.push(Investoraddr);\n}\n\n\n\n\n function GetGeoLocationAccreditedInvestor(address AccreditedInvestoraddr ) view internal returns(uint256)\n {\n      AccreditedInvestor storage structAccredited =  AccreditedInvestorDetails[AccreditedInvestoraddr];\n      return structAccredited.InvestorGeoLocation;\n }\n\n\n\n function CheckAccreditionStatus( address AccreditedInvestoraddr, uint256 currentdatetime)  view internal returns(bool)\n {\n\n    if((currentdatetime > 0) && (AccreditedInvestoraddr != 0x0))\n      {\n\n        AccreditedInvestor storage structAccredited =  AccreditedInvestorDetails[AccreditedInvestoraddr];\n        if((structAccredited.AccreditionExpiryDateTime > currentdatetime) && (structAccredited.AccreditionStatus == true))\n             return true;\n      }\n\n      return false;\n   \n }\n\n function SetLockingPeriodAccreditedInvestor(address structAccreditedInvestoraddr, uint256 expiryDateTime, uint256 tokenamount)  internal {\n\n  require(expiryDateTime > 0);\n  require(structAccreditedInvestoraddr != 0x0);\n\n  AccreditedInvestor storage structAccredited =  AccreditedInvestorDetails[structAccreditedInvestoraddr];\n\n  structAccredited.lockInEndDate =  expiryDateTime;\n  structAccredited.TokenPurchased  = structAccredited.TokenPurchased.add(tokenamount);\n  \n\n }\n\n function GetTokenLockExpiryDateTimeAccreditedInvestor(address structAccreditedInvestoraddr) view  internal  returns(uint256) {\n\n if(structAccreditedInvestoraddr != 0x0)\n {\n    AccreditedInvestor storage structAccredited =  AccreditedInvestorDetails[structAccreditedInvestoraddr];\n    return structAccredited.lockInEndDate;\n }\n return 0;\n \n }\n\n\n }\n",
  "sourcePath": "/Users/sandeepkumar/BrightCoinContract/contracts/BrightCoinAccreditionInvestor.sol",
  "compiler": {
    "name": "solc",
    "version": "0.4.24+commit.e67f0147.Emscripten.clang"
  },
  "schemaVersion": "2.0.1",
  "updatedAt": "2018-09-06T06:25:58.174Z"
}