{
  "contractName": "BrightCoinERC20",
  "abi": [
    {
      "constant": false,
      "inputs": [
        {
          "name": "startDateTimeStamp",
          "type": "uint256"
        }
      ],
      "name": "changeStartDate",
      "outputs": [
        {
          "name": "",
          "type": "bool"
        }
      ],
      "payable": false,
      "stateMutability": "nonpayable",
      "type": "function"
    },
    {
      "constant": true,
      "inputs": [
        {
          "name": "",
          "type": "uint256"
        }
      ],
      "name": "TeamTokenDetailsAddr",
      "outputs": [
        {
          "name": "",
          "type": "address"
        }
      ],
      "payable": false,
      "stateMutability": "view",
      "type": "function"
    },
    {
      "constant": false,
      "inputs": [
        {
          "name": "Tokenamount",
          "type": "uint256"
        }
      ],
      "name": "TokenAvailableForAdvisor",
      "outputs": [
        {
          "name": "",
          "type": "bool"
        }
      ],
      "payable": false,
      "stateMutability": "nonpayable",
      "type": "function"
    },
    {
      "constant": true,
      "inputs": [],
      "name": "currentAllocatedAdvisorToken",
      "outputs": [
        {
          "name": "",
          "type": "uint256"
        }
      ],
      "payable": false,
      "stateMutability": "view",
      "type": "function"
    },
    {
      "constant": true,
      "inputs": [],
      "name": "Tokensymbol",
      "outputs": [
        {
          "name": "",
          "type": "string"
        }
      ],
      "payable": false,
      "stateMutability": "view",
      "type": "function"
    },
    {
      "constant": true,
      "inputs": [
        {
          "name": "PeriodIndex",
          "type": "uint8"
        }
      ],
      "name": "GetBonusDetails",
      "outputs": [
        {
          "name": "",
          "type": "uint256"
        }
      ],
      "payable": false,
      "stateMutability": "view",
      "type": "function"
    },
    {
      "constant": true,
      "inputs": [
        {
          "name": "NewAdvisorAddr",
          "type": "address"
        }
      ],
      "name": "CheckTeamTokenAmount",
      "outputs": [
        {
          "name": "",
          "type": "uint256"
        }
      ],
      "payable": false,
      "stateMutability": "view",
      "type": "function"
    },
    {
      "constant": true,
      "inputs": [],
      "name": "RewardsBountyToken",
      "outputs": [
        {
          "name": "",
          "type": "uint256"
        }
      ],
      "payable": false,
      "stateMutability": "view",
      "type": "function"
    },
    {
      "constant": true,
      "inputs": [],
      "name": "InitialAllocatedTeamToken",
      "outputs": [
        {
          "name": "",
          "type": "uint256"
        }
      ],
      "payable": false,
      "stateMutability": "view",
      "type": "function"
    },
    {
      "constant": true,
      "inputs": [],
      "name": "decimals",
      "outputs": [
        {
          "name": "",
          "type": "uint256"
        }
      ],
      "payable": false,
      "stateMutability": "view",
      "type": "function"
    },
    {
      "constant": true,
      "inputs": [],
      "name": "initialSupply",
      "outputs": [
        {
          "name": "",
          "type": "uint256"
        }
      ],
      "payable": false,
      "stateMutability": "view",
      "type": "function"
    },
    {
      "constant": true,
      "inputs": [],
      "name": "BonusAmountPreSale",
      "outputs": [
        {
          "name": "",
          "type": "uint256"
        }
      ],
      "payable": false,
      "stateMutability": "view",
      "type": "function"
    },
    {
      "constant": true,
      "inputs": [
        {
          "name": "PeriodIndex",
          "type": "uint8"
        }
      ],
      "name": "CheckIfMainSaleOn",
      "outputs": [
        {
          "name": "",
          "type": "bool"
        }
      ],
      "payable": false,
      "stateMutability": "view",
      "type": "function"
    },
    {
      "constant": false,
      "inputs": [
        {
          "name": "endDateTimeStamp",
          "type": "uint256"
        }
      ],
      "name": "changeEndDate",
      "outputs": [
        {
          "name": "",
          "type": "bool"
        }
      ],
      "payable": false,
      "stateMutability": "nonpayable",
      "type": "function"
    },
    {
      "constant": false,
      "inputs": [
        {
          "name": "NewTeamAddr",
          "type": "address"
        },
        {
          "name": "Tokenamount",
          "type": "uint256"
        },
        {
          "name": "TokenLockStartDateTime",
          "type": "uint256"
        },
        {
          "name": "TokenLockEndDateTime",
          "type": "uint256"
        },
        {
          "name": "partofTeam",
          "type": "bool"
        }
      ],
      "name": "AddTeamInvestor",
      "outputs": [],
      "payable": false,
      "stateMutability": "nonpayable",
      "type": "function"
    },
    {
      "constant": true,
      "inputs": [],
      "name": "purchaseRate",
      "outputs": [
        {
          "name": "",
          "type": "uint256"
        }
      ],
      "payable": false,
      "stateMutability": "view",
      "type": "function"
    },
    {
      "constant": false,
      "inputs": [
        {
          "name": "NewAdvisor",
          "type": "address"
        },
        {
          "name": "Tokenamount",
          "type": "uint256"
        },
        {
          "name": "lockStartTime",
          "type": "uint256"
        },
        {
          "name": "LockExpiryTime",
          "type": "uint256"
        },
        {
          "name": "PartofTeam",
          "type": "bool"
        }
      ],
      "name": "AddAdvisor",
      "outputs": [],
      "payable": false,
      "stateMutability": "nonpayable",
      "type": "function"
    },
    {
      "constant": true,
      "inputs": [],
      "name": "TotalTeamnvestor",
      "outputs": [
        {
          "name": "",
          "type": "uint256"
        }
      ],
      "payable": false,
      "stateMutability": "view",
      "type": "function"
    },
    {
      "constant": true,
      "inputs": [],
      "name": "InitialAllocatedAdvisorToken",
      "outputs": [
        {
          "name": "",
          "type": "uint256"
        }
      ],
      "payable": false,
      "stateMutability": "view",
      "type": "function"
    },
    {
      "constant": true,
      "inputs": [],
      "name": "InitialCompanyHoldingValue",
      "outputs": [
        {
          "name": "",
          "type": "uint256"
        }
      ],
      "payable": false,
      "stateMutability": "view",
      "type": "function"
    },
    {
      "constant": true,
      "inputs": [],
      "name": "version",
      "outputs": [
        {
          "name": "",
          "type": "string"
        }
      ],
      "payable": false,
      "stateMutability": "view",
      "type": "function"
    },
    {
      "constant": false,
      "inputs": [
        {
          "name": "NewTeamAddr",
          "type": "address"
        }
      ],
      "name": "RemoveTeamFromFurtherInvestment",
      "outputs": [],
      "payable": false,
      "stateMutability": "nonpayable",
      "type": "function"
    },
    {
      "constant": true,
      "inputs": [
        {
          "name": "NewAdvisorAddr",
          "type": "address"
        }
      ],
      "name": "CheckIfAdvisorActive",
      "outputs": [
        {
          "name": "",
          "type": "bool"
        }
      ],
      "payable": false,
      "stateMutability": "view",
      "type": "function"
    },
    {
      "constant": true,
      "inputs": [],
      "name": "InitialRewardsBountyToken",
      "outputs": [
        {
          "name": "",
          "type": "uint256"
        }
      ],
      "payable": false,
      "stateMutability": "view",
      "type": "function"
    },
    {
      "constant": true,
      "inputs": [],
      "name": "FounderToken",
      "outputs": [
        {
          "name": "",
          "type": "uint256"
        }
      ],
      "payable": false,
      "stateMutability": "view",
      "type": "function"
    },
    {
      "constant": true,
      "inputs": [
        {
          "name": "NewAdvisorAddr",
          "type": "address"
        }
      ],
      "name": "CheckAdvisorTokenAmount",
      "outputs": [
        {
          "name": "",
          "type": "uint256"
        }
      ],
      "payable": false,
      "stateMutability": "view",
      "type": "function"
    },
    {
      "constant": true,
      "inputs": [],
      "name": "ICOType",
      "outputs": [
        {
          "name": "",
          "type": "uint8"
        }
      ],
      "payable": false,
      "stateMutability": "view",
      "type": "function"
    },
    {
      "constant": false,
      "inputs": [
        {
          "name": "presalestatus",
          "type": "bool"
        }
      ],
      "name": "changePresaleStatus",
      "outputs": [],
      "payable": false,
      "stateMutability": "nonpayable",
      "type": "function"
    },
    {
      "constant": true,
      "inputs": [],
      "name": "PreSaleOn",
      "outputs": [
        {
          "name": "",
          "type": "bool"
        }
      ],
      "payable": false,
      "stateMutability": "view",
      "type": "function"
    },
    {
      "constant": false,
      "inputs": [
        {
          "name": "NewAdvisorAddr",
          "type": "address"
        }
      ],
      "name": "RemoveAdvisorFromFurtherInvestment",
      "outputs": [
        {
          "name": "",
          "type": "bool"
        }
      ],
      "payable": false,
      "stateMutability": "nonpayable",
      "type": "function"
    },
    {
      "constant": true,
      "inputs": [],
      "name": "InitialFounderToken",
      "outputs": [
        {
          "name": "",
          "type": "uint256"
        }
      ],
      "payable": false,
      "stateMutability": "view",
      "type": "function"
    },
    {
      "constant": true,
      "inputs": [],
      "name": "CompanyHoldingValue",
      "outputs": [
        {
          "name": "",
          "type": "uint256"
        }
      ],
      "payable": false,
      "stateMutability": "view",
      "type": "function"
    },
    {
      "constant": true,
      "inputs": [],
      "name": "CompanyHoldingAddress",
      "outputs": [
        {
          "name": "",
          "type": "address"
        }
      ],
      "payable": false,
      "stateMutability": "view",
      "type": "function"
    },
    {
      "constant": true,
      "inputs": [
        {
          "name": "DateTimeStamp",
          "type": "uint256"
        },
        {
          "name": "PeriodIndex",
          "type": "uint8"
        }
      ],
      "name": "CheckTokenPeriodSale",
      "outputs": [
        {
          "name": "",
          "type": "bool"
        }
      ],
      "payable": false,
      "stateMutability": "view",
      "type": "function"
    },
    {
      "constant": true,
      "inputs": [
        {
          "name": "",
          "type": "uint256"
        }
      ],
      "name": "AdvisorDistributionAddr",
      "outputs": [
        {
          "name": "",
          "type": "address"
        }
      ],
      "payable": false,
      "stateMutability": "view",
      "type": "function"
    },
    {
      "constant": true,
      "inputs": [],
      "name": "TotalAdvisor",
      "outputs": [
        {
          "name": "",
          "type": "uint256"
        }
      ],
      "payable": false,
      "stateMutability": "view",
      "type": "function"
    },
    {
      "constant": true,
      "inputs": [],
      "name": "FundDepositAddress",
      "outputs": [
        {
          "name": "",
          "type": "address"
        }
      ],
      "payable": false,
      "stateMutability": "view",
      "type": "function"
    },
    {
      "constant": true,
      "inputs": [],
      "name": "maxCoinSoldDuringPresale",
      "outputs": [
        {
          "name": "",
          "type": "uint256"
        }
      ],
      "payable": false,
      "stateMutability": "view",
      "type": "function"
    },
    {
      "constant": true,
      "inputs": [],
      "name": "TokenName",
      "outputs": [
        {
          "name": "",
          "type": "string"
        }
      ],
      "payable": false,
      "stateMutability": "view",
      "type": "function"
    },
    {
      "constant": true,
      "inputs": [],
      "name": "MainSaleCount",
      "outputs": [
        {
          "name": "",
          "type": "uint256"
        }
      ],
      "payable": false,
      "stateMutability": "view",
      "type": "function"
    },
    {
      "constant": true,
      "inputs": [],
      "name": "TotalAllocatedTeamToken",
      "outputs": [
        {
          "name": "",
          "type": "uint256"
        }
      ],
      "payable": false,
      "stateMutability": "view",
      "type": "function"
    },
    {
      "constant": true,
      "inputs": [
        {
          "name": "currentdatetime",
          "type": "uint256"
        }
      ],
      "name": "ReleaseCompanyHoldingTokens",
      "outputs": [
        {
          "name": "",
          "type": "uint256"
        }
      ],
      "payable": false,
      "stateMutability": "view",
      "type": "function"
    },
    {
      "constant": true,
      "inputs": [],
      "name": "RewardBountylockinPeriod",
      "outputs": [
        {
          "name": "",
          "type": "uint256"
        }
      ],
      "payable": false,
      "stateMutability": "view",
      "type": "function"
    },
    {
      "constant": true,
      "inputs": [],
      "name": "FounderAddress",
      "outputs": [
        {
          "name": "",
          "type": "address"
        }
      ],
      "payable": false,
      "stateMutability": "view",
      "type": "function"
    },
    {
      "constant": true,
      "inputs": [],
      "name": "Discount",
      "outputs": [
        {
          "name": "",
          "type": "uint8"
        }
      ],
      "payable": false,
      "stateMutability": "view",
      "type": "function"
    },
    {
      "constant": false,
      "inputs": [
        {
          "name": "PeriodIndex",
          "type": "uint8"
        }
      ],
      "name": "EndMainSale",
      "outputs": [],
      "payable": false,
      "stateMutability": "nonpayable",
      "type": "function"
    },
    {
      "constant": true,
      "inputs": [],
      "name": "TotalAllocatedAdvisorToken",
      "outputs": [
        {
          "name": "",
          "type": "uint256"
        }
      ],
      "payable": false,
      "stateMutability": "view",
      "type": "function"
    },
    {
      "constant": true,
      "inputs": [],
      "name": "MintMoreTokens",
      "outputs": [
        {
          "name": "",
          "type": "bool"
        }
      ],
      "payable": false,
      "stateMutability": "view",
      "type": "function"
    },
    {
      "constant": false,
      "inputs": [
        {
          "name": "Tokenamount",
          "type": "uint256"
        }
      ],
      "name": "IsTokenAvailable",
      "outputs": [
        {
          "name": "",
          "type": "bool"
        }
      ],
      "payable": false,
      "stateMutability": "nonpayable",
      "type": "function"
    },
    {
      "constant": true,
      "inputs": [],
      "name": "FounderlockinPeriod",
      "outputs": [
        {
          "name": "",
          "type": "uint256"
        }
      ],
      "payable": false,
      "stateMutability": "view",
      "type": "function"
    },
    {
      "constant": true,
      "inputs": [
        {
          "name": "TeamAddr",
          "type": "address"
        }
      ],
      "name": "CheckIfTeamActive",
      "outputs": [
        {
          "name": "",
          "type": "bool"
        }
      ],
      "payable": false,
      "stateMutability": "view",
      "type": "function"
    },
    {
      "constant": true,
      "inputs": [],
      "name": "CompanyHoldinglockingPeriod",
      "outputs": [
        {
          "name": "",
          "type": "uint256"
        }
      ],
      "payable": false,
      "stateMutability": "view",
      "type": "function"
    },
    {
      "constant": false,
      "inputs": [
        {
          "name": "periodIndex",
          "type": "uint8"
        },
        {
          "name": "tokenamount",
          "type": "uint256"
        }
      ],
      "name": "CheckMainSaleLimit",
      "outputs": [
        {
          "name": "",
          "type": "bool"
        }
      ],
      "payable": false,
      "stateMutability": "nonpayable",
      "type": "function"
    },
    {
      "constant": false,
      "inputs": [
        {
          "name": "mainStartDate",
          "type": "uint256"
        },
        {
          "name": "mainSaleEndDate",
          "type": "uint256"
        },
        {
          "name": "TokenLockinPeriod",
          "type": "uint256"
        },
        {
          "name": "MaxCoinSold",
          "type": "uint256"
        },
        {
          "name": "BonusDuringMainsale",
          "type": "uint256"
        },
        {
          "name": "PeriodIndex",
          "type": "uint8"
        },
        {
          "name": "PeriodActive",
          "type": "bool"
        }
      ],
      "name": "AddMainSalePeriod",
      "outputs": [
        {
          "name": "",
          "type": "bool"
        }
      ],
      "payable": false,
      "stateMutability": "nonpayable",
      "type": "function"
    },
    {
      "constant": true,
      "inputs": [
        {
          "name": "currentdatetime",
          "type": "uint256"
        }
      ],
      "name": "ReleaseTokenToFounder",
      "outputs": [
        {
          "name": "",
          "type": "uint256"
        }
      ],
      "payable": false,
      "stateMutability": "view",
      "type": "function"
    },
    {
      "constant": true,
      "inputs": [
        {
          "name": "currenttime",
          "type": "uint256"
        }
      ],
      "name": "inPreSalePeriod",
      "outputs": [
        {
          "name": "",
          "type": "bool"
        }
      ],
      "payable": false,
      "stateMutability": "view",
      "type": "function"
    },
    {
      "inputs": [],
      "payable": false,
      "stateMutability": "nonpayable",
      "type": "constructor"
    },
    {
      "anonymous": false,
      "inputs": [
        {
          "indexed": true,
          "name": "from",
          "type": "address"
        },
        {
          "indexed": true,
          "name": "_to",
          "type": "address"
        },
        {
          "indexed": false,
          "name": "_value",
          "type": "uint256"
        }
      ],
      "name": "Transfer",
      "type": "event"
    },
    {
      "anonymous": false,
      "inputs": [
        {
          "indexed": true,
          "name": "owner",
          "type": "address"
        },
        {
          "indexed": true,
          "name": "_spender",
          "type": "address"
        },
        {
          "indexed": false,
          "name": "_value",
          "type": "uint256"
        }
      ],
      "name": "Approval",
      "type": "event"
    },
    {
      "anonymous": false,
      "inputs": [
        {
          "indexed": false,
          "name": "tokens",
          "type": "uint256"
        }
      ],
      "name": "PresaleFinalized",
      "type": "event"
    },
    {
      "anonymous": false,
      "inputs": [
        {
          "indexed": false,
          "name": "softcap",
          "type": "string"
        }
      ],
      "name": "ICOSoftCapReached",
      "type": "event"
    },
    {
      "anonymous": false,
      "inputs": [
        {
          "indexed": false,
          "name": "TokenSold",
          "type": "uint256"
        },
        {
          "indexed": false,
          "name": "str",
          "type": "string"
        }
      ],
      "name": "ICOSoftUnsuccessFull",
      "type": "event"
    },
    {
      "anonymous": false,
      "inputs": [
        {
          "indexed": false,
          "name": "addr",
          "type": "address"
        },
        {
          "indexed": false,
          "name": "tokens",
          "type": "uint256"
        }
      ],
      "name": "Burn",
      "type": "event"
    },
    {
      "anonymous": false,
      "inputs": [
        {
          "indexed": false,
          "name": "target",
          "type": "address"
        },
        {
          "indexed": false,
          "name": "mintedAmount",
          "type": "uint256"
        }
      ],
      "name": "Mint",
      "type": "event"
    },
    {
      "constant": false,
      "inputs": [
        {
          "name": "newRate",
          "type": "uint256"
        }
      ],
      "name": "setPurchaseRate",
      "outputs": [],
      "payable": false,
      "stateMutability": "nonpayable",
      "type": "function"
    },
    {
      "constant": false,
      "inputs": [
        {
          "name": "newSoftCap",
          "type": "uint256"
        }
      ],
      "name": "ChangeSoftCap",
      "outputs": [],
      "payable": false,
      "stateMutability": "nonpayable",
      "type": "function"
    },
    {
      "constant": false,
      "inputs": [
        {
          "name": "newHardCap",
          "type": "uint256"
        }
      ],
      "name": "ChangeHardCap",
      "outputs": [],
      "payable": false,
      "stateMutability": "nonpayable",
      "type": "function"
    },
    {
      "constant": true,
      "inputs": [],
      "name": "GetSoftCap",
      "outputs": [
        {
          "name": "",
          "type": "uint256"
        }
      ],
      "payable": false,
      "stateMutability": "view",
      "type": "function"
    },
    {
      "constant": true,
      "inputs": [],
      "name": "GetHardCap",
      "outputs": [
        {
          "name": "",
          "type": "uint256"
        }
      ],
      "payable": false,
      "stateMutability": "view",
      "type": "function"
    },
    {
      "constant": false,
      "inputs": [
        {
          "name": "NewFundDepositAddress",
          "type": "address"
        }
      ],
      "name": "ChangeFundDepositAddress",
      "outputs": [],
      "payable": false,
      "stateMutability": "nonpayable",
      "type": "function"
    },
    {
      "constant": false,
      "inputs": [
        {
          "name": "mintingOption",
          "type": "bool"
        }
      ],
      "name": "UpdateTokenMintingOption",
      "outputs": [],
      "payable": false,
      "stateMutability": "nonpayable",
      "type": "function"
    },
    {
      "constant": true,
      "inputs": [
        {
          "name": "who",
          "type": "address"
        }
      ],
      "name": "balanceOf",
      "outputs": [
        {
          "name": "",
          "type": "uint256"
        }
      ],
      "payable": false,
      "stateMutability": "view",
      "type": "function"
    },
    {
      "constant": true,
      "inputs": [],
      "name": "totalSupply",
      "outputs": [
        {
          "name": "",
          "type": "uint256"
        }
      ],
      "payable": false,
      "stateMutability": "view",
      "type": "function"
    },
    {
      "constant": false,
      "inputs": [
        {
          "name": "_from",
          "type": "address"
        },
        {
          "name": "_to",
          "type": "address"
        },
        {
          "name": "_value",
          "type": "uint256"
        }
      ],
      "name": "transferFrom",
      "outputs": [
        {
          "name": "success",
          "type": "bool"
        }
      ],
      "payable": false,
      "stateMutability": "nonpayable",
      "type": "function"
    },
    {
      "constant": false,
      "inputs": [
        {
          "name": "_spender",
          "type": "address"
        },
        {
          "name": "_value",
          "type": "uint256"
        }
      ],
      "name": "approve",
      "outputs": [
        {
          "name": "success",
          "type": "bool"
        }
      ],
      "payable": false,
      "stateMutability": "nonpayable",
      "type": "function"
    },
    {
      "constant": true,
      "inputs": [
        {
          "name": "_owner",
          "type": "address"
        },
        {
          "name": "_spender",
          "type": "address"
        }
      ],
      "name": "allowance",
      "outputs": [
        {
          "name": "",
          "type": "uint256"
        }
      ],
      "payable": false,
      "stateMutability": "view",
      "type": "function"
    },
    {
      "constant": false,
      "inputs": [
        {
          "name": "_to",
          "type": "address"
        },
        {
          "name": "_value",
          "type": "uint256"
        }
      ],
      "name": "mint",
      "outputs": [],
      "payable": false,
      "stateMutability": "nonpayable",
      "type": "function"
    },
    {
      "constant": false,
      "inputs": [
        {
          "name": "recipients",
          "type": "address[]"
        },
        {
          "name": "_values",
          "type": "uint256[]"
        }
      ],
      "name": "airdropMinting",
      "outputs": [],
      "payable": false,
      "stateMutability": "nonpayable",
      "type": "function"
    },
    {
      "constant": false,
      "inputs": [
        {
          "name": "_value",
          "type": "uint256"
        }
      ],
      "name": "burn",
      "outputs": [],
      "payable": false,
      "stateMutability": "nonpayable",
      "type": "function"
    },
    {
      "constant": false,
      "inputs": [
        {
          "name": "_status",
          "type": "bool"
        }
      ],
      "name": "StopICO",
      "outputs": [],
      "payable": false,
      "stateMutability": "nonpayable",
      "type": "function"
    }
  ],
  "bytecode": "0x60806040526706f05b59d3b200006002556801a055690d9db80000600355635b8e7168600455635d58d2066005556001600660006101000a81548160ff0219169083151502179055506000600b5560006010556001601760006101000a81548160ff02191690831515021790555060006019556103e8601a55620f4240601b55614e20601c5573403f4fedf6127f30e77ae8295dea47eea0832899601d60006101000a81548173ffffffffffffffffffffffffffffffffffffffff021916908373ffffffffffffffffffffffffffffffffffffffff1602179055506000601d60146101000a81548160ff02191690831515021790555034801561010157600080fd5b503333333333336000806101000a81548173ffffffffffffffffffffffffffffffffffffffff021916908373ffffffffffffffffffffffffffffffffffffffff16021790555080600160006101000a81548173ffffffffffffffffffffffffffffffffffffffff021916908373ffffffffffffffffffffffffffffffffffffffff1602179055505080600660016101000a81548173ffffffffffffffffffffffffffffffffffffffff021916908373ffffffffffffffffffffffffffffffffffffffff1602179055505080600960006101000a81548173ffffffffffffffffffffffffffffffffffffffff021916908373ffffffffffffffffffffffffffffffffffffffff1602179055505080600e60006101000a81548173ffffffffffffffffffffffffffffffffffffffff021916908373ffffffffffffffffffffffffffffffffffffffff1602179055505080601360006101000a81548173ffffffffffffffffffffffffffffffffffffffff021916908373ffffffffffffffffffffffffffffffffffffffff160217905550506012600a0a620186a0026018819055506012600a0a620186a002600a819055506012600a0a6103e8026014819055506012600a0a6103e8026015819055506012600a0a6103e8026016819055506012600a0a620186a002600f819055506012600a0a601c5402601c81905550601854601e60003373ffffffffffffffffffffffffffffffffffffffff1673ffffffffffffffffffffffffffffffffffffffff168152602001908152602001600020819055506000601981905550613b4d8061035a6000396000f30060806040526004361061034d576000357c0100000000000000000000000000000000000000000000000000000000900463ffffffff168062739f2a14610352578063024e99af14610397578063065e70dc146103c2578063095ea7b31461042f5780630a1f2a5f14610494578063108c7700146104d957806314c5640914610504578063174f8bdb1461059457806318160ddd146105d85780631d37c8a6146106035780631e9e3f97146106305780632385cf6414610687578063239bfb6e146106ca57806323b872dd146106f5578063272c25cf1461077a5780632fc272e1146107a7578063313ce567146107d2578063378dc3dc146107fd5780633ff00ba51461082857806340c10f19146108d1578063410116fb1461091e57806342966c681461094957806342aa9bb51461097657806345737b1e146109be5780634898011a14610a0357806348c26e2214610a705780634ae3403214610a9b5780634c3ed4e114610b085780634d0e87c614610b3357806354c15d5e14610b5e57806354fd4d5014610b89578063577ed9d214610c1957806360185f5614610c5c57806360f4608614610c89578063643092ae14610ce45780636d1a151314610d0f57806370a0823114610d3a5780637b758ef714610d915780639ca5d79f14610de85780639dd4826714610e195780639f648a9414610e485780639f7e3a7f14610e77578063a180218f14610ed2578063a240c60c14610efd578063a4876bc414610f28578063a63fb2d914610f7f578063aaeb4cb614610fd1578063b03fd1ba1461103e578063b2b67fa214611069578063b30f63da146110c0578063b6d7855a146110eb578063b8eb41641461117b578063bc305852146111a6578063be9aa287146111d1578063bed0b70c14611212578063bf63c6e91461123d578063c63ccb3b14611294578063c7e3cbff146112c5578063cc15c0f0146112f5578063cd6ce90c14611320578063d19babf41461134f578063d9d4568214611394578063dd62ed3e146113bf578063e43158be14611436578063e5ab9f7c14611465578063ea887bcb146114c0578063ede1c282146114eb578063f083efd71461153d578063f0b2d90d1461156c578063f1155016146115f2578063f569aed614611633578063fc42608514611678575b600080fd5b34801561035e57600080fd5b5061037d600480360381019080803590602001909291905050506116a3565b604051808215151515815260200191505060405180910390f35b3480156103a357600080fd5b506103ac61179c565b6040518082815260200191505060405180910390f35b3480156103ce57600080fd5b506103ed6004803603810190808035906020019092919050505061186d565b604051808273ffffffffffffffffffffffffffffffffffffffff1673ffffffffffffffffffffffffffffffffffffffff16815260200191505060405180910390f35b34801561043b57600080fd5b5061047a600480360381019080803573ffffffffffffffffffffffffffffffffffffffff169060200190929190803590602001909291905050506118ab565b604051808215151515815260200191505060405180910390f35b3480156104a057600080fd5b506104bf600480360381019080803590602001909291905050506118b7565b604051808215151515815260200191505060405180910390f35b3480156104e557600080fd5b506104ee611915565b6040518082815260200191505060405180910390f35b34801561051057600080fd5b5061051961191b565b6040518080602001828103825283818151815260200191508051906020019080838360005b8381101561055957808201518184015260208101905061053e565b50505050905090810190601f1680156105865780820380516001836020036101000a031916815260200191505b509250505060405180910390f35b3480156105a057600080fd5b506105c2600480360381019080803560ff169060200190929190505050611954565b6040518082815260200191505060405180910390f35b3480156105e457600080fd5b506105ed611a43565b6040518082815260200191505060405180910390f35b34801561060f57600080fd5b5061062e60048036038101908080359060200190929190505050611a4d565b005b34801561063c57600080fd5b50610671600480360381019080803573ffffffffffffffffffffffffffffffffffffffff169060200190929190505050611b2f565b6040518082815260200191505060405180910390f35b34801561069357600080fd5b506106c8600480360381019080803573ffffffffffffffffffffffffffffffffffffffff169060200190929190505050611b80565b005b3480156106d657600080fd5b506106df611ce8565b6040518082815260200191505060405180910390f35b34801561070157600080fd5b50610760600480360381019080803573ffffffffffffffffffffffffffffffffffffffff169060200190929190803573ffffffffffffffffffffffffffffffffffffffff16906020019092919080359060200190929190505050611cee565b604051808215151515815260200191505060405180910390f35b34801561078657600080fd5b506107a560048036038101908080359060200190929190505050611cfb565b005b3480156107b357600080fd5b506107bc611ded565b6040518082815260200191505060405180910390f35b3480156107de57600080fd5b506107e7611df4565b6040518082815260200191505060405180910390f35b34801561080957600080fd5b50610812611df9565b6040518082815260200191505060405180910390f35b34801561083457600080fd5b506108cf6004803603810190808035906020019082018035906020019080806020026020016040519081016040528093929190818152602001838360200280828437820191505050505050919291929080359060200190820180359060200190808060200260200160405190810160405280939291908181526020018383602002808284378201915050505050509192919290505050611e00565b005b3480156108dd57600080fd5b5061091c600480360381019080803573ffffffffffffffffffffffffffffffffffffffff16906020019092919080359060200190929190505050611f8d565b005b34801561092a57600080fd5b506109336120be565b6040518082815260200191505060405180910390f35b34801561095557600080fd5b50610974600480360381019080803590602001909291905050506120c3565b005b34801561098257600080fd5b506109a4600480360381019080803560ff16906020019092919050505061230b565b604051808215151515815260200191505060405180910390f35b3480156109ca57600080fd5b506109e960048036038101908080359060200190929190505050612340565b604051808215151515815260200191505060405180910390f35b348015610a0f57600080fd5b50610a6e600480360381019080803573ffffffffffffffffffffffffffffffffffffffff169060200190929190803590602001909291908035906020019092919080359060200190929190803515159060200190929190505050612439565b005b348015610a7c57600080fd5b50610a856126c6565b6040518082815260200191505060405180910390f35b348015610aa757600080fd5b50610b06600480360381019080803573ffffffffffffffffffffffffffffffffffffffff1690602001909291908035906020019092919080359060200190929190803590602001909291908035151590602001909291905050506126cc565b005b348015610b1457600080fd5b50610b1d612966565b6040518082815260200191505060405180910390f35b348015610b3f57600080fd5b50610b48612973565b6040518082815260200191505060405180910390f35b348015610b6a57600080fd5b50610b7361297a565b6040518082815260200191505060405180910390f35b348015610b9557600080fd5b50610b9e612980565b6040518080602001828103825283818151815260200191508051906020019080838360005b83811015610bde578082015181840152602081019050610bc3565b50505050905090810190601f168015610c0b5780820380516001836020036101000a031916815260200191505b509250505060405180910390f35b348015610c2557600080fd5b50610c5a600480360381019080803573ffffffffffffffffffffffffffffffffffffffff1690602001909291905050506129b9565b005b348015610c6857600080fd5b50610c8760048036038101908080359060200190929190505050612a1d565b005b348015610c9557600080fd5b50610cca600480360381019080803573ffffffffffffffffffffffffffffffffffffffff169060200190929190505050612b0f565b604051808215151515815260200191505060405180910390f35b348015610cf057600080fd5b50610cf9612b85565b6040518082815260200191505060405180910390f35b348015610d1b57600080fd5b50610d24612b8b565b6040518082815260200191505060405180910390f35b348015610d4657600080fd5b50610d7b600480360381019080803573ffffffffffffffffffffffffffffffffffffffff169060200190929190505050612b91565b6040518082815260200191505060405180910390f35b348015610d9d57600080fd5b50610dd2600480360381019080803573ffffffffffffffffffffffffffffffffffffffff169060200190929190505050612bda565b6040518082815260200191505060405180910390f35b348015610df457600080fd5b50610dfd612c4f565b604051808260ff1660ff16815260200191505060405180910390f35b348015610e2557600080fd5b50610e46600480360381019080803515159060200190929190505050612c54565b005b348015610e5457600080fd5b50610e5d612d38565b604051808215151515815260200191505060405180910390f35b348015610e8357600080fd5b50610eb8600480360381019080803573ffffffffffffffffffffffffffffffffffffffff169060200190929190505050612d4b565b604051808215151515815260200191505060405180910390f35b348015610ede57600080fd5b50610ee7612ea1565b6040518082815260200191505060405180910390f35b348015610f0957600080fd5b50610f12612ea7565b6040518082815260200191505060405180910390f35b348015610f3457600080fd5b50610f3d612ead565b604051808273ffffffffffffffffffffffffffffffffffffffff1673ffffffffffffffffffffffffffffffffffffffff16815260200191505060405180910390f35b348015610f8b57600080fd5b50610fb760048036038101908080359060200190929190803560ff169060200190929190505050612ec5565b604051808215151515815260200191505060405180910390f35b348015610fdd57600080fd5b50610ffc60048036038101908080359060200190929190505050612fff565b604051808273ffffffffffffffffffffffffffffffffffffffff1673ffffffffffffffffffffffffffffffffffffffff16815260200191505060405180910390f35b34801561104a57600080fd5b5061105361303d565b6040518082815260200191505060405180910390f35b34801561107557600080fd5b5061107e61304a565b604051808273ffffffffffffffffffffffffffffffffffffffff1673ffffffffffffffffffffffffffffffffffffffff16815260200191505060405180910390f35b3480156110cc57600080fd5b506110d5613070565b6040518082815260200191505060405180910390f35b3480156110f757600080fd5b50611100613077565b6040518080602001828103825283818151815260200191508051906020019080838360005b83811015611140578082015181840152602081019050611125565b50505050905090810190601f16801561116d5780820380516001836020036101000a031916815260200191505b509250505060405180910390f35b34801561118757600080fd5b506111906130b0565b6040518082815260200191505060405180910390f35b3480156111b257600080fd5b506111bb6130bd565b6040518082815260200191505060405180910390f35b3480156111dd57600080fd5b506111fc600480360381019080803590602001909291905050506130c3565b6040518082815260200191505060405180910390f35b34801561121e57600080fd5b506112276131a7565b6040518082815260200191505060405180910390f35b34801561124957600080fd5b506112526131ae565b604051808273ffffffffffffffffffffffffffffffffffffffff1673ffffffffffffffffffffffffffffffffffffffff16815260200191505060405180910390f35b3480156112a057600080fd5b506112a96131c6565b604051808260ff1660ff16815260200191505060405180910390f35b3480156112d157600080fd5b506112f3600480360381019080803560ff1690602001909291905050506131cb565b005b34801561130157600080fd5b5061130a6132cd565b6040518082815260200191505060405180910390f35b34801561132c57600080fd5b506113356132d3565b604051808215151515815260200191505060405180910390f35b34801561135b57600080fd5b5061137a600480360381019080803590602001909291905050506132e6565b604051808215151515815260200191505060405180910390f35b3480156113a057600080fd5b506113a9613328565b6040518082815260200191505060405180910390f35b3480156113cb57600080fd5b50611420600480360381019080803573ffffffffffffffffffffffffffffffffffffffff169060200190929190803573ffffffffffffffffffffffffffffffffffffffff16906020019092919050505061332f565b6040518082815260200191505060405180910390f35b34801561144257600080fd5b5061146360048036038101908080351515906020019092919050505061333b565b005b34801561147157600080fd5b506114a6600480360381019080803573ffffffffffffffffffffffffffffffffffffffff16906020019092919050505061341f565b604051808215151515815260200191505060405180910390f35b3480156114cc57600080fd5b506114d5613495565b6040518082815260200191505060405180910390f35b3480156114f757600080fd5b50611523600480360381019080803560ff1690602001909291908035906020019092919050505061349c565b604051808215151515815260200191505060405180910390f35b34801561154957600080fd5b5061156a6004803603810190808035151590602001909291905050506134d9565b005b34801561157857600080fd5b506115d86004803603810190808035906020019092919080359060200190929190803590602001909291908035906020019092919080359060200190929190803560ff1690602001909291908035151590602001909291905050506135bd565b604051808215151515815260200191505060405180910390f35b3480156115fe57600080fd5b5061161d6004803603810190808035906020019092919050505061375d565b6040518082815260200191505060405180910390f35b34801561163f57600080fd5b5061165e6004803603810190808035906020019092919050505061386b565b604051808215151515815260200191505060405180910390f35b34801561168457600080fd5b5061168d613898565b6040518082815260200191505060405180910390f35b6000600160009054906101000a900473ffffffffffffffffffffffffffffffffffffffff168073ffffffffffffffffffffffffffffffffffffffff163373ffffffffffffffffffffffffffffffffffffffff1614151561176b576040517f08c379a00000000000000000000000000000000000000000000000000000000081526004018080602001828103825260148152602001807f4f776e6572204e6f7420417574686f72697a656400000000000000000000000081525060200191505060405180910390fd5b4260045411151561177b57600080fd5b6005548310151561178b57600080fd5b826004819055506001915050919050565b6000601360009054906101000a900473ffffffffffffffffffffffffffffffffffffffff168073ffffffffffffffffffffffffffffffffffffffff163373ffffffffffffffffffffffffffffffffffffffff16141515611864576040517f08c379a00000000000000000000000000000000000000000000000000000000081526004018080602001828103825260148152602001807f4f776e6572204e6f7420417574686f72697a656400000000000000000000000081525060200191505060405180910390fd5b601c5491505090565b600d8181548110151561187c57fe5b906000526020600020016000915054906101000a900473ffffffffffffffffffffffffffffffffffffffff1681565b60006001905092915050565b6000600f54601054111515156118cc57600080fd5b600f546118e48360105461396990919063ffffffff16565b111515156118f157600080fd5b6119068260105461396990919063ffffffff16565b60108190555060019050919050565b60105481565b6040805190810160405280600381526020017f414243000000000000000000000000000000000000000000000000000000000081525081565b600080600660019054906101000a900473ffffffffffffffffffffffffffffffffffffffff168073ffffffffffffffffffffffffffffffffffffffff163373ffffffffffffffffffffffffffffffffffffffff16141515611a1d576040517f08c379a00000000000000000000000000000000000000000000000000000000081526004018080602001828103825260148152602001807f4f776e6572204e6f7420417574686f72697a656400000000000000000000000081525060200191505060405180910390fd5b600760008560ff1681526020019081526020016000209150816003015492505050919050565b6000601854905090565b601360009054906101000a900473ffffffffffffffffffffffffffffffffffffffff168073ffffffffffffffffffffffffffffffffffffffff163373ffffffffffffffffffffffffffffffffffffffff16141515611b13576040517f08c379a00000000000000000000000000000000000000000000000000000000081526004018080602001828103825260148152602001807f4f776e6572204e6f7420417574686f72697a656400000000000000000000000081525060200191505060405180910390fd5b81601a5414151515611b2457600080fd5b81601a819055505050565b600080600c60008473ffffffffffffffffffffffffffffffffffffffff1673ffffffffffffffffffffffffffffffffffffffff16815260200190815260200160002090508060010154915050919050565b601360009054906101000a900473ffffffffffffffffffffffffffffffffffffffff168073ffffffffffffffffffffffffffffffffffffffff163373ffffffffffffffffffffffffffffffffffffffff16141515611c46576040517f08c379a00000000000000000000000000000000000000000000000000000000081526004018080602001828103825260148152602001807f4f776e6572204e6f7420417574686f72697a656400000000000000000000000081525060200191505060405180910390fd5b8173ffffffffffffffffffffffffffffffffffffffff16601d60009054906101000a900473ffffffffffffffffffffffffffffffffffffffff1673ffffffffffffffffffffffffffffffffffffffff1614151515611ca357600080fd5b81601d60006101000a81548173ffffffffffffffffffffffffffffffffffffffff021916908373ffffffffffffffffffffffffffffffffffffffff1602179055505050565b60155481565b6000600190509392505050565b601360009054906101000a900473ffffffffffffffffffffffffffffffffffffffff168073ffffffffffffffffffffffffffffffffffffffff163373ffffffffffffffffffffffffffffffffffffffff16141515611dc1576040517f08c379a00000000000000000000000000000000000000000000000000000000081526004018080602001828103825260148152602001807f4f776e6572204e6f7420417574686f72697a656400000000000000000000000081525060200191505060405180910390fd5b81601b5414151515611dd257600080fd5b60185482101515611de257600080fd5b81601b819055505050565b620186a081565b601281565b620186a081565b6000601360009054906101000a900473ffffffffffffffffffffffffffffffffffffffff168073ffffffffffffffffffffffffffffffffffffffff163373ffffffffffffffffffffffffffffffffffffffff16141515611ec8576040517f08c379a00000000000000000000000000000000000000000000000000000000081526004018080602001828103825260148152602001807f4f776e6572204e6f7420417574686f72697a656400000000000000000000000081525060200191505060405180910390fd5b601360009054906101000a900473ffffffffffffffffffffffffffffffffffffffff1673ffffffffffffffffffffffffffffffffffffffff163373ffffffffffffffffffffffffffffffffffffffff16141515611f2457600080fd5b82518451141515611f3457600080fd5b600091505b8351821015611f8757611f7a8483815181101515611f5357fe5b906020019060200201518484815181101515611f6b57fe5b9060200190602002015161398a565b8180600101925050611f39565b50505050565b601360009054906101000a900473ffffffffffffffffffffffffffffffffffffffff168073ffffffffffffffffffffffffffffffffffffffff163373ffffffffffffffffffffffffffffffffffffffff16141515612053576040517f08c379a00000000000000000000000000000000000000000000000000000000081526004018080602001828103825260148152602001807f4f776e6572204e6f7420417574686f72697a656400000000000000000000000081525060200191505060405180910390fd5b601360009054906101000a900473ffffffffffffffffffffffffffffffffffffffff1673ffffffffffffffffffffffffffffffffffffffff163373ffffffffffffffffffffffffffffffffffffffff161415156120af57600080fd5b6120b9838361398a565b505050565b600081565b6000601360009054906101000a900473ffffffffffffffffffffffffffffffffffffffff168073ffffffffffffffffffffffffffffffffffffffff163373ffffffffffffffffffffffffffffffffffffffff1614151561218b576040517f08c379a00000000000000000000000000000000000000000000000000000000081526004018080602001828103825260148152602001807f4f776e6572204e6f7420417574686f72697a656400000000000000000000000081525060200191505060405180910390fd5b60008311151561219a57600080fd5b601e60003373ffffffffffffffffffffffffffffffffffffffff1673ffffffffffffffffffffffffffffffffffffffff1681526020019081526020016000205483111515156121e857600080fd5b33915061223d83601e60008573ffffffffffffffffffffffffffffffffffffffff1673ffffffffffffffffffffffffffffffffffffffff16815260200190815260200160002054613b0590919063ffffffff16565b601e60008473ffffffffffffffffffffffffffffffffffffffff1673ffffffffffffffffffffffffffffffffffffffff1681526020019081526020016000208190555061229583601854613b0590919063ffffffff16565b6018819055507fcc16f5dbb4873280815c1ee09dbd06736cffcc184412cf7a71a0fdb75d397ca58284604051808373ffffffffffffffffffffffffffffffffffffffff1673ffffffffffffffffffffffffffffffffffffffff1681526020018281526020019250505060405180910390a1505050565b600080600760008460ff16815260200190815260200160002090508060050160009054906101000a900460ff16915050919050565b6000600160009054906101000a900473ffffffffffffffffffffffffffffffffffffffff168073ffffffffffffffffffffffffffffffffffffffff163373ffffffffffffffffffffffffffffffffffffffff16141515612408576040517f08c379a00000000000000000000000000000000000000000000000000000000081526004018080602001828103825260148152602001807f4f776e6572204e6f7420417574686f72697a656400000000000000000000000081525060200191505060405180910390fd5b4260055411151561241857600080fd5b6004548311151561242857600080fd5b826005819055506001915050919050565b6000600960009054906101000a900473ffffffffffffffffffffffffffffffffffffffff168073ffffffffffffffffffffffffffffffffffffffff163373ffffffffffffffffffffffffffffffffffffffff16141515612501576040517f08c379a00000000000000000000000000000000000000000000000000000000081526004018080602001828103825260148152602001807f4f776e6572204e6f7420417574686f72697a656400000000000000000000000081525060200191505060405180910390fd5b6001151561250e876132e6565b151514151561251c57600080fd5b600c60008873ffffffffffffffffffffffffffffffffffffffff1673ffffffffffffffffffffffffffffffffffffffff1681526020019081526020016000209150600015158260040160019054906101000a900460ff161515141561267d57868260000160006101000a81548173ffffffffffffffffffffffffffffffffffffffff021916908373ffffffffffffffffffffffffffffffffffffffff160217905550858260010181905550848260020181905550838260030181905550828260040160006101000a81548160ff02191690831515021790555060018260040160016101000a81548160ff021916908315150217905550600d8790806001815401808255809150509060018203906000526020600020016000909192909190916101000a81548173ffffffffffffffffffffffffffffffffffffffff021916908373ffffffffffffffffffffffffffffffffffffffff160217905550506126bd565b6001151561268a8861341f565b151514151561269857600080fd5b8582600101600082825401925050819055508482600201819055508382600301819055505b50505050505050565b601a5481565b6000600e60009054906101000a900473ffffffffffffffffffffffffffffffffffffffff168073ffffffffffffffffffffffffffffffffffffffff163373ffffffffffffffffffffffffffffffffffffffff16141515612794576040517f08c379a00000000000000000000000000000000000000000000000000000000081526004018080602001828103825260148152602001807f4f776e6572204e6f7420417574686f72697a656400000000000000000000000081525060200191505060405180910390fd5b600115156127a1876118b7565b15151415156127af57600080fd5b601160008873ffffffffffffffffffffffffffffffffffffffff1673ffffffffffffffffffffffffffffffffffffffff1681526020019081526020016000209150600015158260040160009054906101000a900460ff161515141561291057868260000160006101000a81548173ffffffffffffffffffffffffffffffffffffffff021916908373ffffffffffffffffffffffffffffffffffffffff160217905550858260010181905550848260020181905550838260030181905550828260040160016101000a81548160ff02191690831515021790555060018260040160006101000a81548160ff02191690831515021790555060128790806001815401808255809150509060018203906000526020600020016000909192909190916101000a81548173ffffffffffffffffffffffffffffffffffffffff021916908373ffffffffffffffffffffffffffffffffffffffff1602179055505061295d565b6001151561291d88612b0f565b151514151561292b57600080fd5b61294286836001015461396990919063ffffffff16565b82600101819055508482600201819055508382600301819055505b50505050505050565b6000600d80549050905090565b620186a081565b6103e881565b6040805190810160405280600381526020017f312e30000000000000000000000000000000000000000000000000000000000081525081565b6000600c60008373ffffffffffffffffffffffffffffffffffffffff1673ffffffffffffffffffffffffffffffffffffffff168152602001908152602001600020905060008160040160006101000a81548160ff0219169083151502179055505050565b601360009054906101000a900473ffffffffffffffffffffffffffffffffffffffff168073ffffffffffffffffffffffffffffffffffffffff163373ffffffffffffffffffffffffffffffffffffffff16141515612ae3576040517f08c379a00000000000000000000000000000000000000000000000000000000081526004018080602001828103825260148152602001807f4f776e6572204e6f7420417574686f72697a656400000000000000000000000081525060200191505060405180910390fd5b81601c5414151515612af457600080fd5b60185482101515612b0457600080fd5b81601c819055505050565b600080601160008473ffffffffffffffffffffffffffffffffffffffff1673ffffffffffffffffffffffffffffffffffffffff1681526020019081526020016000209050600115158160040160019054906101000a900460ff1615151415612b7a5760019150612b7f565b600091505b50919050565b6103e881565b60145481565b6000601e60008373ffffffffffffffffffffffffffffffffffffffff1673ffffffffffffffffffffffffffffffffffffffff168152602001908152602001600020549050919050565b600080601160008473ffffffffffffffffffffffffffffffffffffffff1673ffffffffffffffffffffffffffffffffffffffff1681526020019081526020016000209050600115158160040160009054906101000a900460ff161515141515612c4257600080fd5b8060010154915050919050565b600081565b600160009054906101000a900473ffffffffffffffffffffffffffffffffffffffff168073ffffffffffffffffffffffffffffffffffffffff163373ffffffffffffffffffffffffffffffffffffffff16141515612d1a576040517f08c379a00000000000000000000000000000000000000000000000000000000081526004018080602001828103825260148152602001807f4f776e6572204e6f7420417574686f72697a656400000000000000000000000081525060200191505060405180910390fd5b81600660006101000a81548160ff0219169083151502179055505050565b600660009054906101000a900460ff1681565b600080600e60009054906101000a900473ffffffffffffffffffffffffffffffffffffffff168073ffffffffffffffffffffffffffffffffffffffff163373ffffffffffffffffffffffffffffffffffffffff16141515612e14576040517f08c379a00000000000000000000000000000000000000000000000000000000081526004018080602001828103825260148152602001807f4f776e6572204e6f7420417574686f72697a656400000000000000000000000081525060200191505060405180910390fd5b601160008573ffffffffffffffffffffffffffffffffffffffff1673ffffffffffffffffffffffffffffffffffffffff1681526020019081526020016000209150600115158260040160009054906101000a900460ff161515141515612e7957600080fd5b60008260040160016101000a81548160ff021916908315150217905550600192505050919050565b6103e881565b60165481565b73cf530e5b154eb28a379cf5774d5d15b04cf1042281565b600080600660019054906101000a900473ffffffffffffffffffffffffffffffffffffffff168073ffffffffffffffffffffffffffffffffffffffff163373ffffffffffffffffffffffffffffffffffffffff16141515612f8e576040517f08c379a00000000000000000000000000000000000000000000000000000000081526004018080602001828103825260148152602001807f4f776e6572204e6f7420417574686f72697a656400000000000000000000000081525060200191505060405180910390fd5b600760008560ff16815260200190815260200160002091506000826000015414151515612fba57600080fd5b6000826001015414151515612fce57600080fd5b848260000154108015612fe45750848260010154115b15612ff25760019250612ff7565b600092505b505092915050565b60128181548110151561300e57fe5b906000526020600020016000915054906101000a900473ffffffffffffffffffffffffffffffffffffffff1681565b6000601280549050905090565b601d60009054906101000a900473ffffffffffffffffffffffffffffffffffffffff1681565b620186a081565b6040805190810160405280600981526020017f546f6b656e4e616d65000000000000000000000000000000000000000000000081525081565b6000600880549050905090565b600a5481565b6000601360009054906101000a900473ffffffffffffffffffffffffffffffffffffffff168073ffffffffffffffffffffffffffffffffffffffff163373ffffffffffffffffffffffffffffffffffffffff1614151561318b576040517f08c379a00000000000000000000000000000000000000000000000000000000081526004018080602001828103825260148152602001807f4f776e6572204e6f7420417574686f72697a656400000000000000000000000081525060200191505060405180910390fd5b6201e2408311151561319c57600080fd5b601654915050919050565b6203944781565b73cf530e5b154eb28a379cf5774d5d15b04cf1042281565b600081565b6000600660019054906101000a900473ffffffffffffffffffffffffffffffffffffffff168073ffffffffffffffffffffffffffffffffffffffff163373ffffffffffffffffffffffffffffffffffffffff16141515613293576040517f08c379a00000000000000000000000000000000000000000000000000000000081526004018080602001828103825260148152602001807f4f776e6572204e6f7420417574686f72697a656400000000000000000000000081525060200191505060405180910390fd5b600760008460ff168152602001908152602001600020915060008260050160006101000a81548160ff021916908315150217905550505050565b600f5481565b601d60149054906101000a900460ff1681565b6000600a54600b54111515156132fb57600080fd5b600a5482600b540110151561330f57600080fd5b81600b6000828254019250508190555060019050919050565b6201e24081565b60006001905092915050565b601360009054906101000a900473ffffffffffffffffffffffffffffffffffffffff168073ffffffffffffffffffffffffffffffffffffffff163373ffffffffffffffffffffffffffffffffffffffff16141515613401576040517f08c379a00000000000000000000000000000000000000000000000000000000081526004018080602001828103825260148152602001807f4f776e6572204e6f7420417574686f72697a656400000000000000000000000081525060200191505060405180910390fd5b81601d60146101000a81548160ff0219169083151502179055505050565b600080600c60008473ffffffffffffffffffffffffffffffffffffffff1673ffffffffffffffffffffffffffffffffffffffff1681526020019081526020016000209050600115158160040160009054906101000a900460ff161515141561348a576001915061348f565b600091505b50919050565b6201e24081565b600080600760008560ff16815260200190815260200160002090508060020154831115156134cd57600191506134d2565b600091505b5092915050565b601360009054906101000a900473ffffffffffffffffffffffffffffffffffffffff168073ffffffffffffffffffffffffffffffffffffffff163373ffffffffffffffffffffffffffffffffffffffff1614151561359f576040517f08c379a00000000000000000000000000000000000000000000000000000000081526004018080602001828103825260148152602001807f4f776e6572204e6f7420417574686f72697a656400000000000000000000000081525060200191505060405180910390fd5b81601760006101000a81548160ff0219169083151502179055505050565b600080600660019054906101000a900473ffffffffffffffffffffffffffffffffffffffff168073ffffffffffffffffffffffffffffffffffffffff163373ffffffffffffffffffffffffffffffffffffffff16141515613686576040517f08c379a00000000000000000000000000000000000000000000000000000000081526004018080602001828103825260148152602001807f4f776e6572204e6f7420417574686f72697a656400000000000000000000000081525060200191505060405180910390fd5b600760008660ff1681526020019081526020016000209150898260000181905550888260010181905550878260040181905550868260020181905550858260030181905550848260050160016101000a81548160ff021916908360ff160217905550838260050160006101000a81548160ff021916908315150217905550600885908060018154018082558091505090600182039060005260206000209060209182820401919006909192909190916101000a81548160ff021916908360ff16021790555050600192505050979650505050505050565b6000601360009054906101000a900473ffffffffffffffffffffffffffffffffffffffff168073ffffffffffffffffffffffffffffffffffffffff163373ffffffffffffffffffffffffffffffffffffffff16141515613825576040517f08c379a00000000000000000000000000000000000000000000000000000000081526004018080602001828103825260148152602001807f4f776e6572204e6f7420417574686f72697a656400000000000000000000000081525060200191505060405180910390fd5b6201e2408311151561383657600080fd5b6203944783111561385f5761385860155460145461396990919063ffffffff16565b9150613865565b60145491505b50919050565b60006004548210158015613880575060055482105b1561388e5760019050613893565b600090505b919050565b6000601360009054906101000a900473ffffffffffffffffffffffffffffffffffffffff168073ffffffffffffffffffffffffffffffffffffffff163373ffffffffffffffffffffffffffffffffffffffff16141515613960576040517f08c379a00000000000000000000000000000000000000000000000000000000081526004018080602001828103825260148152602001807f4f776e6572204e6f7420417574686f72697a656400000000000000000000000081525060200191505060405180910390fd5b601b5491505090565b600080828401905083811015151561398057600080fd5b8091505092915050565b6139dc81601e60008573ffffffffffffffffffffffffffffffffffffffff1673ffffffffffffffffffffffffffffffffffffffff1681526020019081526020016000205461396990919063ffffffff16565b601e60008473ffffffffffffffffffffffffffffffffffffffff1673ffffffffffffffffffffffffffffffffffffffff16815260200190815260200160002081905550613a348160185461396990919063ffffffff16565b60188190555080601e60008473ffffffffffffffffffffffffffffffffffffffff1673ffffffffffffffffffffffffffffffffffffffff1681526020019081526020016000205410158015613a8b57508060185410155b1515613a9657600080fd5b7f0f6798a560793a54c3bcfe86a93cde1e73087d944c0ea20544137d41213968858282604051808373ffffffffffffffffffffffffffffffffffffffff1673ffffffffffffffffffffffffffffffffffffffff1681526020018281526020019250505060405180910390a15050565b6000828211151515613b1657600080fd5b8183039050929150505600a165627a7a7230582087b006468370e0bb837690d1fdedbf6b54fb76d569eaef4fd291583df64234f60029",
  "source": "pragma solidity ^0.4.24;\n//pragma experimental \"v0.5.0\";\n\nimport \"./BrightCoinTokenOwner.sol\";\nimport \"./BrightCoinERC20ContractInterface.sol\";\nimport \"./BrightCoinTokenSaleType.sol\";\nimport \"./BrightCoinTokenDistributionDetails.sol\";\nimport \"./SafeMath.sol\";\n\n\ncontract BrightCoinERC20 is BrightCoinTokenOwner,TokenPreSaleDetails(msg.sender),TokenMainSaleDetails(msg.sender) ,BrightCoinTokenDistributionDetails(msg.sender)\n{\n  using SafeMath for uint;\n\n\n event Transfer(address indexed from, address indexed _to, uint256 _value);\n  event Approval(address indexed owner, address indexed _spender, uint256 _value);\n   // Event called when presale is done\n  event PresaleFinalized(uint tokens);\n  event ICOSoftCapReached(string softcap);\n  event ICOSoftUnsuccessFull(uint256 TokenSold,string str);\n  event Burn(address addr, uint256 tokens);\n  event Mint(address target, uint256 mintedAmount);\n  \n //Token Details  \n  string public constant Tokensymbol = \"ABC\"; // This is token symbol\n  string public constant TokenName = \"TokenName\"; // this is token name\n  uint256 public constant decimals = 18; // decimal digit for token price calculation\n  string public constant version = \"1.0\";\n  uint8 public constant ICOType = 0;   //0 for RegD , 1 for RegS and 2 for RedD & RegS and 3x means utility ICO\n  bool  internal isICOActive = true; \n  \n  enum BrightCoinICOType { RegD, RegS, RegDRegS, Utility }\n\n//Token Supply Details\n  uint256 public constant initialSupply = 100000;\n  uint256 public totalSupply; //Need to set at constructor level\n  uint256 private  BountyDistriuted = 0;\n  \n\n  //Purchase Rate\n  //purchase rate can be changed by the Owner\n  uint256 public purchaseRate = 1000;\n  function setPurchaseRate(uint newRate) public onlyTokenOwner(owner) {\n        require(purchaseRate != newRate);\n        purchaseRate = newRate;\n    }\n \n //ICO SoftCap & HardCap\n /*\n    Soft cap is the minimal amount required by your project, to make it viable, in order to continue. If you do not reach that amount during your ICO then you should allow your investors to refund their money using a push/ pull mechanism.\n */\n  uint internal ICOSoftCap = 1000000; //Minimum Eather to Reach\n  //uint internal ICOHardCap = 7*(10**6)*(10**uint256(decimals));  //Maximum Ether to Reach\n  uint internal ICOHardCap = 20000;\n\n\n  function ChangeSoftCap(uint newSoftCap) public onlyTokenOwner(owner) {\n        require(ICOSoftCap != newSoftCap);\n        require(newSoftCap < totalSupply);\n        ICOSoftCap = newSoftCap;\n      \n    }\n    function ChangeHardCap(uint newHardCap) public onlyTokenOwner(owner) {\n        require(ICOHardCap != newHardCap);\n        require(newHardCap < totalSupply);\n        ICOHardCap = newHardCap;\n      \n    }\n\n    function GetSoftCap() onlyTokenOwner(owner) view public  returns(uint256) {\n\n      return ICOSoftCap;\n    }\n\n     function GetHardCap()  onlyTokenOwner(owner) view public returns(uint256) {\n\n      return ICOHardCap;\n    }\n\n    //Check if softcap reached\n    function CheckIfSoftCapReached() onlyTokenOwner(owner)   internal  view returns(bool)\n    {\n\n      uint tokenSold = totalSupply.sub(balances[owner]);\n\n        if(tokenSold > ICOSoftCap)\n          return true;\n          else \n          return false;  \n        \n    }\n\n    //check if HARD Cap Achived\n    function CheckIfHardcapAchived(uint256 tokens)  internal view returns(bool)\n    {\n      uint tokenSold = totalSupply.sub(balances[owner]);\n      require(tokenSold <= ICOHardCap);\n      require(tokenSold.add(tokens) <=ICOHardCap);\n      return true;\n\n    }\n \n    \n  \n  //Investment storage address\n  address public FundDepositAddress = 0x403f4fedf6127f30e77ae8295dea47eea0832899; //Should be taken from Script \n  function ChangeFundDepositAddress(address NewFundDepositAddress) onlyTokenOwner(owner) public {\n    require( FundDepositAddress != NewFundDepositAddress );\n    FundDepositAddress = NewFundDepositAddress;\n  }\n  \n\n//option for Minting more token \nbool public MintMoreTokens  = false;\nfunction UpdateTokenMintingOption(bool mintingOption) onlyTokenOwner(owner) public {\n  \n  MintMoreTokens = mintingOption;\n}\n\n\n /////////////////////////////////////////////////   \n\n \n ////////////////////////////////////////\n  mapping(address => uint256) balances;\n //////////////////////////////////////////\n  \n \n  constructor () public{\n\n   totalSupply = initialSupply*(10**uint256(decimals));\n\n   TotalAllocatedTeamToken = InitialAllocatedTeamToken*(10**uint256(decimals));\n   FounderToken = InitialFounderToken*(10**uint256(decimals));\n   RewardsBountyToken = InitialRewardsBountyToken*(10**uint256(decimals));\n   CompanyHoldingValue = InitialCompanyHoldingValue*(10**uint256(decimals));\n   TotalAllocatedAdvisorToken = InitialAllocatedAdvisorToken*(10**uint256(decimals));\n   ICOHardCap = ICOHardCap*(10**uint256(decimals));\n\n    balances[msg.sender] = totalSupply;\n    BountyDistriuted = 0;\n \n  }\n\n \n\n // This function returns remaininig token\n  function balanceOf(address who) public constant returns (uint256) {\n      return balances[who];\n  }\n\n//Function Total Supply\nfunction totalSupply() public constant returns (uint256) {\n      return totalSupply;\n  }\n\n \n  function transferFrom(address _from, address _to, uint256 _value) public returns (bool success) {\n      \n        return true;\n    }\n    \n\n    function approve(address _spender, uint256 _value) public returns (bool success) {\n     \n        return true;\n    }\n    \n    function allowance(address _owner, address _spender) public view returns (uint256) {\n        return 1;\n      }\n    \n   \n    /// @notice Will Transfer tokens from current address to receipient address.\n    /// @param to  addresses to send token.\n    /// @param tokens amount of token to be transferred.\n    function internaltransfer(address to, uint256 tokens) internal returns (bool) {\n  \n     // Prevent transfer to 0x0 address. \n    require(to != 0x0);\n    require (tokens > 0);\n   require (msg.sender != to);\n   require(balances[msg.sender] >= tokens);\n   require(balances[to] + tokens > balances[to]);\n    balances[msg.sender] = balances[msg.sender].sub(tokens);\n    balances[to] = balances[to].add(tokens);\n    emit Transfer(msg.sender, to, tokens);\n    \n    return true;\n   }\n   \n   \n\n    /// @notice Will cause a certain `_value` of coins minted for `_to`.\n    /// @param _to The address that will receive the coin.\n    /// @param _value The amount of coin they will receive.\n    function mint(address _to, uint _value) onlyTokenOwner(owner) public {\n        require(msg.sender == owner); // assuming you have a contract owner\n        mintToken(_to, _value);\n    }\n\n    /// @notice Will allow multiple minting within a single call to save gas.\n    /// @param recipients A list of addresses to mint for.\n    /// @param _values The list of values for each respective `_to` address.\n    function airdropMinting(address[] recipients, uint256[] _values) onlyTokenOwner(owner) public {\n        require(msg.sender == owner); // assuming you have a contract owner\n        require(recipients.length == _values.length);\n        for (uint i = 0; i < recipients.length; i++) {\n\n            mintToken(recipients[i], _values[i]);\n        }\n    }\n\n    /// Internal method shared by `mint()` and `airdropMinting()`.\n    function mintToken(address _to, uint256 _value) internal {\n\n   \n        balances[_to]  = balances[_to].add(_value);\n        totalSupply =  totalSupply.add(_value); \n        require(balances[_to] >= _value && totalSupply >= _value); // overflow checks\n        emit  Mint(_to, _value);\n    } \n\n    /// @notice it will burn all the token passed as parameter.\n    /// @param _value Value of token to be burnt\n   function burn(uint256 _value) onlyTokenOwner(owner) public {\n    require(_value > 0);\n    require(_value <= balances[msg.sender]);\n    // no need to require value <= totalSupply, since that would imply the\n    // sender's balance is greater than the totalSupply, which *should* be an assertion failure\n\n    address burner = msg.sender;\n    balances[burner] = balances[burner].sub(_value);\n    totalSupply = totalSupply.sub(_value);\n    emit Burn(burner, _value);\n   }\n\n\n   //Owner of ICO can anytime Stop the ICO post that no any transaction will happen\n   function StopICO(bool _status) onlyTokenOwner(owner) public {\n\n    isICOActive = _status;\n   }\n  \n\n}",
  "sourcePath": "/Users/sandeepkumar/BrightCoinContract/contracts/BrightCoinERC20Contract.sol",
  "compiler": {
    "name": "solc",
    "version": "0.4.24+commit.e67f0147.Emscripten.clang"
  },
  "schemaVersion": "2.0.1",
  "updatedAt": "2018-09-06T06:25:58.200Z"
}