{
  "contractName": "TokenPreSaleDetails",
  "abi": [
    {
      "constant": true,
      "inputs": [],
      "name": "BonusAmountPreSale",
      "outputs": [
        {
          "name": "",
          "type": "uint256"
        }
      ],
      "payable": false,
      "stateMutability": "view",
      "type": "function"
    },
    {
      "constant": true,
      "inputs": [],
      "name": "PreSaleOn",
      "outputs": [
        {
          "name": "",
          "type": "bool"
        }
      ],
      "payable": false,
      "stateMutability": "view",
      "type": "function"
    },
    {
      "constant": true,
      "inputs": [],
      "name": "maxCoinSoldDuringPresale",
      "outputs": [
        {
          "name": "",
          "type": "uint256"
        }
      ],
      "payable": false,
      "stateMutability": "view",
      "type": "function"
    },
    {
      "constant": true,
      "inputs": [],
      "name": "Discount",
      "outputs": [
        {
          "name": "",
          "type": "uint8"
        }
      ],
      "payable": false,
      "stateMutability": "view",
      "type": "function"
    },
    {
      "inputs": [
        {
          "name": "_owner",
          "type": "address"
        }
      ],
      "payable": false,
      "stateMutability": "nonpayable",
      "type": "constructor"
    },
    {
      "constant": false,
      "inputs": [
        {
          "name": "startDateTimeStamp",
          "type": "uint256"
        }
      ],
      "name": "changeStartDate",
      "outputs": [
        {
          "name": "",
          "type": "bool"
        }
      ],
      "payable": false,
      "stateMutability": "nonpayable",
      "type": "function"
    },
    {
      "constant": false,
      "inputs": [
        {
          "name": "endDateTimeStamp",
          "type": "uint256"
        }
      ],
      "name": "changeEndDate",
      "outputs": [
        {
          "name": "",
          "type": "bool"
        }
      ],
      "payable": false,
      "stateMutability": "nonpayable",
      "type": "function"
    },
    {
      "constant": true,
      "inputs": [
        {
          "name": "currenttime",
          "type": "uint256"
        }
      ],
      "name": "inPreSalePeriod",
      "outputs": [
        {
          "name": "",
          "type": "bool"
        }
      ],
      "payable": false,
      "stateMutability": "view",
      "type": "function"
    },
    {
      "constant": false,
      "inputs": [
        {
          "name": "presalestatus",
          "type": "bool"
        }
      ],
      "name": "changePresaleStatus",
      "outputs": [],
      "payable": false,
      "stateMutability": "nonpayable",
      "type": "function"
    }
  ],
  "bytecode": "0x60806040526706f05b59d3b200006002556801a055690d9db80000600355635b8e7168600455635d58d2066005556001600660006101000a81548160ff02191690831515021790555034801561005457600080fd5b506040516020806106a183398101806040528101908080519060200190929190505050336000806101000a81548173ffffffffffffffffffffffffffffffffffffffff021916908373ffffffffffffffffffffffffffffffffffffffff16021790555080600160006101000a81548173ffffffffffffffffffffffffffffffffffffffff021916908373ffffffffffffffffffffffffffffffffffffffff16021790555050610599806101086000396000f30060806040526004361061008d576000357c0100000000000000000000000000000000000000000000000000000000900463ffffffff168062739f2a14610092578063410116fb146100d757806345737b1e146101025780639dd48267146101475780639f648a9414610176578063b30f63da146101a5578063c63ccb3b146101d0578063f569aed614610201575b600080fd5b34801561009e57600080fd5b506100bd60048036038101908080359060200190929190505050610246565b604051808215151515815260200191505060405180910390f35b3480156100e357600080fd5b506100ec61033f565b6040518082815260200191505060405180910390f35b34801561010e57600080fd5b5061012d60048036038101908080359060200190929190505050610344565b604051808215151515815260200191505060405180910390f35b34801561015357600080fd5b5061017460048036038101908080351515906020019092919050505061043d565b005b34801561018257600080fd5b5061018b610521565b604051808215151515815260200191505060405180910390f35b3480156101b157600080fd5b506101ba610534565b6040518082815260200191505060405180910390f35b3480156101dc57600080fd5b506101e561053b565b604051808260ff1660ff16815260200191505060405180910390f35b34801561020d57600080fd5b5061022c60048036038101908080359060200190929190505050610540565b604051808215151515815260200191505060405180910390f35b6000600160009054906101000a900473ffffffffffffffffffffffffffffffffffffffff168073ffffffffffffffffffffffffffffffffffffffff163373ffffffffffffffffffffffffffffffffffffffff1614151561030e576040517f08c379a00000000000000000000000000000000000000000000000000000000081526004018080602001828103825260148152602001807f4f776e6572204e6f7420417574686f72697a656400000000000000000000000081525060200191505060405180910390fd5b4260045411151561031e57600080fd5b6005548310151561032e57600080fd5b826004819055506001915050919050565b600081565b6000600160009054906101000a900473ffffffffffffffffffffffffffffffffffffffff168073ffffffffffffffffffffffffffffffffffffffff163373ffffffffffffffffffffffffffffffffffffffff1614151561040c576040517f08c379a00000000000000000000000000000000000000000000000000000000081526004018080602001828103825260148152602001807f4f776e6572204e6f7420417574686f72697a656400000000000000000000000081525060200191505060405180910390fd5b4260055411151561041c57600080fd5b6004548311151561042c57600080fd5b826005819055506001915050919050565b600160009054906101000a900473ffffffffffffffffffffffffffffffffffffffff168073ffffffffffffffffffffffffffffffffffffffff163373ffffffffffffffffffffffffffffffffffffffff16141515610503576040517f08c379a00000000000000000000000000000000000000000000000000000000081526004018080602001828103825260148152602001807f4f776e6572204e6f7420417574686f72697a656400000000000000000000000081525060200191505060405180910390fd5b81600660006101000a81548160ff0219169083151502179055505050565b600660009054906101000a900460ff1681565b620186a081565b600081565b60006004548210158015610555575060055482105b156105635760019050610568565b600090505b9190505600a165627a7a72305820ae4943e3d14c2e0e47773da4ff5e2d91aead3dbffbb77b91382faa9cb6e4148e0029",
  "source": "pragma solidity ^0.4.24;\nimport \"./BrightCoinTokenOwner.sol\";\nimport \"./SafeMath.sol\";\n\n//Section1\n//...............................................................................\ncontract TokenPreSaleDetails is BrightCoinTokenOwner\n{\n\n    address owner;\n    using SafeMath for uint;\n\n    constructor(address _owner) public\n    {\n      owner = _owner;\n    }\n\n  \n   //For Presales Only \n    uint256  public constant maxCoinSoldDuringPresale = 1000*100;\n    uint256  public constant BonusAmountPreSale = 0;\n    uint8    public constant Discount = 0; \n\n    //Presale Maximum and Minmum Contributions\n    uint256  internal MinimumContributionPreSale = 0.5 ether;\n    uint256  internal MaximumContributionPreSale  = 30 ether;\n\n    //PreSale Start & End Dates \n    uint256 internal ICOstartDate = 1536061800;    \n    uint256 internal ICOendDate = 1566102022;     //22/12/2018\n \n     //Function for changing the startDate of Presale\n    function changeStartDate(uint256 startDateTimeStamp) onlyTokenOwner(owner) public returns(bool){\n\n    require(ICOstartDate > now);\n    require( startDateTimeStamp < ICOendDate );\n    ICOstartDate = startDateTimeStamp;\n    return true;\n  }\n\n    //Function for changing the endDate of Presale\n    function changeEndDate(uint256 endDateTimeStamp) onlyTokenOwner(owner) public returns(bool) \n    {\n      require(ICOendDate > now);\n      require( endDateTimeStamp > ICOstartDate );\n      ICOendDate = endDateTimeStamp;\n      return true;\n    }\n    \n     //  Function for validating the pre sale period\n     function inPreSalePeriod(uint256 currenttime) public view returns (bool) {\n      if (currenttime >= ICOstartDate && currenttime < ICOendDate) \n          return true;\n      else \n          return false;     \n     }\n\n     //Check if presale is ON\n     bool public PreSaleOn = true; \n     function changePresaleStatus(bool presalestatus) onlyTokenOwner(owner) public\n     {\n       PreSaleOn = presalestatus;\n     }\n}\n\n//Section2\n//..........................................................................\ncontract TokenMainSaleDetails  is BrightCoinTokenOwner\n{\n   //For MainSale\nstruct MainSaleTokenDistrubution\n{\n    uint256 mainStartDate;\n    uint256 mainSaleEndDate ;\n    uint256 MaxCoinSold;\n    uint256 BonusDuringMainsale;\n    uint256 TokenLockinPeriod;\n    bool    PeriodActive;\n    uint8 PeriodIndex;\n}\n\n address owner;\nconstructor(address _owner) public\n{\n  owner = _owner;\n}\n\nmapping(uint256 => MainSaleTokenDistrubution) MainSaleCountMapping;\nuint8[] internal  mainSaleToken;\n\nfunction AddMainSalePeriod(uint256 mainStartDate,uint256 mainSaleEndDate,uint256 TokenLockinPeriod,uint256 MaxCoinSold,uint256 BonusDuringMainsale,uint8 PeriodIndex, bool PeriodActive) onlyTokenOwner(owner) public   returns(bool)\n   {\n\n      MainSaleTokenDistrubution storage mainSale = MainSaleCountMapping[PeriodIndex];\n      mainSale.mainStartDate  = mainStartDate;\n      mainSale.mainSaleEndDate = mainSaleEndDate;\n      mainSale.TokenLockinPeriod = TokenLockinPeriod;\n      mainSale.MaxCoinSold = MaxCoinSold;\n      mainSale.BonusDuringMainsale = BonusDuringMainsale;\n      mainSale.PeriodIndex = PeriodIndex; \n      mainSale.PeriodActive = PeriodActive;\n\n      mainSaleToken.push(PeriodIndex);\n      return true;\n    }                                                      \n                            \n\n                            \n\n  //Function for changing the startDate of ICO\n function CheckTokenPeriodSale(uint256 DateTimeStamp, uint8 PeriodIndex) onlyTokenOwner(owner) public view returns(bool) {\n\n        MainSaleTokenDistrubution storage MainSaleTokenSale = MainSaleCountMapping[PeriodIndex];\n       require(MainSaleTokenSale.mainStartDate !=0);\n        require(MainSaleTokenSale.mainSaleEndDate !=0);\n\n        if( (MainSaleTokenSale.mainStartDate < DateTimeStamp) && (MainSaleTokenSale.mainSaleEndDate > DateTimeStamp) )\n        return true;\n\n        return false;\n        \n  }\n\n  //Function for getting bonus details\n function GetBonusDetails(uint8 PeriodIndex) onlyTokenOwner(owner) public view returns(uint256) {\n\n        MainSaleTokenDistrubution storage MainSaleToken = MainSaleCountMapping[PeriodIndex];\n        return MainSaleToken.BonusDuringMainsale;\n        \n  }\n\n  //EndToken Mail Sale Abruptly\n  function EndMainSale(uint8 PeriodIndex) onlyTokenOwner(owner) public\n  {\n\n  MainSaleTokenDistrubution storage MainSaleTokenSale = MainSaleCountMapping[PeriodIndex];\n  MainSaleTokenSale.PeriodActive = false;\n\n  //Whether we need to give refund instantly  , to be managed by Application not Samrt contract\n\n  }\n\n  //Function for changing the startDate of ICO\n function CheckIfMainSaleOn(uint8 PeriodIndex)  public view returns(bool) {\n\n        MainSaleTokenDistrubution storage MainSaleTokenSale = MainSaleCountMapping[PeriodIndex];\n        return(MainSaleTokenSale.PeriodActive);\n        \n  }\n\n\n  function MainSaleCount() view public returns(uint256)\n  {\n     return mainSaleToken.length;\n  }\n\n  function CheckMainSaleLimit( uint8 periodIndex, uint256 tokenamount) returns(bool)\n  {\n\n    MainSaleTokenDistrubution storage MainSaleTokenSale = MainSaleCountMapping[periodIndex];\n    if(tokenamount <= MainSaleTokenSale.MaxCoinSold )\n      return true;\n\n      return false;\n\n  }\n\n\n}\n    \n\n \n  ",
  "sourcePath": "/Users/sandeepkumar/BrightCoinContract/contracts/BrightCoinTokenSaleType.sol",
  "compiler": {
    "name": "solc",
    "version": "0.4.24+commit.e67f0147.Emscripten.clang"
  },
  "schemaVersion": "2.0.1",
  "updatedAt": "2018-09-06T06:25:58.263Z"
}