{
  "contractName": "TokenMainSaleDetails",
  "abi": [
    {
      "inputs": [
        {
          "name": "_owner",
          "type": "address"
        }
      ],
      "payable": false,
      "stateMutability": "nonpayable",
      "type": "constructor"
    },
    {
      "constant": false,
      "inputs": [
        {
          "name": "mainStartDate",
          "type": "uint256"
        },
        {
          "name": "mainSaleEndDate",
          "type": "uint256"
        },
        {
          "name": "TokenLockinPeriod",
          "type": "uint256"
        },
        {
          "name": "MaxCoinSold",
          "type": "uint256"
        },
        {
          "name": "BonusDuringMainsale",
          "type": "uint256"
        },
        {
          "name": "PeriodIndex",
          "type": "uint8"
        },
        {
          "name": "PeriodActive",
          "type": "bool"
        }
      ],
      "name": "AddMainSalePeriod",
      "outputs": [
        {
          "name": "",
          "type": "bool"
        }
      ],
      "payable": false,
      "stateMutability": "nonpayable",
      "type": "function"
    },
    {
      "constant": true,
      "inputs": [
        {
          "name": "DateTimeStamp",
          "type": "uint256"
        },
        {
          "name": "PeriodIndex",
          "type": "uint8"
        }
      ],
      "name": "CheckTokenPeriodSale",
      "outputs": [
        {
          "name": "",
          "type": "bool"
        }
      ],
      "payable": false,
      "stateMutability": "view",
      "type": "function"
    },
    {
      "constant": true,
      "inputs": [
        {
          "name": "PeriodIndex",
          "type": "uint8"
        }
      ],
      "name": "GetBonusDetails",
      "outputs": [
        {
          "name": "",
          "type": "uint256"
        }
      ],
      "payable": false,
      "stateMutability": "view",
      "type": "function"
    },
    {
      "constant": false,
      "inputs": [
        {
          "name": "PeriodIndex",
          "type": "uint8"
        }
      ],
      "name": "EndMainSale",
      "outputs": [],
      "payable": false,
      "stateMutability": "nonpayable",
      "type": "function"
    },
    {
      "constant": true,
      "inputs": [
        {
          "name": "PeriodIndex",
          "type": "uint8"
        }
      ],
      "name": "CheckIfMainSaleOn",
      "outputs": [
        {
          "name": "",
          "type": "bool"
        }
      ],
      "payable": false,
      "stateMutability": "view",
      "type": "function"
    },
    {
      "constant": true,
      "inputs": [],
      "name": "MainSaleCount",
      "outputs": [
        {
          "name": "",
          "type": "uint256"
        }
      ],
      "payable": false,
      "stateMutability": "view",
      "type": "function"
    },
    {
      "constant": false,
      "inputs": [
        {
          "name": "periodIndex",
          "type": "uint8"
        },
        {
          "name": "tokenamount",
          "type": "uint256"
        }
      ],
      "name": "CheckMainSaleLimit",
      "outputs": [
        {
          "name": "",
          "type": "bool"
        }
      ],
      "payable": false,
      "stateMutability": "nonpayable",
      "type": "function"
    }
  ],
  "bytecode": "0x608060405234801561001057600080fd5b506040516020806108d383398101806040528101908080519060200190929190505050336000806101000a81548173ffffffffffffffffffffffffffffffffffffffff021916908373ffffffffffffffffffffffffffffffffffffffff16021790555080600160006101000a81548173ffffffffffffffffffffffffffffffffffffffff021916908373ffffffffffffffffffffffffffffffffffffffff1602179055505061080f806100c46000396000f300608060405260043610610083576000357c0100000000000000000000000000000000000000000000000000000000900463ffffffff168063174f8bdb1461008857806342aa9bb5146100cc578063a63fb2d914610114578063b8eb416414610166578063c7e3cbff14610191578063ede1c282146101c1578063f0b2d90d14610213575b600080fd5b34801561009457600080fd5b506100b6600480360381019080803560ff169060200190929190505050610299565b6040518082815260200191505060405180910390f35b3480156100d857600080fd5b506100fa600480360381019080803560ff169060200190929190505050610388565b604051808215151515815260200191505060405180910390f35b34801561012057600080fd5b5061014c60048036038101908080359060200190929190803560ff1690602001909291905050506103bd565b604051808215151515815260200191505060405180910390f35b34801561017257600080fd5b5061017b6104f7565b6040518082815260200191505060405180910390f35b34801561019d57600080fd5b506101bf600480360381019080803560ff169060200190929190505050610504565b005b3480156101cd57600080fd5b506101f9600480360381019080803560ff16906020019092919080359060200190929190505050610606565b604051808215151515815260200191505060405180910390f35b34801561021f57600080fd5b5061027f6004803603810190808035906020019092919080359060200190929190803590602001909291908035906020019092919080359060200190929190803560ff169060200190929190803515159060200190929190505050610643565b604051808215151515815260200191505060405180910390f35b600080600160009054906101000a900473ffffffffffffffffffffffffffffffffffffffff168073ffffffffffffffffffffffffffffffffffffffff163373ffffffffffffffffffffffffffffffffffffffff16141515610362576040517f08c379a00000000000000000000000000000000000000000000000000000000081526004018080602001828103825260148152602001807f4f776e6572204e6f7420417574686f72697a656400000000000000000000000081525060200191505060405180910390fd5b600260008560ff1681526020019081526020016000209150816003015492505050919050565b600080600260008460ff16815260200190815260200160002090508060050160009054906101000a900460ff16915050919050565b600080600160009054906101000a900473ffffffffffffffffffffffffffffffffffffffff168073ffffffffffffffffffffffffffffffffffffffff163373ffffffffffffffffffffffffffffffffffffffff16141515610486576040517f08c379a00000000000000000000000000000000000000000000000000000000081526004018080602001828103825260148152602001807f4f776e6572204e6f7420417574686f72697a656400000000000000000000000081525060200191505060405180910390fd5b600260008560ff168152602001908152602001600020915060008260000154141515156104b257600080fd5b60008260010154141515156104c657600080fd5b8482600001541080156104dc5750848260010154115b156104ea57600192506104ef565b600092505b505092915050565b6000600380549050905090565b6000600160009054906101000a900473ffffffffffffffffffffffffffffffffffffffff168073ffffffffffffffffffffffffffffffffffffffff163373ffffffffffffffffffffffffffffffffffffffff161415156105cc576040517f08c379a00000000000000000000000000000000000000000000000000000000081526004018080602001828103825260148152602001807f4f776e6572204e6f7420417574686f72697a656400000000000000000000000081525060200191505060405180910390fd5b600260008460ff168152602001908152602001600020915060008260050160006101000a81548160ff021916908315150217905550505050565b600080600260008560ff1681526020019081526020016000209050806002015483111515610637576001915061063c565b600091505b5092915050565b600080600160009054906101000a900473ffffffffffffffffffffffffffffffffffffffff168073ffffffffffffffffffffffffffffffffffffffff163373ffffffffffffffffffffffffffffffffffffffff1614151561070c576040517f08c379a00000000000000000000000000000000000000000000000000000000081526004018080602001828103825260148152602001807f4f776e6572204e6f7420417574686f72697a656400000000000000000000000081525060200191505060405180910390fd5b600260008660ff1681526020019081526020016000209150898260000181905550888260010181905550878260040181905550868260020181905550858260030181905550848260050160016101000a81548160ff021916908360ff160217905550838260050160006101000a81548160ff021916908315150217905550600385908060018154018082558091505090600182039060005260206000209060209182820401919006909192909190916101000a81548160ff021916908360ff160217905550506001925050509796505050505050505600a165627a7a72305820b75c270770ec91d30d89977e529ce9d0d90c4aee8a3d1560084194770e2e66780029",
  "source": "pragma solidity ^0.4.24;\nimport \"./BrightCoinTokenOwner.sol\";\nimport \"./SafeMath.sol\";\n\n//Section1\n//...............................................................................\ncontract TokenPreSaleDetails is BrightCoinTokenOwner\n{\n\n    address owner;\n    using SafeMath for uint;\n\n    constructor(address _owner) public\n    {\n      owner = _owner;\n    }\n\n  \n   //For Presales Only \n    uint256  public constant maxCoinSoldDuringPresale = 1000*100;\n    uint256  public constant BonusAmountPreSale = 0;\n    uint8    public constant Discount = 0; \n\n    //Presale Maximum and Minmum Contributions\n    uint256  internal MinimumContributionPreSale = 0.5 ether;\n    uint256  internal MaximumContributionPreSale  = 30 ether;\n\n    //PreSale Start & End Dates \n    uint256 internal ICOstartDate = 1536061800;    \n    uint256 internal ICOendDate = 1566102022;     //22/12/2018\n \n     //Function for changing the startDate of Presale\n    function changeStartDate(uint256 startDateTimeStamp) onlyTokenOwner(owner) public returns(bool){\n\n    require(ICOstartDate > now);\n    require( startDateTimeStamp < ICOendDate );\n    ICOstartDate = startDateTimeStamp;\n    return true;\n  }\n\n    //Function for changing the endDate of Presale\n    function changeEndDate(uint256 endDateTimeStamp) onlyTokenOwner(owner) public returns(bool) \n    {\n      require(ICOendDate > now);\n      require( endDateTimeStamp > ICOstartDate );\n      ICOendDate = endDateTimeStamp;\n      return true;\n    }\n    \n     //  Function for validating the pre sale period\n     function inPreSalePeriod(uint256 currenttime) public view returns (bool) {\n      if (currenttime >= ICOstartDate && currenttime < ICOendDate) \n          return true;\n      else \n          return false;     \n     }\n\n     //Check if presale is ON\n     bool public PreSaleOn = true; \n     function changePresaleStatus(bool presalestatus) onlyTokenOwner(owner) public\n     {\n       PreSaleOn = presalestatus;\n     }\n}\n\n//Section2\n//..........................................................................\ncontract TokenMainSaleDetails  is BrightCoinTokenOwner\n{\n   //For MainSale\nstruct MainSaleTokenDistrubution\n{\n    uint256 mainStartDate;\n    uint256 mainSaleEndDate ;\n    uint256 MaxCoinSold;\n    uint256 BonusDuringMainsale;\n    uint256 TokenLockinPeriod;\n    bool    PeriodActive;\n    uint8 PeriodIndex;\n}\n\n address owner;\nconstructor(address _owner) public\n{\n  owner = _owner;\n}\n\nmapping(uint256 => MainSaleTokenDistrubution) MainSaleCountMapping;\nuint8[] internal  mainSaleToken;\n\nfunction AddMainSalePeriod(uint256 mainStartDate,uint256 mainSaleEndDate,uint256 TokenLockinPeriod,uint256 MaxCoinSold,uint256 BonusDuringMainsale,uint8 PeriodIndex, bool PeriodActive) onlyTokenOwner(owner) public   returns(bool)\n   {\n\n      MainSaleTokenDistrubution storage mainSale = MainSaleCountMapping[PeriodIndex];\n      mainSale.mainStartDate  = mainStartDate;\n      mainSale.mainSaleEndDate = mainSaleEndDate;\n      mainSale.TokenLockinPeriod = TokenLockinPeriod;\n      mainSale.MaxCoinSold = MaxCoinSold;\n      mainSale.BonusDuringMainsale = BonusDuringMainsale;\n      mainSale.PeriodIndex = PeriodIndex; \n      mainSale.PeriodActive = PeriodActive;\n\n      mainSaleToken.push(PeriodIndex);\n      return true;\n    }                                                      \n                            \n\n                            \n\n  //Function for changing the startDate of ICO\n function CheckTokenPeriodSale(uint256 DateTimeStamp, uint8 PeriodIndex) onlyTokenOwner(owner) public view returns(bool) {\n\n        MainSaleTokenDistrubution storage MainSaleTokenSale = MainSaleCountMapping[PeriodIndex];\n       require(MainSaleTokenSale.mainStartDate !=0);\n        require(MainSaleTokenSale.mainSaleEndDate !=0);\n\n        if( (MainSaleTokenSale.mainStartDate < DateTimeStamp) && (MainSaleTokenSale.mainSaleEndDate > DateTimeStamp) )\n        return true;\n\n        return false;\n        \n  }\n\n  //Function for getting bonus details\n function GetBonusDetails(uint8 PeriodIndex) onlyTokenOwner(owner) public view returns(uint256) {\n\n        MainSaleTokenDistrubution storage MainSaleToken = MainSaleCountMapping[PeriodIndex];\n        return MainSaleToken.BonusDuringMainsale;\n        \n  }\n\n  //EndToken Mail Sale Abruptly\n  function EndMainSale(uint8 PeriodIndex) onlyTokenOwner(owner) public\n  {\n\n  MainSaleTokenDistrubution storage MainSaleTokenSale = MainSaleCountMapping[PeriodIndex];\n  MainSaleTokenSale.PeriodActive = false;\n\n  //Whether we need to give refund instantly  , to be managed by Application not Samrt contract\n\n  }\n\n  //Function for changing the startDate of ICO\n function CheckIfMainSaleOn(uint8 PeriodIndex)  public view returns(bool) {\n\n        MainSaleTokenDistrubution storage MainSaleTokenSale = MainSaleCountMapping[PeriodIndex];\n        return(MainSaleTokenSale.PeriodActive);\n        \n  }\n\n\n  function MainSaleCount() view public returns(uint256)\n  {\n     return mainSaleToken.length;\n  }\n\n  function CheckMainSaleLimit( uint8 periodIndex, uint256 tokenamount) returns(bool)\n  {\n\n    MainSaleTokenDistrubution storage MainSaleTokenSale = MainSaleCountMapping[periodIndex];\n    if(tokenamount <= MainSaleTokenSale.MaxCoinSold )\n      return true;\n\n      return false;\n\n  }\n\n\n}\n    \n\n \n  ",
  "sourcePath": "/Users/sandeepkumar/BrightCoinContract/contracts/BrightCoinTokenSaleType.sol",
  "compiler": {
    "name": "solc",
    "version": "0.4.24+commit.e67f0147.Emscripten.clang"
  },
  "schemaVersion": "2.0.1",
  "updatedAt": "2018-09-06T06:25:58.250Z"
}